:020000040000FA
:10000000004400205944010001C9011001C9011038
:1000100001C9011001C9011001C9011001C9011074
:1000200001C9011001C9011001C9011001C9011064
:1000300001C9011001C901103FC90110F0B4024605
:10004000106895681318506803EB5004C0071DD55D
:100050004D441BE013F8017B05F8017B491EF9D1E3
:10006000A0B1B60813F8011B06F00306032E08BF63
:1000700013F8016B01EB06214942801C294405D08D
:1000800011F8016B05F8016B401EF9D1A3420ED0A7
:1000900013F8016B16F0030104BF13F8011BC91C10
:1000A00030090F28DAD113F8010B0F30D6E7F0BC76
:1000B00002F10C007047000062B38B0708D0521E9B
:1000C00011F8013B00F8013B00F024808B07F6D1CA
:1000D000830740F0208000BF103A07D330B4B1E866
:1000E0003810103AA0E83810F9D230BC530724BFBA
:1000F000B1E80810A0E8081044BF51F8043B40F8EC
:10010000043BD20724BF31F8022B20F8022B44BF56
:100110000B7803707047121F17D35B0009D151F899
:10012000043B20F8023B1B0C121F20F8023BF6D2C6
:100130000BE051F8043B00F8013B1B0A20F8023B9E
:100140001B0C121F00F8013BF3D238BF121D521EC8
:1001500024BF11F8013B00F8013BF8D87047024674
:100160000229107803D1517800EB01207047032950
:1001700006D15178927800EB012000EB02407047E5
:10018000042908D15178937800EB0120D17800EB55
:10019000034000EB01607047002200F09DB930B4CD
:1001A000002513E050F8042BD30744BFA9F1010345
:1001B0009A18091F042942F8045BFAD213468C07E7
:1001C00044BF15809B1CC90748BF1D7050F8041B15
:1001D0000029E7D130BC7047F8B5044610480168E3
:1001E0008847104A05461068002101E00146006872
:1001F00080B100F10806B44221BF00F108078688EB
:10020000BE19A642F2D3036800290CBF13600B602D
:1002100000F07CF904490A682846BDE8F24010471E
:10022000DC020020181C0020E0020020002200F068
:1002300075B901700A0A0B0C090E42708370C17007
:10024000001D704703460020002B00D1704730B5D9
:100250000120002400E0641CA5B2954203D25D5D3C
:100260008D42F8D0002030BD03000020521E22BF76
:1002700013F8010B11F801CBB0EB0C00F6D0521CB7
:1002800008BF1046704738B504460D4600F050F9D7
:1002900068B16D42611900F10803994221BF00F174
:1002A000080580882818884201D3084632BD2046B8
:1002B00032BD0000DFF800F01D9A01100120FFF7A9
:1002C000F9BF0000D3BBD9B1B2F5803F5BD2022A9F
:1002D0001ED98C46B1FBF2F102FB11C31B0443EAA9
:1002E0001043B3FBF2FC02FB1C3380B240EA034331
:1002F000B3FBF2F002FB103240EA0C4000237047DF
:10030000022A05D98446B0FBF2F002FB10C2704706
:100310004AB105D100F0010249085FEA3000704798
:1003200000220023704700F023B90B0002000021D7
:1003300000207047F7D3002200237047904271EBF2
:10034000030CF2D370B5B1FA81F4B3FA83F52C1B28
:10035000A340C4F1200532FA05F63343A2405FF012
:100360000046E64002E05B085FEA3202841A71EB65
:10037000030524BF204629467641F4D302000B0032
:100380003000002170BD70B5B1FA81F4B2FA82F587
:10039000C4F120046419B4F12006DAD3B2405FF04E
:1003A0000044F440002502E052085FEA3303C61A15
:1003B00071EB020E24BF3046714664416D41F3D3A8
:1003C00002000B002000290070BD00180148007DCC
:1003D000704700BFA401002010B5044601E004F0FE
:1003E00009F8B4FA84F0C0B2202806D000F018F85A
:1003F000F5DB401F04F013F8F3E710BD10B5044619
:1004000001E003F092FFB4FA84F0C0B2202806D0D5
:1004100000F006F8F5DB401F03F09DFFF3E710BD89
:10042000C0F11F00C0B2012181404C400528704737
:1004300038B5044601206071244D2079A8B103F03D
:100440008AF904462878FF2805D1204603F08EF962
:100450006FF0060032BD401C2870C0B2012804BFF6
:100460006868FFF7B9FF204614E003F074F92978B3
:1004700021B903F07BF96FF0070032BD491E2970E6
:10048000C9B239B903F072F96868FFF7B7FF002005
:10049000607101E003F06AF9002032BD80B5406868
:1004A00010F07F4F00D00DE0FFF796FF002002BD57
:1004B00080B5406810F07F4F00D003E0FFF79EFF4B
:1004C000002002BD6FF0020002BD0000F00200201B
:1004D00062F30F2262F31F4200B500BF130096467D
:1004E0009446103928BFA0E80C50FAD85FEA417C46
:1004F00028BF0CC048BF40F8042BC90728BF20F80C
:10050000022B48BF00F8012B00BD011802490A6800
:1005100052F8383F184700BF5C1D00204018491CA6
:100520001CBFB1F1010100F8012DF9D1704700287D
:1005300038B505460B48016888470B4A14685CB11A
:1005400004F10802954221BF04F10803A2889A1819
:10055000AA4238BF2468F2D304490A68904720466B
:1005600032BD00BFDC020020181C0020E002002089
:1005700070470128DFF800F0C1BF0110DFF800F07C
:10058000B9BA0110DFF800F0E5C00110DFF800F0A3
:100590001FBE0110DFF800F069B20110DFF800F0B3
:1005A000DDC00110DFF800F091BE011020B108237A
:1005B00024220021FFF7DEBF7047F0B51C0089B090
:1005C00005460E46174603D10023FFF7E3FF0FE071
:1005D0006846FFF7EBFFA16806916B462278ADF8FD
:1005E00010203A466068059031462846FFF7D2FF52
:1005F0000F48104A01681160284609B0F0BDFFF7A6
:10060000CDBFFFF7CFBF04F01DBE80B504F031FEB3
:1006100000B10120C0B202BD0021816001704160C3
:100620007047FFF7AFBFFFF7B1BFFFF7A7BF0000ED
:10063000FC4501007C1C002010B5044600F081F848
:10064000002161602160BDE8104000F093B838B52A
:10065000054600F076F82C683CB1216829602168D5
:1006600000291ABF00224A60696000F083F8204622
:1006700032BD38B500F00FF80021296062686A6069
:100680006168002914BF0D6025606560FFE7BDE863
:10069000324000F06FB804460D4600F052B838B54D
:1006A000FFF7F9FF29686A6800290CBF62604A6099
:1006B00069682A6800290CBF22600A60E7E70228FF
:1006C000DFF800F085BF0110DFF800F061C0011015
:1006D000DFF800F079BF0110DFF800F0A9C00110C9
:1006E000DFF800F089AF0110DFF800F055BC011011
:1006F00020B1082330220021FFF7EABF7047F8B588
:100700001C008CB005460E46174603D1002304F0AA
:10071000B7FD0CE06846FFF7EBFF206805906B46DD
:10072000606808903A4600F004F804F0A9FD0DB0A6
:10073000F0BD207AADF81800314628467047FFF723
:10074000CBBFFFF7BDBFFFF7CBBF80B5FFF73EFEC6
:10075000401E8041C00F02BD04F0B2BD04F0BABD1E
:10076000FFF7C2BF002101604FF0FF32012342605A
:1007700003727047FFF7A8BFDFF800F011BF011048
:10078000DFF800F005B30110DFF800F031BF011011
:10079000DFF800F0F5B7011030BF7047FCE738B55F
:1007A00004F06CFA04F01CFA03F007FD054605F0AE
:1007B0000C000C2853D0680729D404F093FD04469C
:1007C0000121012003F0FDFC314A116801FB04F313
:1007D00098421CD2F025B5FBF1F1641A2D49887CB2
:1007E00018B1C868A04238BF04462B4D214605F118
:1007F0000C00FFF7C7FE05F10C00FFF7C7FE012054
:1008000003F05EFE05F10C00FFF7B8FE29E02807B3
:1008100025D4224C2248216A8A6890470428F8D0BF
:10082000EA06204900D420B9086840F001000860B9
:1008300003E00A68520852000A601B481B4D016819
:1008400041F00301016020202268916988472868EF
:1008500021688A6B904701202860296801E0FFF732
:100860009DFFBDE8314004F00DBA10B5104CFFF704
:100870008BFF2060FFF780FF606010BD10B50C4C4F
:100880006068FFF77DFF2068BDE81040FFF780BF7C
:10089000FC4501005825010004050020B8010010A6
:1008A000004003408C210840242208402C200940AD
:1008B000081C002080B500F003F800B1807802BD6C
:1008C00030B5002200E0521C064C2578D3B2AB4272
:1008D00006D231F823408442F5D101EB830030BDCC
:1008E000002030BD694F00202DE9FE4F00F0EAF8EE
:1008F00000255FEA000803D00AF008F84FF0FF383F
:100900006248006830B1804704E06148016809B17D
:1009100001988847DFF87C915F4CD9F8003053F894
:100920001C7F01AA69460DF10100B84700285B4F02
:100930002DD10198A0F10C07B9790329E5D09DF8D4
:100940000000002600E0761C55490A78964206D23F
:10095000E1688A5D8242F6D1F0B2FF2805D1D9F86C
:10096000000050F8081F8847D4E7387900F0BCF839
:10097000B979012902D10199087003E0022904BF65
:10098000019988700199F0B209F0A2FFC2E73968B5
:10099000EAB231F8120028B9414802786D1CE9B278
:1009A0009142F4D33E493F4E0878DFF8FCA08DF821
:1009B0000000E9B2814224D2DAF800108847396891
:1009C0005FFA85FB31F81B20ADF80220002321F8E7
:1009D0001B3031688847354A2570BDF8021052F83F
:1009E0002B30E8B298470546FF202070DAF8001057
:1009F0008847396831F81B20154321F81B503168AE
:100A0000884700F05FF8054645451ED005B9284DDA
:100A100028480068DAF80010A84238BF0546884721
:100A2000D9F8001051F8202F804660689047A268DE
:100A30002149521CA2602846D9F8005055F80CCF25
:100A4000231DE0473168404688471C4A1C4C10680B
:100A500030B1D9F80010206851F8242F904712E0E7
:100A600000250BE03968EAB231F8120028B1D9F854
:100A70000010206851F8242F90476D1C9DF800103D
:100A8000E8B28842EED3BDE8F78F00BFA01C00207B
:100A9000A41C00205C1D00204C0700202C1D002001
:100AA000F2DD0000E0020020DC020020F441010041
:100AB0008EC2F528B01C002085A800009C1C0020D8
:100AC000A81C00200648016841B106484A68096828
:100AD000824298BF10460029F8D170470020704725
:100AE000301D00208EC2F52880B500210B4A931CD2
:100AF0005B5CFF2B0BD083420BD0491C0229F6D341
:100B00000748016851F8082F9047FF2002BD921C4A
:100B1000505441F08001C8B202BD00BF4C07002014
:100B20005C1D00201200011007A01D0020A019006C
:100B300020A404C20001C0052001010000D818183B
:100B40005200011007080200201C0400200111C3FC
:100B50000100012002D40300200483010001A10C44
:100B6000E003D004002000014205142002340100FB
:100B70002004523C0422000150026CDC02000150AF
:100B8000038C030020030D0006E7EC00002DED00B0
:100B900000F30101000120024C04002017120001A3
:100BA00000020802002000020800000003000052BA
:100BB00000015200010000000000000000000000E1
:100BC0000000000000000000000000000000000025
:100BD0000000000000000000000000000000000015
:100BE0000000000000000000000000000000000005
:100BF00000000000000000000000000000000000F5
:10100000B412000018100000812C0100FDB3011083
:101010006DC00110FDAE011099B501100000000077
:10102000000000002D000000B01200003C10000085
:10103000B1C00110A9BF011067C0011069B801104B
:10104000000000000000000030000000B0120000AE
:1010500060100000BDC00110CDB30110D9BD01105A
:101060006DB301100000000000000000310000001E
:101070000000000040030020040000000000000009
:1010800000000000200000006C3B01003000000068
:101090002810000060030020040000000000000091
:1010A000000000000C000000984301001800000040
:1010B0004C10000068030020040000000000000045
:1010C0000000000024000000B043010018000000F0
:1010D00000000000A8030020040000000000000041
:1010E0000000000010000000FC3B01002C0000008C
:1010F00000100000C40300200400000000000000F5
:101100000000000020000000E43F01002400000077
:10111000FFFFFFFFCC0300200400000000000000E0
:10112000000000002800000008400100240000002A
:10113000FFFFFFFFF4030020040000000000000098
:101140000000000014000000C84301001800000067
:10115000FFFFFFFFFC030020040000000000000070
:101160000000000058000000743701003400000047
:10117000FFFFFFFF04040020040000000000000047
:101180000000000010000000E04301001800000013
:10119000FFFFFFFF0C04002004000000000000001F
:1011A000000000001C0000002C4001002400000092
:1011B000FFFFFFFF140400200400000000000000F7
:1011C00000000000380000007C3E01002800000004
:1011D000FFFFFFFF7C04002004000000000000006F
:1011E0000000000054000000843401003C000000B6
:1011F00001000000004601000100000000000E0098
:1012000000000F0032000000010000004803002031
:10121000000200000000000001C9011000000000F1
:101220000000000008000000000022007003002001
:10123000000000000000000008000000D4030020AF
:101240000000000000000000080000000000000096
:10125000000000000000000000000000010000008D
:101260001C0400200600000001000000840400208F
:10127000000000000000000000020000000000006C
:10128000290001002500300031002D00010001007F
:1012900004000000C0440100000000000000000045
:1012A000000001000000030013C4011041ED000024
:1012B000B8120000B812000000000000B8030020BF
:1012C000A5EC00002000000070440100A43E0100D5
:1012D00029C10110A7AA00008DBD0000A1C70110FF
:1012E000A3C70110000000008F120000C4300100ED
:1012F000DC300100AC3001000200090001000000F8
:1013000001120001493E01001F3E0100A5420100FB
:10131000C53901003B3B01003D310100C51B010007
:10132000114401001DEC000085ED000089ED000076
:10133000DFF800F0B9500110DFF800F0595001104B
:10134000DFF800F05D5C0110DFF800F0A15C011037
:10135000DFF800F0BD5C0110DFF800F0E15C011087
:10136000DFF800F0415D0110DFF800F0915D011041
:10137000DFF800F02D5E0110DFF800F0515E011083
:10138000DFF800F0715E0110DFF800F0D15E0110AF
:10139000DFF800F0FD5E0110DFF800F0155F0110CE
:1013A000DFF800F0315F0110DFF800F0495F011055
:1013B000DFF800F0755E0110DFF800F0A55E0110A7
:1013C000DFF800F0795F0110DFF800F0C15F011075
:1013D000DFF800F0FD5F0110DFF800F01160011090
:1013E000DFF800F065600110DFF800F01161011016
:1013F000DFF800F0E55D0110DFF800F03560011066
:10140000DFF800F02D540110DFF800F0D550011086
:10141000DFF800F095500110DFF800F0AD4F01103B
:10142000DFF800F0495C0110DFF800F07D5C01108E
:10143000DFF800F08D5C0110DFF800F0B95C0110FE
:10144000DFF800F0C95C0110DFF800F0255D011045
:10145000DFF800F0895D0110DFF800F0295E01106F
:10146000DFF800F04D5E0110DFF800F06D5E011056
:10147000DFF800F0B15E0110DFF800F0F95E011056
:10148000DFF800F00D5F0110DFF800F02D5F0110B4
:10149000DFF800F0A55D0110DFF800F0355F011006
:1014A000DFF800F0A15E0110DFF800F0755F0110B9
:1014B000DFF800F0A15F0110DFF800F0F55F011028
:1014C000DFF800F01D60011038B5DFF8E84A606011
:1014D000E16022612370194600F085FD0246DFF8C5
:1014E000D81ADFF8D85A00F05BFD00F07BFD024609
:1014F000DFF8CC1A00F054FD00F074FD0246DFF86E
:10150000C41A00F04DFD04F11800009010230222CF
:1015100000F009F801F049FF00F005F801F03FFF85
:1015200000F001F831BD2946102002F0AABDDFF815
:10153000982A12680146002012F1010F00D170476D
:1015400070B50023DFF8844A0C255D43665B8E424C
:1015500001BF65196D6825F00045954203D05B1CFD
:10156000602BF1D370BD012070BD3EB504462078DC
:10157000932803D12046BDE83E4019E1022803D15B
:101580002046BDE83E401DE0032804BFA0780228A5
:1015900016D1E5682289DFF8381A00F001FDE06015
:1015A00070B122892946FEF787FDE068019010207E
:1015B00021890091A379A288DFF8181A02F061FD51
:1015C00037BD00002DE9F041064696B07068DFF89F
:1015D000E4294778817807EB012751680024BFB2DE
:1015E00001B188474FF00C08DFF8E05908FB04F020
:1015F000295AB94204D0641C602CF3D300F07C80DB
:1016000008FB04F40AA83021FEF7C6FD2B19766802
:1016100098780121321D20B19868461C16F8017C8B
:1016200002E003F1080608274FF0000E0AAB19E0AC
:10163000062104E0082102E0102100E011785FEAB1
:10164000407C33D500F00B0043F82E2002282AD02E
:10165000032814BF521802EB810201E0002859D080
:101660000EF1010EBE4555DA0EEBDE704FEA600C4E
:1016700016F80C00AEEB4C0C4FEA8C0C20FA0CF078
:1016800000F00F005FEA007CD9D5A0F10C0103291E
:10169000D4D8DFE801F006050403CFE7CCE7C9E7BB
:1016A000C6E70221CBE702EB4102D9E7032810D1BC
:1016B000107892F801C092F8028000EB0C2092F8AA
:1016C00003C000EB084000EB0C6043F82E00121D35
:1016D000C6E7022809D1107892F801C000EB0C206F
:1016E00080B243F82E00921CBAE70128B6D112F856
:1016F000010B43F82E00B3E7012101A88DF8041077
:10170000009001233A46DFF8D01800F050FC16B0E4
:10171000BDE8F081159814990A9A099008911398D8
:1017200012990790069111989969059004910F9864
:10173000196903900291D86899685B6801900091DB
:10174000281D015921F00041FFF7EEFEDFE701F00F
:10175000D0BA70B505460E4606F10B00C0B202F0D5
:1017600046FA040022D00120207004F10801FF2075
:101770006070616004220A703100626850706068B5
:10178000867005D0606832462946C01CFEF794FC7E
:10179000DFF82018CA6822B160688178C91C89B254
:1017A00090472046BDE8704002F02FBA70BD00009F
:1017B00030B58BB000218DF80410426812F8010B8F
:1017C0008DF80800D31C1178507801EB0021ADF89A
:1017D0000A10BDF80A0091788DF80C10C209521E4B
:1017E000042A04934BD8DFE802F003353B40450060
:1017F0001C785A78DFF8BC5700F07F0004EB022415
:101800000A28A4B202D0122811D038E08A1E92B25F
:10181000991C05A8FFF78CFD010031D1297800F053
:10182000E2FB009005AB2246DFF8B0170FE08A1EFE
:1018300092B2991C05A8FFF77FFD010020D12978FD
:1018400000F0D1FB009005AB2246DFF8941700F0C2
:10185000AEFB15E002A900F07F0000F0A1F80FE058
:1018600000F029F800F0C2FB0AE000F024F800F0D4
:101870006BFE05E000F01FF800F022F800E0012008
:10188000DFF8A02B90707F21BDF80A00D070117096
:10189000000A40F0FC00107106239DF804009DF83A
:1018A000041050715370891DC9B21046FFF751FFE3
:1018B00000200BB030BD01AA02A900F07F007047E4
:1018C0002DE9FF411446002601282670DFF8545BFD
:1018D00004D002281BD004283CD05CE08F687978C3
:1018E0003E788846B8F1320F32DA304601F0E2F93C
:1018F00070BBA81D009043463246DFF8C016FFF7C4
:1019000013FE0646C0B2002846D1787841E08C68C4
:10191000257866783146284601F0CCF9C0B9A01C7C
:10192000009033462A46DFF8001BFFF7FDFD042D2B
:10193000064631D1A078E178227900EB0120617967
:1019400000EB0240DFF86C2600EB0160906023E0C2
:10195000022621E06A46DFF8D41A102002F091FB3B
:1019600000980099A871090A0098E971000C287282
:101970006E73EE73BDF804006872000AA8729DF8D9
:101980000600E872BDF808002873BDF80A00A873C5
:101990000A20207000E00126F0B204B0BDE8F0811A
:1019A0002DE9F04F0F4689B03979402502294FF0D3
:1019B000000BB8BF4020C0F21981BC682278637860
:1019C000DFF86C8ADFF8EC65401E02EB03221D286D
:1019D0001FFA82FA4FF6FF7900F28682DFE810F0F4
:1019E0001E0029003B004800560066008500950057
:1019F000C200D700E40008011901340149015F0168
:101A000078018801BA0184028402C601EC01040253
:101A10003D028402470284025C027A0200F07EFAF0
:101A2000FFF78EFC002873D103AB5246DFF8041A8F
:101A30001BE003A88A1EA11C02900192009100F0F5
:101A4000B2FA002864D1317800F0CDFA00F084FABF
:101A5000DFF8E419D9E000F061FAFFF775FC00281F
:101A600056D103AB5246DFF8D41900F067FDCEE043
:101A700000F076FAFFF76CFC002849D1317800F0CD
:101A8000B2FA00F059FADFF8B81960E000F04BFA4A
:101A90005FEA000B2DD000F03BFAFFF75DFC002859
:101AA0002DD103AB5246DFF89C196AE000F058FADA
:101AB000FFF756FC00282BD100F01DFA002800F09B
:101AC000F580BDF80C00012804BFBDF80E004845A4
:101AD00040F0EC80317800F086FA01905246BDF873
:101AE0001400069BDFF8601931E000F01CFA5FEA91
:101AF000000B78D000F00CFAFFF736FC00286FD10D
:101B000003AB5246DFF844193BE000F031FA0028FD
:101B100069D19DF81030DFF8380900F0E7F938B1E5
:101B2000317800F060FA00F007FADFF828190EE0CB
:101B30009DF81030DFF8200900F0D8F9002831783E
:101B400009D000F050FA00F0F7F9DFF81019009012
:101B5000FFF7EAFC5BE000F046FA00F0FDF9DFF881
:101B6000001952E000F0DFF95FEA000B3BD000F013
:101B7000CFF9FFF7FDFB002832D103AB5246DFF867
:101B8000E41800F0DBFC00F0D3F929D12BE000F0E1
:101B9000E7F9FFF7F1FB30BB317800F024FA00F0F1
:101BA000DBF9DFF8C41830E0022902DD00F0BBF9F0
:101BB00083463879022802D0BBF1000F13D000F021
:101BC000A8F9FFF7DDFB40B903AB5246DFF89C18DC
:101BD00000F0B4FC0546C0B228B1BBF1000F02D042
:101BE0005846FEF7F9FAE8B201F076F800F0A9BC21
:101BF00000F0B6F9FFF7C8FB0028F4D1317800F007
:101C0000F2F900F0A9F9DFF8681800F0D0F90546FC
:101C1000E9E7022902DD00F086F9834638790228D7
:101C200002D0BBF1000FDED000F073F9FFF7B0FB7C
:101C30000028D2D103AB5246DFF8381800F07EFC02
:101C400000F076F9C9D1CEE700F06DF95FEA000B3C
:101C5000C9D000F078F9FFF79FFB0028C0D1317898
:101C600000F0C1F900F078F9DFF80C1800F09FF9E6
:101C700089E7022902DD00F056F983463879022807
:101C800002D0BBF1000FAED000F043F9FFF788FBA4
:101C90000028A2D103AB5246DFF8E017CEE700F0F0
:101CA00067F900289FD100F026F908B902259AE7C4
:101CB000BDF80C00012804BFBDF80E004845F5D161
:101CC000317800F090F90346524600F064F99EE73F
:101CD00000F029F95FEA000B85D000F019F9FFF751
:101CE00063FB0028BAD103AB5246DFF8941748E7EC
:101CF0000B1FE178A0789BB2221D00F0ABFF5FEADA
:101D0000000BE9D003A800905A463979A0780B1F40
:101D1000E1789BB2FFF74CFB00283BD19DF8150002
:101D200048B9317800F05FF900F016F9DFF8541780
:101D300000F03DF90BE09DF8140000280CBFDFF81F
:101D40004817DFF8481703AB524600F0F7FB05468B
:101D5000E8B29EE000F0E2F8FFF72EFB00282AD15F
:101D60005246DFF82C1700F01BF950E700F0DBF8C3
:101D70005FEA000B1FD000F0E6F8FFF721FB002818
:101D800008D1706918B93C2001F0D1FF7061706909
:101D900008B9132524E772781346042BC8BF02251F
:101DA000F8DC521C0C2172704B4318440C2203A91E
:101DB000FEF782F9002516E700F0B5F85FEA000BA0
:101DC000F9D000F0A5F8FFF7FFFA0028E2D103AB45
:101DD0005246DFF8C01600F0B1FB00F0A9F8D9D1E7
:101DE00005980028D6D0FEE603AA00928B1E9BB26F
:101DF000A21C00210020FFF7EBFA0028F3D1706944
:101E000000283FF453AF317800F0EDF802905246CD
:101E10009DF80C0071780190009110207369DFF833
:101E2000781602F02EF90546C0B290B10BE00C21F5
:101E3000083001FB0BF1405808B1FEF7CDF90BF16A
:101E400001005FFA80FB717870698B45EFDB01F070
:101E50006FFF002070617070C5E600F05FF8FFF75B
:101E6000BBFA0028F8D15246DFF830167BE700F0C5
:101E70004AF85FEA000BEFD000F083F8002822D187
:101E8000A078DFF81C1600F067F800F090F805461F
:101E9000C0B2002817D118E000F035F85FEA000B57
:101EA00017D000F06EF800280DD1317800F09BF8C3
:101EB000019003ABA078DFF8A01C0090524600F020
:101EC00076F800F035F87FF48BAE049800283FF4E4
:101ED00084AE88E600F022F8FFF782FA0028F8D1F5
:101EE0005246DFF8E01C3EE701257CE60DF11102C9
:101EF0000221FFF779BA9DF810300DF1110202218D
:101F00004046FFF771BAC91E89B2E01C00F048BE16
:101F10003879811E03AA89B258467047891E03AAE0
:101F200089B2A01C7047891E89B2A01C00F038BE7F
:101F30000546C0B20028704701905246BDF80E0019
:101F4000BDF80C30704703A800905A4639798B1EB3
:101F50009BB2002100207047009003AB52467047AF
:101F600003A800908B1E9BB2A21C0021002070478A
:101F700003A800908B1E9BB2A21C00210020FFF73B
:101F800037BA03A800905A463979CB1E9BB200217C
:101F90000020FFF731BADFF8301C102002F071B8D2
:101FA000102002F06EB800230022DFF8201C102061
:101FB00002F067B88C14002031810110153D01003A
:101FC000494501003D450100EC020020E0C200004F
:101FD000F1A7001039A8001091BB00109D910110CD
:101FE000C59101102178502002F032B82DE9F04F50
:101FF0000D4689B02A79022A4FF000094FF0400AB5
:10200000B8BF4020C0F2AF81AF68DFF8C44B397869
:102010000646787801EB00202178022E1FFA80F81E
:1020200039D0042E00F08780062E4CD0082E77D0B1
:102030000A2E00F098800C2E00F0A9800E2E00F0E1
:10204000B080102E38D0122E00F0E980162E1FD04E
:102050001B2E00F0B2811D2E00F0C381302E18BF60
:10206000322E3BD0342E00F08880362E00F0B08027
:10207000382E00F0BD803A2E00F006813C2E00F094
:1020800073813E2E00F07E81402E00F08681422E2C
:1020900000F0D480C1E103A80290931E0193B81C04
:1020A0000090FFF780FF00281AD1FFF79BFF00F098
:1020B00041FADFF8841361E1FFF795FF03464246DA
:1020C000FFF769FF5CE1FFF78EFF0190BB1C2879E9
:1020D000DFF87413801E0090424641E0931E042BEB
:1020E00040F03D81BA78F8783D7902EB002084B267
:1020F000787905EB0025302EADB208D1FFF773FFDC
:102100000190009523464246DFF8481328E0FFF788
:102110006AFF0190009523464246DFF840131FE016
:1021200000F0EBF9002852D1FFF75CFF00F002FA53
:10213000DFF87C1B22E103A80090931E9BB2BA1C1F
:1021400000210020FFF704F9002840D1FFF74AFFE3
:1021500001904246BDF80E00BDF80C30B849009021
:10216000FFF7E2F90CE100F0BFF900282FD1FFF7EB
:1021700039FF00F0DFF9BC4900E100F0BEF90028AA
:1021800025D1FFF72FFF00F0D5F9B549F6E000F0B3
:10219000A2F900281BD1FFF725FF00F0CBF9B449C5
:1021A000ECE000F083F95FEA000910D000F08AF952
:1021B000FFF7F2F8002862D1FFF714FF00F0BAF938
:1021C000AD49FFF7F4FE8246C0B2002857D1C6E001
:1021D00000F06CF95FEA0009F9D000F06BF900201B
:1021E000FFF7E6F800284AD103AB4246A64913E0C0
:1021F000931E9BB2BA1C0121012000F02BFD5FEA67
:102200000009E4D000F056F90120FFF7D1F80028CA
:1022100035D103AB42469D4900F090F9DCE000F077
:1022200045F95FEA0009D2D000F07AF9002826D1FA
:10223000FFF7D8FE00F07EF99249CBE000F036F9C6
:102240005FEA00091FD000F03DF9FFF7B9F8002858
:1022500015D12178162E06D1FFF7C5FE00F06AF9D8
:10226000DFF8A41B05E0FFF7BEFE00F063F9DFF81E
:102270009C1BFFF79CFE82465FFA8AF000286BD118
:102280000598002868D06AE0931E68DDBD7815B90E
:102290004FF0020A63E0052DFADC0C20684301F0E0
:1022A00046FD060008BF4FF0130A58D00C216943C1
:1022B000FDF7BCFF0195FF1C00250EE07F1C00917F
:1022C00004233A4603E0029800905B464A46002108
:1022D0000020FFF775F85F446D1C0198854280F27D
:1022E0009F800C216943314402914FF0040B3878F0
:1022F0000028E3D017F8010B001D5FFA80FB594658
:10230000384600F04DFC5FEA0009DCD1019F4FF038
:10231000130ABD420DD1FFF765FE0290334601203E
:102320000190009742465C49FFF7FEF88246C0B232
:1023300078B1002508E00C2106F1080069434058F7
:1023400008B1FDF749FF6D1CBD42F4DB304601F0DA
:10235000EFFCB9F1000F02D04846FDF73DFF5FFAF0
:102360008AF000F0B9FCECE000F0BEF80028F6D1ED
:10237000FFF738FE00F0DEF8DFF8941AFFF717FEDB
:102380008246ECE700F0A7F80028E8D1FFF72AFE24
:1023900000F0D0F8DFF87C1AF0E700F087F85FEA89
:1023A0000009DCD000F0BCF80028D5D1FFF71AFEF8
:1023B00000F0C0F8DFF8601A0CE000F073F85FEA94
:1023C0000009CCD000F0A2F80028C5D1B878344973
:1023D00000F0B0F8FFF7EBFD8246C0B20028BBD199
:1023E00017E000F05FF85FEA0009B8D000F08EF85F
:1023F0000028B1D1FFF7F6FD019003ABB878DFF804
:10240000581700904246FFF7D2FD8246C0B200281E
:10241000A2D1049800289CD0A1E74FF0010A9EE7C2
:10242000074676E7C4140020ED060100953F010041
:102430002E050000398E0110DD370100598E011084
:1024400085440100818E01109D220100BD8E011086
:10245000BE0600006D3F0100C6490000A13D01001D
:10246000C9450100F18E0110154601002D8F0110A4
:1024700019460100518F011041380100918F011060
:10248000BD8F01101D460100CB3D0100F53D01004F
:10249000ED8F0110FD8F0110C9170100259001106B
:1024A00045000110D11E89B2F81C79E3911E89B252
:1024B000B81C75E303A800904A4629798B1E9BB28D
:1024C0000121704703A800904A4629798B1E9BB2D0
:1024D00000210020704703A80090931E9BB2BA1CF5
:1024E00000210020FEF750BF03A80090931E9BB26E
:1024F000BA1C00210020FEF73FBF03A80090931EE6
:102500009BB2BA1C00210020FEF772BF03A8009006
:102510004A462979CB1E9BB200210020FEF76CBFF2
:1025200003A800904A4629798B1E9BB20021002007
:10253000FEF73EBF009003AB42467047102001F00B
:10254000A0BD09B0BDE8F08F2DE9F04FABB0DFF8CA
:1025500080968E6899F800A0DFF8C088DFF8C0B8D0
:1025600015460024B71C002854D0032800F0F3803F
:10257000042800F09980052800F0A580062800F0C6
:10258000BC80072800F0D380082800F0DB800928F1
:1025900000F0A0800A2800F0EC800B2800F02481D5
:1025A0000C2800F040820D2800F06C820E2800F00C
:1025B00019820F2800F0EE81102800F0E581112823
:1025C00000F0E580122800F0F080132800F0008170
:1025D000302800F03182312800F03A82332800F0B0
:1025E0005C82342800F07982352800F07F8236281A
:1025F00000F07F82372800F07E82392800F07E824A
:102600003A2800F084823B2800F087823C2800F0C2
:1026100090829CE23478102200213846FDF712FEA9
:1026200028B91022394609F11800FDF745FD10229E
:10263000002106F11200FDF705FE30B9102206F167
:10264000120109F12800FDF737FD06F12201087893
:102650004A788B78C97800EB022000EB034010EB3E
:10266000016018BFC9F8080099F80010FFF7BBFC1B
:1026700009F10801039109F1280209F118030292F6
:1026800001930246717800912346DFF8201CFEF783
:102690004BFF044699F80010FFF7A5FC03462622DD
:1026A0004146FFF77AFC53E25146FFF79CFC8DF858
:1026B0000000102000F052FA3A78DFF8F41B8DF891
:1026C00003206A4681E05146FFF78DFC0246DFF8A1
:1026D000E41B3DE05146FFF786FC8DF8000001A8A1
:1026E00000F03CFAF11C3A788DF803200622FDF741
:1026F000E3FC6A46DFF8C01B66E030788DF8000026
:10270000062271788DF801100DF102003946FDF7AF
:10271000D3FCB8798DF808005146F8798DF8090096
:10272000FFF761FC02466B46DFF8901B29E151463A
:10273000FFF759FC01970246717800913378DFF872
:10274000801BF2E15146FFF74EFC0246DFF8741B96
:10275000FFF726FCEBE1CDE9004406226946701C38
:10276000FDF782FD00B1741C3278DFF85C1B234654
:1027700090E15146FFF737FC397800913378727851
:10278000DFF8481B03EB02239BB20246CDE100F0C9
:10279000ECF96A4610F8021F407801EB0021ADF811
:1027A00008101020DFF8281B0FE000F0DEF910F809
:1027B000021F427801EB0221ADF808106A468078CA
:1027C000DFF8101B8DF80A00102001F05AFCAEE172
:1027D000707839780FF2CD3200EB012080B2009092
:1027E0003378DFF8F41AA0E1A42102A8FDF7D4FCA5
:1027F0003078717800EB0120ADF80800351D3A788B
:102800008DF80C201022F1788DF80D100DF10E00CE
:102810002946FDF751FC1035102229460DF11E0006
:10282000FDF74AFC287C8DF82E0011351022294630
:102830000DF12F00FDF740FC0DF12E00297C4174B5
:102840006A7C82741235202229460DF14100FDF781
:1028500033FC2035202229460DF16100FDF72CFCC8
:102860002035202229460DF18100FDF725FC05F1D8
:1028700020010878299B8DF8A1005B0848788DF825
:10288000A8008A7802F0010040EA4303550823F0CB
:10289000020305F0010543EA4503900823F0040311
:1028A00000F0010043EA8003D00823F0F80300F0B1
:1028B000010043EAC003100923F4807300F0010013
:1028C00043EA0023500923F4007300F0010043EAB7
:1028D0004023900923F4806300F0010043EA802341
:1028E00023F47843D20943EAC2232993C878002805
:1028F00043D008798DF800006C464A798DF80120A4
:102900008879019A8DF802005208C8798DF8030081
:10291000097A01F0010040EA42024B0822F002026B
:1029200003F0010342EA4302880822F0040200F0A7
:10293000010042EA8002C80822F0F80200F001001B
:1029400042EAC002080922F4807200F0010042EA63
:102950000022480922F4007200F0010042EA4022FD
:10296000880922F4806200F0010042EA802222F409
:102970007842C90942EAC1220192234602AADFF83D
:102980005C19FFF7DBFDD2E0327870783B78DFF836
:1029900050197CE03D7834787078F77804EB0024A7
:1029A000361D1022314603A8FDF786FB06F1100004
:1029B0000178427801EB0221ADF81C100DF11E01E7
:1029C00050F8022F0A602B4642684A600121007AC3
:1029D0008DF82600029103A801900097A2B2DFF8BB
:1029E00004191DE0347870783D7804EB0024F61C5F
:1029F0001022314601A8FDF75FFB06F110000178B7
:102A000042788378C07801EB022101EB034101EBAE
:102A1000006101A8059100902B46A2B2DFF8C8180A
:102A2000FFF7C5FA83E033787078DFF8C01803EB5E
:102A300000239BB23A462DE0327873783878262A04
:102A400003EB002355D02D2A53DA9BB2414621E0F7
:102A500032784FF6FF77FF2A38460ADA262A08D05E
:102A60002D2A06DADFF88818FFF79AFA80B2B84202
:102A700000D10224022129708BF8060000128BF885
:102A8000070065E0327870783B78DFF8681802EB71
:102A9000002292B2FFF781FA49E0747804F108004D
:102AA00080B201F044F9050015D03078287005F1A6
:102AB000080169606C70224668683946FDF7FCFAC7
:102AC0002A46DFF83418FFF76BFA0446C0B2002834
:102AD0003ED0284607E013243AE03278DFF81C188D
:102AE000FFF75EFA28B101F023F931E0DFF81018A2
:102AF0000FE002242CE00224002026E05146FFF7DC
:102B000072FA0246DFF8FC17FFF74AFA20E0DFF816
:102B1000F817102001F0B5FA09E006F14000009026
:102B200006F120033246DFF8E417FEF7FDFC044609
:102B30000EE00BF10600009006F120033246DFF8AC
:102B4000D017FEF7F1FC04461020287000E00124A5
:102B5000E0B22BB0BDE8F08FCDFF001031788DF8DA
:102B6000011071788DF8021070473078717800EBA1
:102B70000120ADF800007978387800EB0120ADF83D
:102B80000200B81C0178427801EB0221ADF8041074
:102B900010F8021F427801EB0221ADF806107047D1
:102BA000002262E010B5DFF86C270FF229011369EB
:102BB0000446984720B92046BDE8104001F0B8B857
:102BC00010BD0000E93C01009D3B0100815C01104B
:102BD0008C1400201FB5132104468DF80010062226
:102BE0008DF8012021788DF8021062888DF803207D
:102BF0006188090A8DF8041021798DF80510627931
:102C00008DF80620E1888DF80710E188090A8DF813
:102C1000081021898DF809102189090A8DF80A10F8
:102C2000A17A8DF80B10E1688DF80C101021E06886
:102C3000000A8DF80D00E068000C8DF80E00E068C9
:102C4000000E8DF80F006846FEF783FD204601F068
:102C50006FF81FBD10B5144600282046BDE810408F
:102C60001ABF00290C2200221946F8B50D46521948
:102C70000646521C90B2FEF7C3FB040016D0DFF8E4
:102C800098060168884707464FF0FF312046FDF758
:102C9000FAFADFF888160A680446384690472A464A
:102CA00031462046FDF708FA2046F2BD0020F2BD6D
:102CB000C145010002460020931E012B02D99B1E34
:102CC00002D004E0102900E0042904D002E0803A98
:102CD000102A00D302207047052804D00C2806D003
:102CE0000F2802D070474120704742207047432090
:102CF00070477CB505460020ADF8040001228DF830
:102D000006202C21DFF818663046FDF745FA2A78B0
:102D10000024A02A3BD0A22A14D0B02A3CD0B12A49
:102D200040D0C22A09D0D02A5AD10DF10600009015
:102D300000F078F800F07CF832E000F073F800F072
:102D40003AFB2DE069796B886A7841F490613046EE
:102D500000F0D0FC0446687800283ED1697930192B
:102D600001290ED00B2902D0132905D035E005F139
:102D70000801FEF749FB08E005F10801FEF748FBF2
:102D800003E005F10801FEF747FB041925E000F018
:102D900049F800F052FB03E000F044F800F08CFB2F
:102DA00004461DE06878002804BF287900280AD16D
:102DB000E888B0710424E988090AF1712889307221
:102DC0002989090A7172304629796B886A7841F439
:102DD000B06100F08FFC7471A41D8DF8044034467E
:102DE0009DF8040018B101462046FEF7B2FC4CB134
:102DF0009DF80500012805D1204600F099FF9DF8B7
:102E0000060000B1012076BD2146010031460100D7
:102E100025460100294601002D460100113401001C
:102E2000C41400200DF1050301AA3146284670475D
:102E30002DE9F74F07460C980D4601210170002639
:102E4000B8780024112899464BD8DFE810F012001A
:102E50004B0093009E00A000A500C200DD00E4002E
:102E6000ED001601FD00F3010402B801BE012A02C3
:102E7000D1002C7006226A70F91C7878DFF894442F
:102E8000A870E81CFDF718F9798969721022788911
:102E9000000AA87204F11801387BE87205F10C00F1
:102EA000FDF70AF9102204F1280105F11C00FDF7D5
:102EB00003F9787898B904F1180000901023DFF82E
:102EC000646402223146FEF72FFB00F06EFA3146B1
:102ED000FEF72AFB00F063FA3146FEF725FB2C468D
:102EE0002C26DEE17878B8BBF878002839D0C60007
:102EF000361DF0B200F01BFF04002BD00120207023
:102F00000621617004F104087878A0704FF0000B7E
:102F1000F978E170D7F804A013E09AF8000008F8F7
:102F2000010B06229AF8011008F8011B40460AF12D
:102F30000201FDF7C1F808F106080BF1010B0AF1D7
:102F4000080AF9785FFA8BF08842E6D3012089F805
:102F5000000001E013217970787810B9F878002822
:102F600012D1012129700620687000207978A9709B
:102F7000E87007E002202870062169707878A87050
:102F8000F978E9702C4604268BE1032000E0042048
:102F900000F0D1F9032684E1052000F0F3F97889E7
:102FA000A87214267989090AE972387B2873F9898D
:102FB0006973F889000AA873388AE873398A090A9C
:102FC0002974788A6874798A090AA974387DE87442
:102FD00067E10620287068702C467878A87006266D
:102FE000B988E970B888000A2871B879687158E121
:102FF000122000F0A0F90D2600F0AFF9B889E872B0
:10300000B989090A29734CE1072000F094F90B26CD
:1030100000F0A3F945E1082000F086F9281DF978B1
:10302000E97000F0B9F902E1092000F0ABF9F868A5
:10303000A8720E26F968090AE972F868000C28736C
:10304000F868000E68732CE10B2000F06DF9F91C94
:10305000E81CFDF731F8788968722C467989090AED
:10306000A9721126387BE87207F11000797B297369
:1030700005F10D0102680A6013E16B2000F057FEB4
:103080006B26040000F08F80012089F800006B217E
:103090002046FDF7CBF80A2020700621617004F16C
:1030A00022057878A070B988E170B888000A20718C
:1030B000B8796071B868D0B10121A1711022B868E7
:1030C000817EE17104F10800B968FCF7F5FFB8688A
:1030D000018A217604F11A02B868018A090A617628
:1030E000B86800F1120108681060486850603869DB
:1030F000E8B10121297010223869817E6970AD1C08
:1031000039692846FCF7D8FF3869018A297438697B
:10311000018A090A697405F11200396901F1120284
:1031200000F10808116801605168416001E005F193
:103130001C087869B0B1012108F8011B10227969D7
:103140004046FCF7B9FF786908F1100500F111015C
:1031500006222846FCF7B0FF7869017CA97105F1C9
:10316000070801E008F11808F86800281AD00121C2
:1031700008F8011B1022F9684046FCF79DFFF8682B
:10318000016988F81010F8680169090A88F81110B7
:10319000F8680169090C88F81210F8680169090ECD
:1031A00088F813107DE00A20287006216970132228
:1031B000AA70B888E870B988090A297102E00E205F
:1031C00000F0C0F82C4605266BE00F2000F0BAF89E
:1031D000387A6871797AA971B87AE871F97A2972BE
:1031E000FA6802F00101C2F3400000B1022001437D
:1031F000C2F3800000B104200143C2F3C00000B15B
:1032000008200143C2F3002000B110200143C2F3A3
:10321000402000B120200143C2F3802000B14020B3
:103220000143C2F3C02000B18020014369722C46E3
:103230000A2636E00C2000F077F82C46B988E970B1
:10324000B91DB888000A28710C26681DFCF734FFE8
:10325000387BE87225E03E7B0D36F0B200F067FD6A
:1032600004001CD00D2020700621617006227878A1
:10327000A070F978E170791D38792071601DFCF734
:103280001BFFF87AE07204F10D00397B21733A7B61
:103290003969FCF711FF012089F8000001E01321D2
:1032A0007970029806702046BDE8FE8F392901002A
:1032B000E118010095360100C509010059440110CB
:1032C0000945011099450110AD850110E514011063
:1032D0007D15011005160110652D01000117011063
:1032E000C11701107D180110AD160110ED17011066
:1032F00051090100BD920110E1450110794601100C
:1033000095460110BD780110C57801100D790110A6
:10331000897901108C140020DC020020E0020020DA
:10332000FC140020ED0601002870062169700622B9
:103330007878A87070472870062169702C467878D4
:10334000A87070472870062169707878A870B988CD
:10335000E970B888000A28717047B988E970B888A0
:10336000000A2871F8886871F988090AA9713889F2
:10337000E8713989090A2972788968727989090A94
:10338000A972704728700621697006227878A870A3
:10339000281DF978E9702C46391DFCF78DBE04F123
:1033A0000800009004230422704704F128000090D4
:1033B0001023032270472DE9F04105469046A97875
:1033C0001F460026002411B1012918D027E06320F0
:1033D00000F0ADFC632604001FD0102000F024F89C
:1033E000FCF76AFE202205F1230104F12300FCF71B
:1033F00063FE202205F1430104F1430008E023208D
:1034000000F095FC2326040007D0112000F00CF8F2
:10341000FCF752FE0120387001E01321697088F832
:1034200000602046BDE8F0812070062161702022F6
:103430006878A070E91CE01C70472DE9F04705464C
:1034400099466E78002089F800008A46AF890937CE
:10345000BFB22D2F90460DDB384600F068FC04000B
:1034600003D0012189F8001005E0A88954463F1ACD
:10347000132600E054466B8832464FF49E61204686
:1034800000F038F9A8886071A988090AA171A88993
:10349000E071A989090A2172A96841B126B9AA89EE
:1034A00004F10900FCF708FEA868FCF795FE88F80F
:1034B00000702046BDE8F0872DE9F84F064600254C
:1034C00096F801900024B9F1000F18BFB9F1160F5A
:1034D0000F469046AA461C7035D13279012A33D066
:1034E000022A36D0032A39D0042A3CD0052A3FD0FC
:1034F000062A42D0072A49D0082A72D0092A4AD07F
:103500000A2A4DD00B2A50D00C2A53D00D2A56D05F
:103510000E2A59D00F2A5ED0102A62D0112A65D007
:10352000122A6BD0162A78D0172A7BD0182A00F0DE
:1035300082801B2A18BF1D2A00F083807E2A00F09B
:1035400089807F2A05D08BE000F0D0F8FDF768FF76
:1035500075E000F0CBF8FDF767FF70E000F0C6F80B
:10356000FDF766FF6BE000F0C1F8FDF765FF66E070
:1035700000F0BCF8FDF764FF3CE000F0B7F8FDF7A1
:1035800063FF74694FF0060A851F69E000F0AEF82A
:10359000FDF75EFF23E000F0A9F8FDF75DFF29E0ED
:1035A00000F0A4F8FDF75CFF49E000F09FF8FDF79C
:1035B0005BFF14E000F09AF8FDF75AFF3FE000F0DF
:1035C00095F8FDF759FF0AE000F090F8FDF758FF75
:1035D000B468054644E000F089F8FDF755FF05465C
:1035E00036E000F083F8FDF753FF28E000F07EF8A6
:1035F000FDF752FF4FF0010A451E29E0307CB871FB
:1036000007F10800717CF9714FF0040A06F1080116
:10361000FDF746FFF468851E22E000F067F8FDF72D
:1036200043FF03E000F062F8FDF742FF4FF0040AA9
:103630003469051F14E000F059F8FDF73DFF82469C
:103640000EE000F053F8FDF73BFF4FF0020A851E35
:10365000F46805E0307AB8714FF0020A717AF971B6
:103660005FFA8AF1E8B24118891D2D291DDB5FFA46
:103670008AF0E9B20818801D80B200F058FB5FEABA
:10368000000B0DD00099012008705FFA8AF169B132
:103690005FFA8AF2B91D0BF10600FCF70DFD05E09B
:1036A000BB4600254FF0130900E0BB466CB1E8B201
:1036B00040B10BF106005FFA8AF3EAB221461844E2
:1036C000FCF7FAFC2046FCF787FD317973884A46FF
:1036D00041F4A061584600F00DF855448BF80550B0
:1036E0005846AD1D88F80050BDE8F28F06F108017C
:1036F000B81D70470170C370090A1B0A41708270BF
:103700000371052070470000DFF800F021C00110B0
:10371000DFF800F055A40110DFF800F0F99B01106C
:10372000DFF800F02DB40110DFF800F0CDAC01108F
:10373000DFF800F02DC00110DFF800F09DB201109D
:10374000DFF800F0FDB1011020B108233C22002178
:10375000FFF7DABF704780B5FDF70EF8ADF800004F
:10376000FCF7AEFFADF80200009802BD01B5BDF850
:103770000200FCF7A9FFBDF80000BDE80240FCF71D
:10378000FFBF38B5DFF8D449207801282CD00121BB
:103790002170DFF8CC29DFF8CC1989088900521A8A
:1037A000A26161610A4602E0002342F8043BA3697A
:1037B0005D18AA42F8D39B0801EB8302002042F86F
:1037C000040CE8230B60A06980088000EC38C1F885
:1037D000E800E831A160002000F007F8E060A1698E
:1037E0006069A060091F216131BDF8B50024002681
:1037F000051D15F003001CBF291D0D1AFFF7ABFFB7
:10380000DFF8582901465160112D34BF9368D36801
:103810001868002803D580F00040002619E0370022
:1038200013D02768D3F800C06744AF42276010D395
:103830003846ECB1401B042811D3605145F00040DC
:10384000206013695D1B156111E0A84214D20126A6
:103850001C46034418680028DBD1002408E01369E3
:1038600020681B1A1361226842F000422260241D66
:1038700000F05BFA2046F2BD1C46DAE710B50446BC
:10388000FFF769FFDFF8D418486054F8042C22F0E1
:10389000004244F8042C0B69D2180A61221F8B687D
:1038A0009A4238BF8A60BDE810405FE72DE9F041D9
:1038B000FFF751FFDFF8A418CA684860002400250C
:1038C000002600270AE00E460125144605E02B00DD
:1038D000F9D02368CB1823608E190A441168B046CA
:1038E000BE4238BFB846002905D0F0D581F000416E
:1038F00000254746F1E7FFF739FF4046BDE8F08174
:1039000010B50446DFF854088169216000696060E1
:10391000FFF7CCFF09282CBF08380020A06010BD9D
:10392000DFF838180A69121A332A28BFFFF75DBF7B
:103930000020704780B5FFF724FF4BF6BE2002BD84
:10394000084652E7084699E702B56846FFF7D8FFF0
:1039500001BD0120704738B50446FFF7FCFE002288
:103960000C23DFF804185343CD18A96C21B18C4205
:1039700006D0521C032AF3D3FFF7F8FE002032BD15
:10398000FFF7F4FE05F1480032BD70B50546FFF7BC
:10399000E2FE044600210C22DFF8CC074A438618D9
:1039A000B06C48B1854210D0491C0329F3D320469E
:1039B000FFF7DCFE002070BD3065B5640021FFF725
:1039C000AFFEF06408B9FCF779FC2046FFF7CEFEA5
:1039D00006F1480070BD38B50446FFF7BCFE00256F
:1039E000DFF884270C216943515A21B18C4206D05B
:1039F0006D1C062DF6D3FFF7B9FEFF2032BD23E381
:103A000010B504462088FFF7E6FFFF2802D14FF0EB
:103A1000FF3010BD0C21DFF8502748431044816867
:103A200011B96FF0010010BD2046BDE810400847F5
:103A300002460FF25C70104738B500200C21DFF809
:103A400028270024002501FB00F31344401C032811
:103A50009C641D65F7D30020002301FB00F4401C8B
:103A600013530628F9D3BDE831408AE62DE9F8471B
:103A70008FB081468846FCF787FE05460027DFF8B1
:103A8000EC6647451FD26846FFF75EFE09EB07115B
:103A90004A6806928A68089200220B680493C868F4
:103AA000059069463046FFF73FFE040011D0FFF74E
:103AB00052FE82462046FFF768FF50B15046FFF79E
:103AC00055FE7F1CDDE72846FCF762FE10B0BDE81E
:103AD000F087FCF7F3FB00BFF8B5684605214160AD
:103AE0004FF47A728260DFF88816DFF8882600913A
:103AF000C2600121FFF7BAFF05B000BD38B504462A
:103B00000D46FFF728FE002145F80C1C226812B96B
:103B1000256006E00A4652F80C1C0029FAD142F84A
:103B20000C5CBDE8324021E680B5FFF701FEFFF7EF
:103B300012FF10B96FF0040002BD816809B90220BC
:103B400002BD4068BDE006280ADA0C22DFF818360C
:103B50005043185A00281CBF4FF6F872904202D109
:103B60004FF0FF30704708800020704730B5DFF815
:103B700008562A680C464FF47A71A1FB0001002315
:103B8000FCF7A0FB002902D8B0F1004F02D36FF080
:103B9000020030BD2060002030BD014688684968C1
:103BA0000847F8B505460E46FFF7C2FDFFF7EDFEE4
:103BB00004000DD0FFF7CFFD014600220C27DFF8EF
:103BC000A83557433B44188820B1521C062AF5D328
:103BD000FCF774FB4FF6F870002718805C609F605C
:103BE0002A706068306000F0A0F80020F2BD10B5C7
:103BF000044604F10C00FFF7F8FD28B10481002110
:103C00000160FF2282720C3010BD0C3836E670B5B0
:103C1000044615461E460846FFF7DDFE0146FF290D
:103C200002D14FF0FF3070BD33462A462046BDE832
:103C3000704080E07CB50546164600F09EF8040012
:103C400010D128886946C0B2FFF77DFF28B13068DF
:103C5000FFF7DBFF6FF0050076BDBDF800002880A0
:103C6000FFF762FF204676BD38B50546FFF760FDD9
:103C7000FFF771FE0446FCF7A9FB002818BF0128D6
:103C800000D014B96FF0040032BD65B90020009077
:103C9000009B60684FF000420021FFF73DFD401E91
:103CA0008041C00F32BD15F1010F08BF4FF0FF304A
:103CB000EDD069462846FFF759FF0028E8D032BD0D
:103CC00080B54FF00041FFF723FD002002BD2DE934
:103CD000F843054600F095F9FFF757FE04006FF032
:103CE000020920D0FFF737FD014600220C23DFF840
:103CF000780453430344188840B1854211D0521CC4
:103D0000062AF3D3FCF7DAFABDE8F2831D805C6083
:103D10009E603A706068C8F8000000F006F8002065
:103D2000F2E700F002F84846EEE708461EE55CE5DB
:103D3000A4E5F5E5E4E52DE9F8430D46062DBCBF05
:103D400004460628164699466FF0020806DAFFF781
:103D500002FD00F0FBF919B9FFF708FD40460AE043
:103D6000FFF704FD00F0E8F9786840684FF0004183
:103D7000FFF7CEFC0020BDE8F2832DE9F0410646B6
:103D80000F469046FFF7D4FCFFF7E5FD050008BF9E
:103D90006FF004001BD0FFF7DEFCA968002441B1DE
:103DA0000C46A4F10C0100230A68AA60FF250B60F1
:103DB0008D72FFF7DBFC0CB9022008E0A4F10C00C7
:103DC0000179317040793870C8F800400020BDE8B2
:103DD000F081DFF8A813087800B1FEE77047FFF71D
:103DE000ABBC50B5DFF8906332686FF00044A4FBC1
:103DF000020100234FF47A72FCF764FA002902D81A
:103E0000B0F1004F00D3204650BD7CB50C4615469E
:103E10001E466946FFF7AAFE30B9009833462A4687
:103E2000214600F002F8002076BD2DE9F0431D4642
:103E300089B02C6880460E4617462CBB0C20FFF735
:103E4000D4FC04006FF0030918D0082324220021B9
:103E50006846FCF78FFB0020ADF810000590069433
:103E600000236A464146DFF81803FFF769FC20602B
:103E700030B9FFF7AEFF2046FFF700FD484617E0D8
:103E80006660A7602C600BE0DFF8F862306880475E
:103E900005462068FCF772FBA760284671688847D2
:103EA00020684146FCF76EFB2068FCF76FFB0020A2
:103EB00009B0BDE8F08300281CBF0068FCF75EBBBA
:103EC0007047E0B58DF804006846FCF7B1FA9DF83C
:103ED00005000EBDE0B501906846FCF7DFFA0EBDA7
:103EE000E0B501906846FCF7E3FA0EBD2DE9F84312
:103EF00084B0044600F085F8FFF72DFD054600204C
:103F00000290FCF763FA002818BF012800D015B909
:103F10006FF0040072E044B900200190FFF70CFC40
:103F2000814601980124814425E014F1010F08BF66
:103F30004FF0FF30F1D001A92046FFF717FE00280F
:103F4000ECD05BE0039902A8FFF7D8FD68684FF05A
:103F50000051FFF7DDFB0198012410F1010F18BF9C
:103F6000002808D0FFF7E8FBB9EB000031D0019939
:103F700081422ED30190019B68684FF000520021CE
:103F8000FFF7CAFB28B303AA69460DF10100FFF74A
:103F9000F4FE0400DFD19DF801000DF10201FFF7EE
:103FA000D2FD0028CED1039A9DF80010BDF8020082
:103FB000B0470028C6D017B1BDF802003880B8F16C
:103FC000000F1CBF9DF8001088F800100C98039992
:103FD0000160FFF7A9FD029EFFF7BDFB014656B148
:103FE000324600E0024652F80C0C0028FAD1A868CC
:103FF00042F80C0CAE60FFF798FE204605B0BDE815
:10400000F0830E4617469846FFF792BB38B5FFF788
:104010008FFB0446FCF7DAF9002818BF012811D0FD
:10402000FFF799FB0025504A0C236B43D15A39B155
:10403000D11849680B68A34206D06D1C062DF3D336
:10404000FFF794FBFF2032BDFFF790FBE8B232BDD3
:10405000E0B5ADF800008DF8061000204A490A6866
:10406000ADF802006846904710B99DF807000EBDF4
:10407000FF200EBD1078422801D10120704700209A
:1040800070470CB478B504460E4687B0FCF79EF92D
:104090000CAD002814BF0128FFF79BFE142000215F
:1040A000FF22ADF8100002918DF8122006960595BA
:1040B000FFF7ACFF05AB03222146FFF7A8FD002068
:1040C00001A90190009100230022304941F288307B
:1040D000FFF70CFF012805D020B9019820B1FFF7A8
:1040E00094FD01E0FFF775FE0598006808B070BC0C
:1040F0005DF80CFB2DE9F8430D46062DBCBF0446C8
:104100000628164699466FF0020806DAFFF723FBE9
:1041100000F01CF819B9FFF729FB40460AE0FFF749
:1041200025FB00F009F8786840684FF00051FFF770
:10413000EFFA0020BDE8F283A9F108000470457091
:104140008670494678680830FFF7D8BC0C22064BC9
:1041500002FB05F7DF19796870470000681400203A
:10416000FF3F0020C31D0020FC130020313A000057
:104170008D39010010030020FC450100F6070020E6
:104180009B3B0000DC020020E402002075400000A0
:10419000013A0000573700006D37000070B5DFF8B6
:1041A0003847DFF838072568EE68002301223421FC
:1041B000B04700B10120C0B270BDDFF824078068AD
:1041C000704702460020022904D1012A06D140F29C
:1041D000EE207047012A08BF4FF47A707047DFF86D
:1041E000001791F8E60020B1D1F81001002818BF9F
:1041F000004770472DE9FE43DFF8E48608F1E10649
:10420000B07900287CD1DFF8DC16DFF8DC760868AE
:10421000DFF8D856DFF8D896800900F00100F07179
:104220000120B071F87C707168467968C8F8101187
:10423000FCF7F2F900210191002202918DF8002093
:104240006B460FF2F54108F10C00FCF7B6F96B462E
:1042500000220FF2C55108F13000FCF7AEF96B46B1
:1042600000220FF2095108F15400FCF7A6F9B968D1
:1042700001208847DFF87C0602786868C0F3815423
:10428000387D20B1032C02D10120307003E0032CD3
:1042900018BF022C0DD1022000F0ACF8032CD9F885
:1042A00000100CBF4FF47A7042F21070B0FBF1F1C5
:1042B00018E0012C02D100F040FA1BE0D4B9022032
:1042C00000F098F800F082FA9847012803D1002006
:1042D00000F033FA0EE0D9F800003221B1FBF0F122
:1042E000B1FBF0F108F15400FCF79BF908F1540020
:1042F000FCF799F9286840075CBF002000F07AF8C5
:104300000020BDE8FE8338B5002408B1150002D1B5
:104310006FF0020407E08160C26003610146DFF8CC
:10432000C005FCF7A6F9204632BD10B50446FCF7DF
:1043300008FADFF8AC150A1992F8E9305B1E82F82A
:10434000E930DBB233B98A68012303FA04F422EAC4
:1043500004048C605FE0F8B50546FCF7F2F904460A
:10436000DFF87C15481990F8F020521E80F8F020F4
:10437000D2B27ABBDFF88005DFF8807500EB8502EA
:1043800010F825505688280615D539680A6A30462F
:10439000904739688A6A3046904739680A6B3046D8
:1043A0009047DFF85C15DFF85C2501200860106895
:1043B0008007FCD507E06A0611D501EB86010020D5
:1043C000D1F80421904705F03F05132DBCBF2846C6
:1043D000FFF7C1FF2046FCF7CDF90020F2BD396898
:1043E0008A693046904739684A6B304690470228C0
:1043F000F9D1E8E710B50446FCF7A3F9DFF8E014BB
:104400008A680123A3401A438A60214491F8E92075
:10441000521C81F8E920FCF7ADF9002010BD2DE910
:10442000F0410646FCF78DF90446DFF8B454A819AC
:1044300090F8F0104A1C80F8F02081BBDFF8B884B7
:1044400018F8260000F03F001328B8BFFFF7E7FF79
:1044500008EB8600478818F82600DFF8A0640106FC
:1044600015D53268D169384688473268516A38466E
:1044700088473268D16A38468847DFF88424DFF8F5
:1044800084140120106008688007FCD507E041060D
:104490000BD505EB87020120D2F80411884720468E
:1044A000FCF768F90020BDE8F08131684A693846B8
:1044B000904731684A6B384690470128F9D1EEE7BA
:1044C0002DE9FE4F0746DFF81C04DFF8149401685D
:1044D000002600244A06A24609F1DC0504D5297B02
:1044E00011B9202000F079F9012F18BF6FF00108F1
:1044F00057D12868012852D102212960FCF7B5F96B
:10450000012000F06AF95FEA00084BD100F04AFA96
:10451000DFF8F813DFF8E47301900C600120B96A4A
:104520000A689047012803D1002000F0A9F901246E
:10453000DFF8DC13DFF8D0230E6009F1FF01136808
:10454000887808B14FF0010A487808B14AF0020AA9
:10455000087808B14AF0040AE87F20B139680A6B8C
:104560004FF480609047A87F20B139680A6B4FF400
:1045700081609047DFF88813DFF898B30120086066
:104580004AF020003A6891698847DFF88C230120BF
:10459000106099F80800C10709D501261BE06FF0EB
:1045A00004087CE001202860FCF768F977E0396AAC
:1045B0008A68584690470428F9D00128009004D111
:1045C0003A6A5368032158469847DFF85003016858
:1045D000890889000160002000F0FAF9DFF82893CB
:1045E000D9F8000039688A6B90476EB900980128A5
:1045F00004D13A6A5368012158469847DFF81C03F2
:10460000016841F0030101600120DFF80413086034
:1046100050463A6853699847E87F20B13968CA6ABA
:104620004FF480609047A87F20B13968CA6A4FF480
:1046300081609047B249B84B0120086000221A609F
:104640000320286039684A6B504690470128F9D109
:10465000D9F80000042000F0C0F80646AB4901205C
:104660000860D9F800209F4800688106FBD514B186
:10467000012000F005F900F005FB082000F0ADF87E
:10468000064301202860019800F099F99648008AB5
:1046900000F077FAFCF7F2F80EB14FF0FF38404621
:1046A000BDE8FE8F38B50446FCF74BF805462146B9
:1046B0008B48FBF7F4FF2846BDE83240FCF75AB8B8
:1046C0003EB50024012804D020D303281CD017D3E2
:1046D0001CE06846FBF7A0FF814D914901948DF8DD
:1046E000004002946B46012205F17800FBF765FF5C
:1046F00000238C4A2C2105F19C00FCF700F805E012
:1047000000F0DCFA044601E000F098FB20463EBDD4
:1047100038B5FCF716F87249054691F8E000012417
:1047200010B1FFF73BFD04462846FCF723F820466E
:1047300032BD002070E000007047F8B50326664CDB
:10474000664D00961C23266877684FF04052002182
:104750002846B84701200090284624686568092348
:104760004FF400720021A847F1BD000010B500F021
:104770002DF89847022818BF032805D1FFF7DDFF61
:10478000BDE810400220D0E5012802D1BDE810406C
:10479000D3E765480168C1F38150032808BF4FF48F
:1047A0007A7004D002280CBF41F288303220504980
:1047B0004B4C0A68B0FBF2F104F15400FBF731FFF7
:1047C00004F15400BDE81040FBF72DBF57490A68BB
:1047D0001368042070470020704738B505464048EC
:1047E00004685CB1A068284205D02269E368002112
:1047F0002846984720B92468002CF3D1002032BD08
:104800004FF0FF3032BD4A49012807BF072008603A
:1048100000220A600020704770B5FBF792FF304D10
:10482000314E044695F8E00050B1287A410613D481
:10483000FFF7B4FC80B100F096FC002085F8E000A2
:104840000220B568A84706461020FFF7C6FF012ED4
:1048500011D10320A8470EE025490A683220B0FB99
:10486000F2F101B9012105F13000FBF7DAFE05F1A3
:104870003000FBF7D8FE2046BDE87040FBF77ABF5A
:1048800038B5012823D129490A68136898470128B7
:104890001DD000F05BFC124D297A012085F8E00064
:1048A000880616D4124A10683221B1FBF0F404B91C
:1048B000012405F13000FBF7B8FE214605F1300078
:1048C000FBF7AFFE05F13000FBF7ADFE01E000F0B5
:1048D00071FC002032BD0000A401001000A00C40BB
:1048E000040500201410094058250100B03F005075
:1048F0007C1C0020B91D0020782F0100B801001099
:1049000028200860282008402C2009400C4009403D
:104910000002224300400340800104432422084057
:104920008D4F0000194D0000B43F0050E001001011
:1049300000000460DFF800F015C00110DFF800F09F
:1049400015C1011020B1082328220021FFF7F2BF72
:104950007047002101604160C1604FF0FF3181600C
:10496000704770B514008AB005460E4603D1002288
:1049700000F0D4FC0CE06846FFF7E4FF20680490E8
:104980006A4660680590314600F004F800F0C6FC05
:104990000AB070BDE0680790A0680690284670478E
:1049A000FFF7CCBFFBF7E8BE00F0C4BC80B5FBF757
:1049B0000DFD012818BF002002BD00F0C5BCFBF7AB
:1049C000DFBE00F0D1BC03281628A8BF20387047EE
:1049D0002DE9F84F80469948DFF864920168994EB6
:1049E0008A0705D50820B0719749C9F80010C6E0BC
:1049F0009648026811688847009000279448046828
:104A000025176D1CA00209D40098C0F13E00C0100B
:104A10000828C8BF0820A842A8BF05468D480168DD
:104A2000C1F30460FFF7D0FF82468B480168C1F3F1
:104A30000440FFF7C9FF5544152D0246C8BF152590
:104A400004DC6FF009008542B8BF054605F01F0081
:104A50008249834B40F4F85008801868009910F0A0
:104A6000030F18BF0127400748BF47F002075FEA5E
:104A7000080096F9070018BF47F00407091A04292F
:104A800002DCB079874260D0009B0F3B4FF0000CF6
:104A9000E04607F0010007F00401DFF8C8E127D481
:104AA00003EB03134FEA2328B8F1070F88BF4FF039
:104AB0000708C446BCF1070F0EF1040A28BF4FF0E7
:104AC000060C5AF82CB05EF82CA0ABEB0A0A0AF0E0
:104AD000FF0C19B1E346CAF3072CDC445FEA877B7D
:104AE00003D5E346CAF3074CDC4408B10CEB1A6C5F
:104AF0005EF828E00EF0FF0A11B1CEF307218A44D8
:104B0000B90744BFCEF307418A4408B10AEB1E6AD5
:104B1000551BA3EB082303FB0CF38033002DD8BFF8
:104B20000125342004F0FF0445430AEB13216C43B4
:104B3000B4FBF1F04FF6FF71884288BF0846B080A1
:104B4000B771009800F30700F07147480168B0881A
:104B5000316000211F2804D21F20B08004E04008EB
:104B6000491CB0F5007FFAD20F38000941EAC001B4
:104B70003E480143C9F800100021C9F80410BDE8FF
:104B8000F18F38B505463A480468A4B23CB32F48C3
:104B900001680A6890472B4991F90720904205DA8D
:104BA0006FF07F029042B8BF1046C871A542888856
:104BB00034BF651B0125854210D32B4A13680A6850
:104BC0009A1A921C1F2A88BF1F222D1A5208D540FC
:104BD0002D18B5F5803F28BF4FF6FF758D8031BD8C
:104BE00024480068002800D1704730B522498A68FF
:104BF00002F04063B3F1406F1FD0104B1C68A50753
:104C00001BD44C68A50718D41C680968C1F303516C
:104C10001C31090114F0050F04D088420DD224F094
:104C2000050409E0814208D2100158BF44F0010494
:104C3000500158BF44F004041C6030BD000009401E
:104C400030100940941C0020FDFDA400EC01001070
:104C5000B43F0050B81200503C1100506E62084042
:104C6000242208409C1300500820094000E7A4803B
:104C70003410094028500940AC3F0050EFF3108039
:104C800072B67047EFF3108062B670470138FDD1FD
:104C90007047704710B50C18FFF7F0FF411E8941AF
:104CA000C90FDFF8642410680028FCD024680120B4
:104CB000106009B1FFF7E6FF204610BD38B5DFF8F8
:104CC0004C5428780024002802BFDFF84414487DA3
:104CD00000281FD0FBF735FDA978002906BF012267
:104CE000AA700124FBF746FDA4B90220FFF782FB5E
:104CF0000E20FFF794FBDFF81C14086808B10120B0
:104D000032BDDFF814044022C26002600120C86195
:104D100000216970002032BD2DE9FC41DFF8F81355
:104D200000200860DFF8F41301F1D804A07A00280D
:104D300043D00128DFF8E853DFF8E82331D1DFF86A
:104D4000E81316684BF2F52046430868360AC0F3AC
:104D5000814001280BD1A86C0168884700F042FA15
:104D600000F05BFA3509C010454306EBE536607B81
:104D700010B10021617306E0DFF8B003006820F095
:104D80007F4036187608DFF8A803DFF88423066032
:104D90000121360C46608160507D002849D00521F4
:104DA0000AE002280AD11568284600F012F9A5F297
:104DB000FF55032D3DD3082121733CE003283AD150
:104DC000106801F1B806A0F5C0603168F0610029F3
:104DD00048BF4942002848BF40428142A8BF002046
:104DE00026DA7068D34F80B200900823D5F800C04F
:104DF000DCF804804FF47F4230213846C047B06869
:104E000080B200901223D5F800C0DCF804804FF483
:104E1000F80204213846C047B06980B200900A23E6
:104E20002D686E684FF4406220213846B04701205B
:104E300020700B202073BDE8F34100BF2DE9F8433B
:104E4000DFF8D882BC4EDFF8EC92BC4CBC4FB248C5
:104E500008F1E105E9784A1E0B2A00F28D80DFE8AF
:104E600002F0063041596E41596E4159757B3168E7
:104E70000A68202090470F20E06041F61D51216113
:104E8000022000900723D6F804C0DCF804404FF459
:104E9000C07200214846A04776684846D6F80C9074
:104EA00007234FF4C0720021C84701203860022157
:104EB000E97008F17800BDE8F243FBF7B4BBBDE848
:104EC000F1830121E161287800281DBF00213961AB
:104ED00003200620E87000210320206079607868B4
:104EE0008107E6D4E878032806D10221009100F07A
:104EF00044F8C847042009E00020009000F03DF885
:104F0000C847E87806280CBF07200A20E87001206F
:104F10007860CEE7042903D12021A161012105E0B9
:104F200001220A29A2610CBF032102216970082213
:104F300000212160C260026001202060BFE70529D6
:104F40000CBF06200920E8700020E1E7002038604F
:104F500078600C22EA70ACE70021016001206D4A04
:104F600010600E20FFF7F7F90220FFF7DEF90120AD
:104F70000021E870A970A2E7FEE748467668D6F8F7
:104F800004900523602200217047000063496C48AB
:104F900091F8E420921E0A2A1AD8DFE802F0060AE5
:104FA0000E190A0E190A0E19120001688A07FCD59B
:104FB00044E741688A07FCD4FAE741688A07FCD5D0
:104FC000F6E701688A07FCD441688A07FCD4EFE75A
:104FD000FEE7F8B50446574D30212846FFF75AFE44
:104FE0004E4F07F1B806C0F3072070600421284631
:104FF000FFF750FEC0F38440B06020212846FFF741
:1050000049FEC0F38120B4F5C064B061346003D1BF
:10501000002087F8D800F1BD316997F8D80028B989
:105020007068B269B168F0607261F461F06900287B
:105030004CBF6FF00102022200EB4000101842103A
:1050400000EB927001EBA0017268F260002914DCA1
:105050007069032807D1012015318842A8BF0121BA
:10506000002272611EE001200B318842A8BF01219D
:10507000521E48BF0022F26007E01E2912DD70694F
:1050800028B915391E29C8BF1E21032009E00B3994
:105090001E29C8BF1E21521C3F2AC8BF3F22F260F2
:1050A000002070611E4CF068316180B200900823CE
:1050B0002768D7F804C04FF47F4230212846E047E4
:1050C0000120009011232768D7F804C04FF4003264
:1050D00004212846E047306980B2009012232768F7
:1050E000D7F804C04FF4F80204212846E04770695D
:1050F00080B200902846246865680A234FF4406215
:105100002021A847F1BD000000800C40E5050020EB
:105110005825010004800C402C500C400405002050
:10512000A401001008400C40B43F0050102009407A
:105130003C600C4000A00C40A001001000400C405E
:1051400034600C403848006800F02AB910B5384C7B
:10515000626D53680121032098472068C16A88471F
:10516000344A906010BD70B5314C616D0A68012001
:10517000904701281CD0A5692C48EE680023012225
:105180003421B047A8B1FFF7DDFF2068C16A884726
:10519000284B9A6828491C68D860A4EB9404801AAC
:1051A0004843000C18601A68944238BF14461C60CB
:1051B000012070BD38B51E4C626D5368002103207C
:1051C0009847616D0A680120904708B1FFF7BAFF60
:1051D0002068184DC16A88476860206E016888475A
:1051E000286131BD10B501461448154B02681B6893
:1051F000100400161B394843C01000EB2240120671
:1052000001FB01F412161B06624361431B1600EBFF
:10521000A220594300EBA14010BD00FB00F1C0EB00
:10522000A15000B2704700008000001000A00C40A8
:105230008C010010801C002040420F009013005091
:10524000A410005070B5044600F0C4F80646A08AC9
:105250000025012808D1FEF76FFA0546E068A1682D
:10526000451BA94238BF0025304600F0B4F8284657
:1052700070BD808A70470229DFF800F0BDAA0110D6
:10528000F8B504460B480C4F0668F8690D4650F80F
:105290002510B1420AD10948009029462046FFF75F
:1052A000EBFFF86950F82510B14201D10020F2BDA2
:1052B0002046F2BD18120000440100202003002007
:1052C000102803D302491038C1F8000F704700BFFF
:1052D00000E000E0816042607047002ADFF800F0E3
:1052E000E1BE011070B500F075F8094E0446B068D3
:1052F0000021FFF7F3FF05467069B169451BA9421C
:1053000038BF0025204600F066F8284670BD00BF73
:1053100078010020DFF800F079AD011010B50446E7
:10532000034BFFF7F7FFA06800B1204610BD00BF98
:105330002003002001488068704700BFC80100209A
:10534000DFF800F011B0011038B504460D4600F04A
:105350004FF8616A0D43656200F04BF82046BDE8E6
:105360003240FFF7EDBF012A70B50D4615F1010F70
:10537000044608BF052500F03BF806460120A8407A
:10538000A06165612946054A506900F02FF8A062C6
:105390003046BDE8704000F02CB800BFC8010020C6
:1053A00070B50446FFF76AFC451EAD41ED0F064E91
:1053B00030680028FCD0A047012131601DB1BDE854
:1053C0007040FFF75FBC70BD00800C40DFF800F05C
:1053D00079BB011000E006E0EFF31180202181F39A
:1053E00011887047000080F311887047FFF7EEBF07
:1053F000F2E7F8E7F0E7F6E70D49C20744BF0123FB
:105400000B60820744BF4FF480730B60400744BFBA
:105410004FF480320A60704710B5064AC30748BF90
:105420001160840748BF5160400748BF916010BDBC
:10543000042009401820094070B500230646DFF813
:10544000800B00EB831000F13C04B4F90050B5422E
:1054500004D10D0006D0E4780C4203D15B1C082B6C
:10546000EDD3002070BD2DE97043064614461D465D
:10547000FBF767F96EB1D6E90A2322432B43C6E94D
:105480000A23D6E9088948EA040449EA0505C6E979
:105490000845BDE87043FBF76DB910B50129044616
:1054A00098BF0121FBF7BDF82046BDE81040FBF78F
:1054B000BAB838B504460D4601F003F8A04231BF32
:1054C000241A641E241A641CA40805F57A70A042EC
:1054D00038BFB4F1405F05D2641B012C98BF012492
:1054E000204632BD002032BDF8B50446DFF8800A00
:1054F00040690025F0B1C368197B012501F00F0157
:10550000022914D10069DFF86C6AC168408A96F8F4
:10551000627041181922986802FB0711FFF7C9FF52
:10552000DFF8A01A20600A68B0FBF2F002E0002366
:10553000236000E020602846F2BDDFF88C1A0A687C
:105540000020D30705D5DFF8840A0068C00900F001
:1055500001007047F8B500F024F90546002C1CBF87
:10556000A07A00282AD094F909600127FFF7E5FF07
:1055700007FA06F658B194F90900DFF8541A4A6898
:10558000113007FA00F0C04302404A600860002072
:10559000A072207220606060C4E90400DFF8341A51
:1055A000A06194F909000A788740174388780F7042
:1055B00008B1401E8870F0B200F0E0F82846BDE85F
:1055C000F240FBF7D7B8032804DADFF8A81901EB9B
:1055D00040107047002070472DE9F0410025DFF8AA
:1055E0009489DFF8EC690127E8B2FFF7ECFF0400CB
:1055F00034D0A07A012831D194F90900113007FA8A
:1056000000F0C143316072681043706094F9090082
:1056100007FA00F0C0B200F0A5F8002104F1100074
:1056200000F0BFFE812809D1A06920B1002100F05F
:10563000B8FE812802D10220A0720FE081280DD08F
:1056400098F8610094F9092011219140084388F8E5
:1056500061000021DFF8680BFFF7AFF96D1C032D27
:10566000C2D3BDE8F08138B504281BD1DFF800496A
:1056700004F1DC052846FAF7C8FF98B12846FAF786
:10568000C2FFDFF8741C0A685043B0F5967F09D258
:105690002846FAF7CAFF0520FEF7ACFE012060732A
:1056A00000F002F8002032BD042104F13C00FFF7B5
:1056B00084B938B5DFF80C4BDFF8B45860690021C5
:1056C00061610022E068E16005F170000FF2F541D0
:1056D000FBF744F8002001F077F9DFF8200C0168AF
:1056E0000A6B9047696B814231BF401A401E401AD5
:1056F000401CA9684FF0FF32A2EB10328A4234BF3F
:105700004FF0FF3001EB1030A860287B20B1A86B70
:10571000A968C00288421ED2FFF70FFFB8B1DFF8B8
:10572000840B40F60901018000224280417B01F098
:10573000F00141F001014173017B01F0F0010173BF
:105740004260E2612060418811F4406FFBD001208B
:1057500000212873A96001F0B5F8DFF8A01C002033
:10576000086031BD10B500F01CF8DFF804180A7CA1
:1057700014430C74BDE81040FAF7FCBF38B500F0D4
:1057800010F80546DFF8E807017C21EA04040474F8
:10579000027C110703D408213C30FFF70EF900F01A
:1057A00080BF0446FAF7CDBF2DE9F84F054600212A
:1057B00029606846FFF798FE044600264FF0FF3A3E
:1057C0000027DFF80098DFF8ACB7DFF8A487F8B25D
:1057D000FFF7F9FE00281CBF817A002917D0017A53
:1057E0000126022922D0D8F83020D168528A9BF8AD
:1057F000623040695118192202FB0311FFF759FE6C
:10580000D9F80010B0FBF1F0504598BF82467F1CDC
:10581000032FDCD330460CE0296002E008B1C5F864
:1058200000A0204318BF0120BDE8F28F01204FF0F7
:10583000000A002CF2D000280099EDD05145EBD998
:105840005146E9E77CB5DFF828472178022903D1E2
:105850001920FAF781FF73BD217801291BD0FAF7CF
:1058600070FF05466846FFF79FFF04F1DC0660B154
:10587000009820B101463046FFF70FFE08E03046A1
:10588000FAF7D3FEFFF710FF02E03046FAF7CDFE3D
:105890002846FAF76FFF73BD7CB5DFF8D4566C6904
:1058A000686A002848D1002C41D06846FFF71CFEEA
:1058B00000281CBF0098002803D00820FFF75EFFD7
:1058C00073BD0820FFF74EFF05F11400FAF7BFFE85
:1058D0006862D4E90601C243DFF8F456AA60A968F9
:1058E0000142FBD1EA68D4E906010243EA60D4E947
:1058F0000623DB432B606E68D4E906010E436E601D
:10590000E468204600F0D1FF208840F60201401AEA
:1059100008D041F21E01401A04D041F6E671401A47
:10592000012809D82146012000F01EF973BD02218B
:1059300005F13C00FFF741F873BDDFF83406016B59
:105940008A6801F12003506830B1984218BF0246BE
:10595000F9D101E000207047507B10F00F0F02BF1B
:10596000488C40F609018842F4D101207047F8B50F
:10597000DFF8FC65DFF83C0B756A00F0FAFF0446BF
:10598000DFF8340B0268076802F02002224018BFDB
:10599000002D07F460270BD01346B562002228467D
:1059A000FFF761FD4FF4804106F13C00FFF705F879
:1059B0003C400ED0DFF8BC0590F8611041EA544439
:1059C00080F8614006F18C00BDE8F4400021FEF74C
:1059D000F4BFF1BD2DE9F843DFF8988598F8610030
:1059E000002448B1002698F861000121B140084226
:1059F0000ED1761C032EF6D398F8610030B1BDE8C5
:105A0000F4430021DFF8B807FEF7D7BFBDE8F18304
:105A100098F861001021B140084218BF0124FAF73C
:105A200090FE98F861101122B240914388F86110FD
:105A3000FAF7A0FEF0B2FFF7C6FD02001CBF907A95
:105A40000028D9D092F90990DFF88C1B01EB89016D
:105A5000002C0F681668556804BF107A022803D11D
:105A6000D2E90401C3000CD41046FFF773FD44B122
:105A70000020009000224FF0007349463046A847AE
:105A8000BAE7009700224FF00063F6E738B5DFF879
:105A9000E054686A70B36A6AD2E9060100F0FCFE5D
:105AA0000446686A22460023FFF7DDFCA00718D5EC
:105AB0006A6ADFF8043A9C68D2E9060120F0020025
:105AC00084439C606A6A1C68D2E906018C431C60AE
:105AD00005F11C00696AFAF7CCFD0020686202211A
:105AE00004E03CB1686AA8624FF4804105F13C00D3
:105AF000FEF763FFFFF770FDBDE83140CCE6DFF84D
:105B00007004B0F92C10B0F92E00814204BF0820B7
:105B1000FFF734BE70472DE9F042074689463E6ED6
:105B200014461D4606B1B047D7E9160104400D40A2
:105B300008BF002C16D080214846FFF77DFCC7E93E
:105B40001A4538B1D0E90823A243AB43C0E9082382
:105B5000396E81600020386607F13800BDE8F042F8
:105B600000F06DBFBDE8F08238B50A46DFF80C1BC7
:105B70004B681C001CBF8968014207D0DFF8F05356
:105B80000146286B01B0BDE83040184731BD000028
:105B9000704780B5FEF708FFDFF8D4230146106B8D
:105BA0005268BDE808401047DFF8C4030FF22942ED
:105BB0004168914208BFFFF745BE04213C30FEF723
:105BC000FCBE000038B54FF0FF3000F065FEDFF896
:105BD000A0530FF205410446686888420FD10022A5
:105BE000DFF8C81A05F17000FAF7B8FD0220287036
:105BF000FFF7A3FE18B9FFF7EFFCFFF74DFEDFF844
:105C0000380B044207D005F13C00BDE834404FF0AA
:105C10000051FEF7D2BE31BDF8B5D54DEC6924B3C5
:105C2000E168082040F6030340F6040619B3C2B247
:105C30000AB30A889A421EBFB2424968401EF5D193
:105C400014E0086818B9BDE8F240002057E710F1E9
:105C5000010F0AD0DFF8A0160A68B0FBF2F105F5D3
:105C60008070BDE8F440FFF718BCF1BD2069182230
:105C70002030FAF731FAD4E90A230026C4E90A668B
:105C8000A06858B1B4F93C102069A66813F0E24747
:105C90001CBF02F0000203F0E243B047FAF751FDE7
:105CA0000646E88D401CC0F30B00E885002084F810
:105CB0003F0005F11C00FAF7CAFC00F0FFFBB5F944
:105CC0002E00B5F92C108842CFD1296B91F87000C5
:105CD0000028B6D0002281F87020B4E738B50D4610
:105CE000A807A34C0ED5FFF797FFE06938B145F040
:105CF000020104F13C00BDE83440FEF75EBEBDE8A1
:105D000031409FE5680747D5DFF8F0150A68106B4A
:105D100080476063606908B100692063206B416857
:105D2000DFF8280A0A7802600220FEF763FB1120E0
:105D3000FEF775FB0121DFF844292170907810B936
:105D40000E20FEF76CFB206BDFF878244168886832
:105D5000002804BFC868002804D00021D161DFF802
:105D6000F00910600721DFF89436196000215069AE
:105D700051619069916150690FF2210140F08040BA
:105D800040F00200506161601A20FAF7DCFCBDE8C7
:105D900032401920FAF7D7BC31BD00002DE9FF4190
:105DA0000646880040F1CC80714C206B4168486801
:105DB000D1F80880CF68010018BF80475FEA08006B
:105DC00008BF002FDFF8FC530ED0E8690028FCD094
:105DD0000021E9615FEA080018BFC04707B1B84772
:105DE000DFF82C0A00F061FD0020E8610120DFF8F7
:105DF000241A296040F6020700F0E6FDDFF8A4242B
:105E000040F60A03138000205080117B01F0F0015E
:105E100011735060517B01F0F00141F001015173A9
:105E20000021D6F80880707CA8F80210B8F800109D
:105E3000C91B1DD041F21E07C91B19D041F6E677D8
:105E4000C91B012928D8B8F818704FF6FF310F4048
:105E5000A8F8187028B14FF60F403840A8F818007D
:105E60001AE02D20394660F30911A8F8181013E044
:105E7000B8F810704FF6FF310F40A8F8107028B135
:105E80004FF60F403840A8F8100005E02D203946A5
:105E900060F30911A8F81010002070744746786864
:105EA00000281EBF018899420746F8D14AE0308C8D
:105EB000A8B100217184716206F12C004378017849
:105EC00003F0F00301F0F00143F0010301704370AF
:105ED00006F120005060517B01F0F00151736946DA
