:1000000000440020D9AE010001C9011001C901104E
:1000100001C9011001C9011001C9011001C9011074
:1000200001C9011001C9011001C9011001C9011064
:1000300001C9011001C901103FC90110DFF800F02A
:1000400085BF0110DFF800F061C00110DFF800F09B
:1000500079BF0110DFF800F0A9C00110DFF800F04F
:1000600089AF0110DFF800F055BC011020B1082362
:1000700030220021FFF7EABF7047F8B51C008CB0B2
:1000800005460E46174603D1002300F0BBFA0CE0EC
:100090006846FFF7EBFF206805906B4660680890A4
:1000A0003A4600F004F800F0ADFA0DB0F0BD207A49
:1000B000ADF81800314628467047FFF7CBBFFFF771
:1000C000BDBFFFF7CBBF80B500F0BCFA401E80413A
:1000D000C00F02BD00F0BCBA00F0C4BAFFF7C2BF47
:1000E000002101604FF0FF3201234260037270472C
:1000F000FFF7A8BFDFF800F0C1BF0110DFF800F084
:10010000B9BA0110DFF800F0E5C00110DFF800F027
:100110001FBE0110DFF800F0DDC00110DFF800F0B5
:1001200069B20110DFF800F091BE011020B1082380
:1001300024220021FFF7DEBF7047F0B51C0089B014
:1001400005460E46174603D10023FFF7E7FF0FE0F1
:100150006846FFF7EBFFA16806916B462278ADF881
:1001600010203A466068059031462846FFF7D6FFD2
:100170000F48104A01681160284609B0F0BDFFF72A
:10018000C9BFFFF7CFBF00F075BA80B500F089FA9C
:1001900000B10120C0B202BD002181600170416048
:1001A0007047FFF7AFBFFFF7B1BFFFF7A7BF000072
:1001B000A8FC0100B01A0020DFF800F011BF011008
:1001C000DFF800F005B30110DFF800F015C00110F2
:1001D000DFF800F015C1011020B10823282200210A
:1001E000FFF7F2BF7047002101604160C1604FF02E
:1001F000FF318160704770B514008AB005460E4625
:1002000003D1002200F054FA0CE06846FFF7E4FF47
:10021000206804906A4660680590314600F004F852
:1002200000F046FA0AB070BDE0680790A06806903A
:1002300028467047FFF7CCBFFFF7BEBF00F044BAB7
:1002400080B500F0FFF9012818BF002002BD00F0C2
:1002500045BAFFF7B5BF00F051BA0246022910783F
:1002600003D1517800EB01207047032906D1517862
:10027000927800EB012000EB02407047042908D17E
:100280005178937800EB0120D17800EB034000EB2C
:100290000160704742490A681040C2430A600B6817
:1002A0000342FBD170473F4A11680029FCD100236B
:1002B000D3611060D0690028FCD0D16150687047CC
:1002C0003948016821F0020141F400710160032105
:1002D0003648816041F2300242610121C160502202
:1002E0004261C1604FF4CA624261C16001607047FF
:1002F00030B50446002000E0401C984209DA54F86A
:10030000205015F1010F04D015408D42F4D1C0B238
:1003100030BDFF2030BDDFB50188B1F5C15F24D10C
:1003200041690091002781690191C06902902048CC
:100330000168C1F303665DF8274084B105234FF0DF
:10034000FF321C492046FFF7D3FF042807DC54F88E
:10035000201021F4702141EA064144F820107F1C4E
:10036000032FE8DB002004B0D0BD0120FBE71249D9
:100370000A681040C2430A607047104802680A6069
:1003800083684B60C2688A60406B20F0784040F020
:100390008050C860704701461022094800F0CEB86E
:1003A00010100440001004400000046000410440AC
:1003B000541300500200F844081004404C1300503D
:1003C00018000021704710B50446FFF778FE0021A1
:1003D00061602160BDE81040FFF78ABE38B5054670
:1003E000FFF76DFE2C683CB1216829602168002967
:1003F0001ABF00224A606960FFF77AFE204632BDCC
:1004000038B500F00FF80021296062686A60616801
:10041000002914BF0D6025606560FFE7BDE832402C
:10042000FFF766BE04460D46FFF749BE38B5FFF735
:10043000F9FF29686A6800290CBF62604A60696830
:100440002A6800290CBF22600A60E7E7DFF800F0A5
:1004500009C00110DFF800F0D1B20110DFF800F0A0
:10046000059B0110DFF800F0E1A30110DFF800F0B8
:100470005DB40110DFF800F009C10110DFF800F0F1
:100480000DC1011020B1082324220021FFF7DEBF97
:10049000704730B589B004460D4600F00BF80121D5
:1004A0008DF818106A4629462046FFF7DFFF2046E0
:1004B00009B030BD6846E5E718B589B00446FFF7D6
:1004C000F9FF01218DF818102046034A6946FFF70D
:1004D000C1FF0AB010BD00005005002080B500909B
:1004E0006846FFF7C7FF01BDFFF7C8BF80B5FFF73C
:1004F000B5FF10B94FF0FF3002BD002002BDFFF77D
:10050000B1BF30B4002513E050F8042BD30744BF2B
:10051000A9F101039A18091F042942F8045BFAD2D1
:1005200013468C0744BF15809B1CC90748BF1D702C
:1005300050F8041B0029E7D130BC704762B38B0729
:1005400008D0521E11F8013B00F8013B00F0248056
:100550008B07F6D1830740F0208000BF103A07D305
:1005600030B4B1E83810103AA0E83810F9D230BCF5
:10057000530724BFB1E80810A0E8081044BF51F8A1
:10058000043B40F8043BD20724BF31F8022B20F88B
:10059000022B44BF0B7803707047121F17D35B0008
:1005A00009D151F8043B20F8023B1B0C121F20F824
:1005B000023BF6D20BE051F8043B00F8013B1B0A6A
:1005C00020F8023B1B0C121F00F8013BF3D238BF8E
:1005D000121D521E24BF11F8013B00F8013BF8D850
:1005E000704701700A0A0B0C090E42708370C170CB
:1005F000001D7047002203F03BBAFF7FDFF800F0D8
:10060000BDAA0110F8B504460B480C4F0668F869FE
:100610000D4650F82510B1420AD1094800902946EC
:100620002046FFF7EBFFF86950F82510B14201D1E1
:100630000020F2BD2046F2BD181200004401002047
:10064000500500200148007D704700BFA401002034
:10065000102803D302491038C1F8000F704700BFBB
:1006600000E000E08160426070470000DFF800F0C9
:100670009DB2011070B5044603F008FA0646A08A40
:100680000025012808D1FFF7F1FF0546E068A168C1
:10069000451BA94238BF0025304603F0F8F928462B
:1006A00070BD808A70470000DFF800F079AD01105E
:1006B00010B50446034BFFF7F7FFA06800B12046D2
:1006C00010BD00BF5005002001488068704700BF82
:1006D000C8010020DFF800F011B0011038B5044661
:1006E0000D4603F0E1F9616A0D43656203F0DDF93F
:1006F0002046BDE83240FFF7EDBF004070B50D4623
:1007000015F1010F044608BF052503F0CDF9064693
:100710000120A840A06165612946054A506903F09F
:10072000C1F9A0623046BDE8704003F0BEB900BF19
:10073000C8010020DFF800F0FD880110DFF800F0AC
:10074000C1170110DFF800F0A5850110DFF800F0F7
:10075000A58701102DE9FE4306460024B178DFF895
:10076000C473A9B105293ED0062948D0092900F053
:1007700063810A2900F08A800B2972D00C2900F0CD
:1007800072810E2900F02E81102900F0B081B6E1AF
:1007900070780028FBD1FFF7D5FF054608F02EF949
:1007A0000646FFF7D3FF8DF800002A4610210220ED
:1007B00007F0FBF832461021032007F0F6F86A46EE
:1007C0000121042007F0F1F89DF80000012818BF6E
:1007D000032807D1012005F0CFFF0246062106209D
:1007E00007F0E3F88BE170780028FBD1F078337BD9
:1007F0007289311D00F0010006F052FA7FE1B088E5
:1008000006F06DFFFFF796FF0028F7D1387B01282F
:1008100009D106F093FC3C730622002107F1100079
:1008200007F070F817E0787B012803D106F003FD8C
:100830007C7310E00025EEB207F11000815D012904
:1008400005D1E8B206F086FC07F110018C556D1C4D
:10085000EAB2062AEFDB50201EF0EEFE06F027FC7F
:100860004DE107F067FB00280CD0F86900281CBF99
:100870000468002C07D030690090737B327B71894B
:10088000F01CA0473AE1708901212DE17078002821
:1008900040F09180B079C10740F18D80082200219D
:1008A00001A807F02FF8B08807F00CF804005ED01C
:1008B0007569002D00F02B810622002105F1110041
:1008C00007F02AF800B306220021284607F024F892
:1008D000002818D1287C00F001084FF0000909F128
:1008E000010985F811900020009000230022414664
:1008F00005F1110006F094FF00285FFA89F040F03E
:1009000001810028EBD100E17569EDB1287C00F090
:1009100001008DF80A00062205F1110101A806F078
:100920004CF96079012805D10622A11D04F10C00C3
:1009300006F043F9062205F11101A01D06F03DF96C
:10094000287C40F002006071B079410720794CBFEB
:1009500040F0020000F0FD002071B079010720791D
:100960004CBF40F0200000F0DF00207106E006F0F0
:10097000D9FE18B13878042107F036F9B1799DF81D
:100980000B00890801F0010108438DF80B00B179D3
:100990000A074CBF0821002108438DF80B0031469F
:1009A00001A806F08DFA0400B08802D106F044FEDA
:1009B00001E006F094FEF86900281CBF4368002B94
:1009C0000FD07278B088012198477078002808D13C
:1009D000B079C10705D5FB69B08822465C68032160
:1009E000A0478BE0707806281BD1B08806F06AFF1C
:1009F000B8B1B97A012904D013D3032907D00CD395
:100A00000FE04179B088002206F0DAFD09E000220B
:100A1000002140F209400FF07FF8B08805210FF067
:100A200081F9F86900281CBF4368002B66D07278F2
:100A3000B0880221984761E000940023F17801AA70
:100A400001F00101301D06F0EBFE002856D19DF8A3
:100A5000043006204343253306F10C020421D8B2AA
:100A600006F0A3FF4AE0B58896F80C80284606F009
:100A700029FF040042D007F05DFA00283ED1009023
:100A80000023617901AA01F00101A01D06F0C8FE52
:100A900028BB9DF8040006F0F5FA08F00C010429C3
:100AA00011D008290BD00C290FD100F00901092918
:100AB0000BD061790022284606F082FD1EE010F07E
:100AC000090102D1F5E7C107F3D501220092A37C09
:100AD0009DF804100246284606F01EFD0EE07878C8
:100AE0000028E6D105212846FFF728FE06E006F09B
:100AF00019FE18B13878042107F076F80124204651
:100B0000BDE8FE8300287FF4FFAE0020706106225E
:100B1000607900F001008DF80A00A11D01A806F01F
:100B20004CF811E74808002070B50C46154600F057
:100B3000F6F8012604280CBF06480748006800287C
:100B40001CBF0268002A03D029462046904706466B
:100B5000304670BDAC4E0020A84E002070B50C464B
:100B600015461E4606F0AEFE20B1848205864686F6
:100B7000002070BD012070BDDFF800F0FDA700105F
:100B8000DFF800F021AE0010DFF800F0C11A01100C
:100B9000DFF800F00992011038B5044684B02088CF
:100BA000402107F0BDFE002852D02389E288A188A9
:100BB0006088FFF7E1FF002518B1E17A29B1012132
:100BC00003E0E07A002100B10225A07A10BB228860
:100BD000ADF80420D1B191213E228DF800108DF89E
:100BE0000120062100228DF802108DF80320A08834
:100BF000ADF808006088ADF80600E088ADF80A009E
:100C00002189ADF80C108DF8032001216846FFF70B
:100C1000BBFF16E081F00101ADF80C1003AAA17A28
:100C20002088FFF7B5FFBDF80C0050B900210291F4
:100C3000019022890092E388A28861882088FFF7CA
:100C40009FFF2088002240211EF08CFE284600E0F5
:100C5000122005B030BD000010B5084A084C1078CD
:100C600001210BF0E3F9206B18B107F0ABF800207D
:100C700020630420BDE810400DF024BC5D4F00202F
:100C8000C8090020DFF800F0E58001102DE9F34FDE
:100C900081B092469B46084606F014FE08B111202A
:100CA0003BE04FF6FF7006F00DFE040034D05846CE
:100CB000129D119E109FDDF83C80DDF838900C9954
:100CC0009DF804B060710622A01D05F076FF062293
:100CD000002104F10C0006F015FEBDF8080060804C
:100CE00084F804A084F800B00021E16284F8129036
:100CF000A4F81480E782268665860D9828B10146FF
:100D0000062204F10C0005F058FFBDF80800002190
:100D1000FFF7B8FF002000E01520BDE8FE8F80B58A
:100D200006F0D0FD00B1807C02BD00002DE9F0414D
:100D300080460D4640F67B40891F164681423CBFE7
:100D4000B11F81421F4611D2AE420FD3B7F5FA7FD1
:100D50000CDA069CA4F10A0140F6774291423FBFAB
:100D6000781C71004843B0EBC40F01D3122045E05A
:100D7000404615F001FF010040D15FFA88F00BF00A
:100D800017F800F17702117929B1117800291CBFF9
:100D90000F29102902D0D17A012901D13A202DE062
:100DA00001680A78402A0BD115494A78910758BF43
:100DB000112023D590F8FD108A0758BF1A201DD5A1
:100DC00000F5A4710D804E808F80CC8000F18401ED
:100DD00002228A7000238B80828ECE80D21D0A80F0
:100DE0000F814C81012180F8431190F8FD2091077B
:100DF00054BF00210F2109F093FE0020BDE8F081CF
:100E0000F41B002070470000014801680A6B10477E
:100E10008C0100103D1E010035B2011071A10110BE
:100E20006DB5011012000110077C2300208C170003
:100E3000209004C20001C0052001010000C4161862
:100E40005200011007080200204C0600200111C3C7
:100E5000010001120418210483010001A10CD00338
:100E60000007002000015230142002340100200449
:100E7000523C0422000150026CDC0200015003BC11
:100E8000050020030D1003B71D0100FD04F301014F
:100E9000000120027C060020171200010002080257
:100EA0000020000208000000030000520001520070
:010EB0000140
:10100000B41200001810000051970100FDB3011048
:101010006DC00110FDAE011099B5011059BA011053
:1010200039BA01102D000000B01200003C10000081
:10103000B1C00110A9BF011067C0011069B801104B
:10104000B9B9011099B9011030000000B0120000C8
:1010500060100000BDC00110CDB30110D9BD01105A
:101060006DB301108DB80110D9B901103100000025
:1010700000000000700500200400000000000000D7
:10108000000000002000000098A5010030000000D2
:10109000281000009005002004000000000000005F
:1010A000000000000C00000018AE01001800000055
:1010B0004C10000098050020040000000000000013
:1010C000000000002400000030AE01001800000005
:1010D00000000000D805002004000000000000000F
:1010E000000000001000000058A601002C000000C5
:1010F00000100000F40500200400000000000000C3
:10110000000000002000000030A9010024000000C1
:10111000FFFFFFFFFC0500200400000000000000AE
:10112000000000002800000054A901002400000075
:10113000FFFFFFFF24060020040000000000000065
:10114000000000001400000048AE0100180000007C
:10115000FFFFFFFF2C06002004000000000000003D
:101160000000000058000000A8A3010034000000A7
:10117000FFFFFFFF34060020040000000000000015
:10118000000000001000000060AE01001800000028
:10119000FFFFFFFF3C0600200400000000000000ED
:1011A000000000001C00000078A9010024000000DD
:1011B000FFFFFFFF440600200400000000000000C5
:1011C0000000000038000000F0A701002800000027
:1011D000FFFFFFFFAC06002004000000000000003D
:1011E000000000005400000014A101003C000000B9
:1011F00001000000ACFC01000100000000000E0036
:1012000000000F00320000000100000078050020FF
:10121000000200000000000001C9011000000000F1
:10122000000000000800000000002200A0050020CF
:10123000000000000000000008000000040600207C
:101240000000000000000000080000000000000096
:10125000000000000000000000000000010000008D
:101260004C0600200600000001000000B40600202B
:10127000000000000000000000020000000000006C
:10128000290001002500300031002D00010001007F
:1012900004000000140E0000000000000000000028
:1012A000000001000000030013C40110111E010022
:1012B000B8120000B812000000000000E80500208D
:1012C0009D1C010020000000F0AE010018A80100E4
:1012D00029C10110D3C400000BD90000A1C701101F
:1012E000A3C70110000000008F120000B49E01008F
:1012F000CC9E01009C9E010002000900010000003C
:1013000001120001090E00009DA7010009AD0100B6
:1013100011A4010065A50100E59E010011850100F1
:1013200079AE0100151C0100551E0100591E010077
:1013300070B500230646DFF89C0C00EB831000F12B
:101340003C04B4F90050B54204D10D0006D0E47855
:101350000C4203D15B1C082BEDD3002070BD2DE99E
:101360007043064614461D46FEF7A9FE6EB1D6E947
:101370000A2322432B43C6E90A23D6E9088948EA0F
:10138000040449EA0505C6E90845BDE87043FEF7CF
:10139000AFBE10B50129044698BF0121FEF701FF39
:1013A0002046BDE81040FEF7FEBE38B504460D46A7
:1013B00001F093F8A04231BF241A641E241A641C61
:1013C000A40805F57A70A04238BFB4F1405F05D299
:1013D000641B012C98BF0124204632BD002032BD81
:1013E000F8B50446DFF89C0B40690025F0B1C368EE
:1013F000197B012501F00F01022914D10069DFF8E2
:10140000886BC168408A96F8627041181922986802
:1014100002FB0711FFF7C9FFDFF8BC1B20600A6859
:10142000B0FBF2F002E00023236000E020602846D9
:10143000F2BDDFF8A81B0A680020D30705D5DFF846
:10144000A00B0068C00900F001007047F8B500F07B
:10145000B1F90546002C1CBFA07A00282AD094F9C7
:1014600009600127FFF7E5FF07FA06F658B194F97E
:101470000900DFF8701B4A68113007FA00F0C0431A
:1014800002404A6008600020A07220722060606004
:10149000C4E90400DFF8501BA06194F909000A7840
:1014A0008740174388780F7008B1401E8870F0B2EB
:1014B00000F06DF92846BDE8F240FEF719BE03289A
:1014C00004DADFF8C41A01EB4010704700207047BF
:1014D0002DE9F0410025DFF8B08ADFF8086B01271D
:1014E000E8B2FFF7ECFF040034D0A07A012831D134
:1014F00094F90900113007FA00F0C14331607268B5
:101500001043706094F9090007FA00F0C0B200F0CF
:1015100032F9002104F1100000F04FFF812809D1B9
:10152000A06920B1002100F048FF812802D10220EB
:10153000A0720FE081280DD098F8610094F909207D
:1015400011219140084388F861000021DFF8840CE4
:10155000FEF77DFE6D1C032DC2D3BDE8F0812DE9A1
:10156000FE4F0C466FF001018DF800108346904647
:101570009946FEF7A4FD01900025DFF86C6A01276B
:1015800096F800A0AF401AEA070F0CD04FF0FF32D8
:10159000914518BFA94506D1E8B2FFF790FF10B1F9
:1015A000817A00294AD06D1C032DE8D33FE002293F
:1015B00018D140F20361218294F90910628A491D11
:1015C00061F30B2262824179628A61F3C70262820F
:1015D0008179628A61F34E326282C079618A60F3F6
:1015E0000C31618200220D9878B10278417894F92B
:1015F0000900520142EA8102401D42EA00224FF6F0
:10160000FC710A40DFF8D00B0243A2615FEA0802D6
:10161000DFF8701918BFC4F80480086B08B9226895
:101620000A6300F018F994F909008DF80000019898
:10163000FEF75EFD9DF90000BDE8FE8F2AEA070770
:1016400037700122827245722146B278521C0446DC
:10165000B270C4F800B021720FF24950217A606074
:1016600001290C98A3D194F909200A21521D218245
:10167000A27480686061B5E738B504281BD1DFF833
:10168000044904F1DC052846FEF77FFD98B12846A1
:10169000FEF779FDDFF8781C0A685043B0F5967FB5
:1016A00009D22846FEF781FD052001F06DFA0120E0
:1016B000607300F002F8002032BD042104F13C0008
:1016C000FEF7C5BD38B5DFF8144BDFF8B8586069D0
:1016D000002161610022E068E16005F170000FF215
:1016E000F941FEF7F9FC0020FEF76CFEDFF8240C50
:1016F00001680A6B9047696B814231BF401A401EF6
:10170000401A401CA9684FF0FF32A2EB10328A4207
:1017100034BF4FF0FF3001EB1030A860287B20B1C0
:10172000A86BA968C00288421ED2FFF782FEB8B13A
:10173000DFF8880B40F60901018000224280417BDE
:1017400001F0F00141F001014173017B01F0F00172
:1017500001734260E2612060418811F4406FFBD068
:10176000012000212873A960FEF7AAFDDFF8A41C60
:101770000020086031BD10B500F01CF8DFF8041837
:101780000A7C14430C74BDE81040FEF7B1BC38B5B8
:1017900000F010F80546DFF8EC07017C21EA0404AC
:1017A0000474027C110703D408213C30FEF74FFD7E
:1017B00000F083BF0446FEF782BC2DE9F84F0546D2
:1017C000002129606846FFF70BFE044600264FF013
:1017D000FF3A0027DFF80098DFF8ACB7DFF8A487FE
:1017E000F8B2FFF76CFE00281CBF817A002917D0E1
:1017F000017A0126022922D0D8F83020D168528AF5
:101800009BF8623040695118192202FB0311FFF75F
:10181000CCFDD9F80010B0FBF1F0504598BF8246DE
:101820007F1C032FDCD330460CE0296002E008B1B6
:10183000C5F800A0204318BF0120BDE8F28F0120A9
:101840004FF0000A002CF2D000280099EDD051454D
:10185000EBD95146E9E77CB5DFF828472178022922
:1018600003D11920FEF736FC73BD217801291BD066
:10187000FEF725FC05466846FFF79FFF04F1DC06EE
:1018800060B1009820B101463046FFF782FD08E0C4
:101890003046FEF78AFCFFF710FF02E03046FEF705
:1018A00084FC2846FEF724FC73BD7CB5DFF8D456D3
:1018B0006C69686A002848D1002C41D06846FFF75F
:1018C0008FFD00281CBF0098002803D00820FFF7D8
:1018D0005EFF73BD0820FFF74EFF05F11400FEF711
:1018E0007DFD6862D4E90601C243DFF8F856AA60BC
:1018F000A9680142FBD1EA68D4E906010243EA6023
:10190000D4E90623DB432B606E68D4E906010E435D
:101910006E60E4682046FEF7C6FC208840F60201AF
:10192000401A08D041F21E01401A04D041F6E67177
:10193000401A012809D82146012000F01EF973BD84
:10194000022105F13C00FEF782FC73BDDFF834068E
:10195000016B8A6801F12003506830B1984218BFCA
:101960000246F9D101E000207047507B10F00F0FC4
:1019700002BF488C40F609018842F4D1012070472B
:10198000F8B5DFF80066DFF8440B756AFEF7EFFC88
:101990000446DFF83C0B0268076802F02002224090
:1019A00018BF002D07F460270BD01346B562002244
:1019B0002846FFF7D4FC4FF4804106F13C00FEF7C7
:1019C00046FC3C400ED0DFF8C00590F8611041EABB
:1019D000544480F8614006F18C00BDE8F4400021D9
:1019E000FEF735BCF1BD2DE9F843DFF89C8598F88A
:1019F0006100002448B1002698F861000121B1403F
:101A000008420ED1761C032EF6D398F8610030B14F
:101A1000BDE8F4430021DFF8BC07FEF718BCBDE8C1
:101A2000F18398F861001021B140084218BF0124E9
:101A3000FEF745FB98F861101122B240914388F8F7
:101A40006110FEF755FBF0B2FFF739FD02001CBF35
:101A5000907A0028D9D092F90990DFF8941B01EB15
:101A60008901002C0F681668556804BF107A022897
:101A700003D1D2E90401C3000CD41046FFF7E6FC01
:101A800044B10020009000224FF0007349463046D8
:101A9000A847BAE7009700224FF00063F6E738B591
:101AA000DFF8E054686A70B36A6AD2E90601FEF7AB
:101AB000F1FB0446686A22460023FFF750FCA007AA
:101AC00018D56A6ADFF8083A9C68D2E9060120F066
:101AD000020084439C606A6A1C68D2E906018C4358
:101AE0001C6005F11C00696AFEF78AFC0020686230
:101AF000022104E03CB1686AA8624FF4804105F11C
:101B00003C00FEF7A4FBFFF7E3FCBDE83140CCE668
:101B1000DFF87004B0F92C10B0F92E00814204BF38
:101B20000820FFF734BE70472DE9F042074689468A
:101B30003E6E14461D4606B1B047D7E91601044073
:101B40000D4008BF002C16D080214846FFF7F0FB5F
:101B5000C7E91A4538B1D0E90823A243AB43C0E92D
:101B60000823396E81600020386607F13800BDE82F
:101B7000F042FEF7C4BCBDE8F08238B50A46DFF893
:101B8000141B4B681C001CBF8968014207D0DFF89A
:101B9000F4530146286B01B0BDE83040184731BD11
:101BA00000000000704780B5FEF748FBDFF8D42343
:101BB0000146106B5268BDE808401047DFF8C403C7
:101BC0000FF229424168914208BFFFF744BE042149
:101BD0003C30FEF73CBB000038B54FF0FF30FEF75D
:101BE00059FBDFF8A0530FF20541044668688842AC
:101BF0000FD10022DFF8CC1A05F17000FEF76CFA65
:101C000002202870FFF7A2FE18B9FFF761FCFFF76A
:101C10004CFEDFF83C0B044207D005F13C00BDE868
:101C200034404FF00051FEF712BB31BDF8B5D54D31
:101C3000EC6924B3E168082040F6030340F604068B
:101C400019B3C2B20AB30A889A421EBFB2424968A7
:101C5000401EF5D114E0086818B9BDE8F240002034
:101C600056E710F1010F0AD0DFF8A4160A68B0FB9E
:101C7000F2F105F58070BDE8F440FFF78ABBF1BDD5
:101C8000206918222030FEF769FCD4E90A230026D7
:101C9000C4E90A66A06858B1B4F93C102069A66886
:101CA00013F0E2471CBF02F0000203F0E243B0472A
:101CB000FEF705FA0646E88D401CC0F30B00E885E8
:101CC000002084F83F0005F11C00FEF787FB00F0C0
:101CD00001FCB5F92E00B5F92C108842CFD1296B43
:101CE00091F870000028B6D0002281F87020B4E787
:101CF00038B50D46A807A34C0ED5FFF797FFE0694E
:101D000038B145F0020104F13C00BDE83440FEF773
:101D10009EBABDE831409EE5680747D5DFF8F41567
:101D20000A68106B80476063606908B100692063CE
:101D3000206B4168DFF8AC0A0A780260022000F0EC
:101D400023FF112000F035FF0121DFF84829217021
:101D5000907810B90E2000F02CFF206BDFF87C2467
:101D600041688868002804BFC868002804D00021A2
:101D7000D161DFF8740A10600721DFF89836196026
:101D80000021506951619069916150690FF2210100
:101D900040F0804040F00200506161601A20FEF780
:101DA00090F9BDE832401920FEF78BB931BD000033
:101DB0002DE9FF410646880040F1CC80714C206B34
:101DC00041684868D1F80880CF68010018BF804793
:101DD0005FEA080008BF002FDFF800540ED0E86962
:101DE0000028FCD00021E9615FEA080018BFC04765
:101DF00007B1B847DFF8B00AFEF755FA0020E861EE
:101E00000120DFF8A81A296040F60207FEF7DAFA87
:101E1000DFF8A82440F60A03138000205080117BCD
:101E200001F0F00111735060517B01F0F00141F0BD
:101E3000010151730021D6F80880707CA8F80210C7
:101E4000B8F80010C91B1DD041F21E07C91B19D0DC
:101E500041F6E677C91B012928D8B8F818704FF663
:101E6000FF310F40A8F8187028B14FF60F403840E6
:101E7000A8F818001AE02D20394660F30911A8F8D7
:101E8000181013E0B8F810704FF6FF310F40A8F8A3
:101E9000107028B14FF60F403840A8F8100005E048
:101EA0002D20394660F30911A8F810100020707435
:101EB0004746786800281EBF018899420746F8D136
:101EC0004AE0308CA8B100217184716206F12C00C7
:101ED0004378017803F0F00301F0F00143F00103CF
:101EE0000170437006F120005060517B01F0F00159
:101EF000517369464046FEF740FA6846FEF74BFAD2
:101F0000E8690028FCD00021E9610FF2E102607B62
:101F1000626030B100F0C6FF0028FBD000F0D3FFB4
:101F200010E0DFF88C190A6813680120984701282F
:101F300008D0787B00F0F00040F0010078730FF2D9
:101F40004D0060600021E961C5F800804146012034
:101F5000FFF713FEBDE8FF817A60787B00F0F000A8
:101F6000787360690028ACD0C068008840F603012F
:101F700088421CBF40F604039842A2D1002060634F
:101F8000B7E700009417002068130020DFF8240949
:101F9000014200D17047DFF81819012010B50A6816
:101FA000DFF8144913689847012808D10FF23D0063
:101FB000C24A606000218948C161026010BDD449F5
:101FC0000A683220B0FBF2F104F1DC00BDE81040F9
:101FD000FFF7DFB968110020B01A00204021084047
:101FE0000000044008100440C81300202DE9FC47FD
:101FF00004460E467004DFF8C0782BD5FEF75FF874
:10200000BD6A15B3D5E90A2302F00A0413F0E041D2
:1020100008BF002C19D1D5E90A48D5E90A23A24303
:1020200023EA0803C5E90A23FEF762F8A86870B13D
:10203000B8F1000F08BF002C09D0B5F93C10286991
:102040002246AC684346A04701E0FEF751F826F46B
:102050008046B6E0B00051D5DFF8B8A2FEF72FF801
:10206000DAF854100A6880460420904700281CBF04
:10207000207C002822D0786B00B38146DAF800007B
:10208000E568016B8847814531BFA0EB0909401E17
:10209000A0EB090000F101094FEA1930A842E06005
:1020A00002D205446D08E56040F2D171E068A0F508
:1020B000FA70884224BF40F6C410E0604046FEF744
:1020C00017F8FFF743FC78B1D4F8188000224FF0DE
:1020D00000736FF480712046C047786910B1FFF734
:1020E000BAFB01E046F002062046646900224FF088
:1020F00080630021A04726F0005662E0B00707D5B4
:10210000FFF794FDF86900285BD126F0020658E03D
:10211000300756D5397C08074FD4397C08064CD493
:102120006846FFF74AFB10B10098002845D0DFF859
:102130008C1791F8610000283FD10024E0B2FFF72E
:10214000BEF900281CBF817A002908D001228272C2
:1021500090F9090002FA00F1C8B2FFF718FB641CFD
:10216000022CEBD90320387007F58070FEF71DF8BC
:10217000FFF7A8FA00210220FFF7FFFC022000F081
:102180009EFC112000F0B1FC787C18B9386B383017
:10219000FEF7B5F9DFF8FC14887810B90E2000F0CE
:1021A000A4FC787B20B100217973052000F087FC26
:1021B000DFF80C07786000213970FFF74CFB26F040
:1021C000080626B1314607F13C00FEF740F8BDE8AD
:1021D000F3870000201800200100040600100440CE
:1021E00038B584B000F0D0FBDFF8D806DFF8A4548F
:1021F0000168DFF8C44641F0020101606846FDF75E
:10220000F2FF6878DFF8C01602906A4604F13C00DD
:10221000FDF7F1FF6A46DFF8B41604F18C00FDF714
:10222000EAFF6846FDF75CFF2878DFF8A4260190F6
:102230006B46192104F17000FDF71FFF6B46DFF8B4
:1022400094261A2104F1C000FDF717FF0023002295
:10225000DFF8841604F1DC00FDF76FFF0023002295
:10226000DFF8781604F58070FDF767FF0023DFF8CC
:102270007026042104F5927000F00FFCA878012864
:1022800004BF0E2000F095FC04F11C00FEF79BF843
:1022900004F11400FEF797F800202070A081A060E0
:1022A0000721DFF8182682F8601005216063A1631A
:1022B000207405B0DFF80816616030BDCC1800202E
:1022C0002DE9F041DFF8F0556C699046002600E0FA
:1022D0002468CCB18C42FBD1B4B1276800224FF006
:1022E00080532046FFF73BF8214605F11400FEF726
:1022F0009DF8214605F11C00FEF782F8761C5FEA86
:10230000080018BF3C46E7D13046BDE8F081000028
:10231000B01A00208C0100102DE9FC4E82461646B2
:1023200003273000ADF800101D4614BF4FF0804960
:102330004FF00059FDF7C3FE8346BDF90000DFF8FA
:10234000784510F1010F05D1606A00280CBF606963
:10235000606A02E00021FEF7EBFF40B390F83F1007
:102360000A0623D5616A884212D100224B46FEF745
:10237000F6FF002E14BFDFF86C05DFF86C05FDF7E3
:1023800092FF8DB161692A465046FFF799FF0BE035
:1023900001462A465046FFF793FF38B120780128BE
:1023A00002D00221FFF78AF9832700E0042758466C
:1023B000FDF79EFE3846BDE8F68E10B50C46DFF8F8
:1023C000F8140A78022A0BD1FDF76DFF04B12060E2
:1023D00000F0FF00012801D1812010BD022010BDB6
:1023E000012010BDF8B504460D461646FDF767FE00
:1023F0000746DFF8C404016B8C4218BF032404D1E4
:1024000031462846FFF7D9FF04463846FDF770FEEF
:102410002046F2BD00000460F0B50746DFF8CC04AA
:1024200087B00E001546006818BF002D1C4649D025
:102430003178C840C20745D500212846FDF76BFF1B
:102440007E60BD60FDF73BFEDFF86C540646687C9D
:10245000002835D1FFF7C4FE687C401C687400F08A
:1024600039F834B968460FF2AC411C22FEF776F811
:102470006C46206838600120218A7874798260680F
:10248000002812BF002140F6C41001213974F86001
:10249000DFF85C14E0680A4600B10146B961A06843
:1024A00000B102467A61582107F12000FEF7A2F838
:1024B000002107F13800FDF7ECFF2F63384602E0FA
:1024C00000F008F8002007B0F0BD000020000E006A
:1024D0000C1004403046FDF70BBEF8B5FDF7EFFDDC
:1024E000DFF8D4130A78022A05D1DFF808140C6843
:1024F000FDF7FEFD18E0FDF7FBFDDFF8FC03DFF85C
:10250000FC4301680A6B904710F5003041F100016F
:10251000A4FB0067DFF8E82304FB017711690020C2
:10252000341847EB01052C462046F2BD2DE9FE4F3D
:1025300081460E4693469A46FDF7C1FD80466FF0F0
:1025400001040020DFF8BC1301EB801191F83F304B
:102550001A0603D5401C0828F4D341E0DDE90C45F8
:1025600001960091DFF8506306F58070FDF71DFEBF
:10257000B08D401CC0F30B00B0850098019900F1AC
:10258000080779602021009800F13E02DFF8780307
:1025900082F800B0C7F800A02040B38DBB86C7F812
:1025A0000890294040F00200C7E904010023002000
:1025B000C7E90600FB62B8624FF0FF313963802043
:1025C000507089F8703006F114000099FDF718FF7B
:1025D00070690099884208BFFFF73DF9B7F93440A8
:1025E0004046FDF785FD2046BDE8FE8F0000000057
:1025F000943004402DE9F04107460E463000144661
:102600001D4601D5002010E0FDF716FE8046802112
:102610003046FEF78DFE060003D096F83F00010617
:1026200005D44046FDF715FE022000212FE0D6E933
:10263000080144F00A0445F0E0452040294008BF65
:1026400000280FD04046FDF704FED6E908012040DF
:102650002940C7E91A01D6E9082382438B43C6E91A
:10266000082312E0B168DFF8A402814202D0B36807
:102670003B66B060C7E916454046FDF7EAFD4FF0FE
:10268000FF3107F13800FDF731FFD7E91A01BDE846
:10269000F081000054840100DCB5DDE90667CDE976
:1026A00000670446FFF742FF0146204602B0BDE83E
:1026B000D0400A224FF0E0439CE72846BDE8324074
:1026C000FDF716BD9F1A0000530803F0010300E058
:1026D000012302F001021FE60FF238211C22FDF750
:1026E0003DBF00E000BF00227CE680B56A46DFF80F
:1026F0002012FFF777FE812803D100980002001610
:1027000002BD6FF07F0002BD70B50E461546FDF7A5
:10271000D6FC8324684A1EB1022E0DD007D312E0E6
:10272000516A11B1516A8A8F04E080240CE0634938
:1027300091F860202A8007E0117802290CBF01215E
:102740000021297000E00324FDF7D2FC204670BD73
:102750000200004080B508468021FEF7E9FD00B187
:10276000C06802BDE0B500F005F80121FFE7FEF703
:10277000F6FE0EBD0192009191F904300A6870478F
:10278000F8B505460C46FDF79AFC0746E0B2FEF7A1
:1027900096FE802604001CBFA07A00281BD0464964
:1027A0000878022811D194F90910491D0906090C6D
:1027B00041F08161002241F001012846FFF712FE3D
:1027C00006462046FEF742FE05E02046FEF73EFEA6
:1027D000FFF741F881263846FDF78AFC3046F2BD06
:1027E00000000000D0210840510007062DE9F84301
:1027F0000546894616468324FDF761FCB9F1080FAA
:1028000080462D4F48D8DFE809F005080E4711141F
:10281000202F4200306828603FE001216974E86899
:102820006030E86039E03068688236E03168B9636A
:1028300033E0306818B98020FEF79DFF2DE00128B5
:102840002AD18020FEF7A3FF27E03878002804BFB4
:102850007869002819D131681920FDF73FFC3168EB
:102860001A20FDF73BFC18E03878002804BF78698F
:1028700000280AD1316807F13C00FDF7ECFC316813
:1028800007F18C00FDF7E7FC07E0002405E0307855
:102890000A4981F8600000E003244046FDF728FC67
:1028A0002046BDE8F28300000100070601010E0486
:1028B000E00100100400002094170020681300209D
:1028C000F11C000000200940A71B0000E7190000D0
:1028D000D91B000081190000BD1B0000111B000066
:1028E000791600000100020401000104D42108400F
:1028F000A51B0000043004408C01001000093D00BD
:10290000CC18002068110020FFEFFF9F291B00005A
:1029100001000304FFFFFFFF0000000000000000B3
:10292000000000003A01000000000000000000006C
:1029300070B5DFF83847DFF838072568EE68002300
:1029400001223421B04700B10120C0B270BDDFF8D0
:1029500024078068704702460020022904D1012A1A
:1029600006D140F2EE207047012A08BF4FF47A707A
:102970007047DFF8001791F8E60020B1D1F8100198
:10298000002818BF004770472DE9FE43DFF8E486B2
:1029900008F1E106B07900287CD1DFF8DC16DFF819
:1029A000DC760868DFF8D856DFF8D896800900F0A2
:1029B0000100F0710120B071F87C7071684679688F
:1029C000C8F81011FDF7E8FB0021019100220291E7
:1029D0008DF800206B460FF2F54108F10C00FDF771
:1029E000ACFB6B4600220FF2C55108F13000FDF739
:1029F000A4FB6B4600220FF2095108F15400FDF7C9
:102A00009CFBB96801208847DFF87C06027868687B
:102A1000C0F38154387D20B1032C02D101203070E5
:102A200003E0032C18BF022C0DD1022000F0ACF8FB
:102A3000032CD9F800100CBF4FF47A7042F21070DA
:102A4000B0FBF1F118E0012C02D100F040FA1BE0DC
:102A5000D4B9022000F098F800F082FA98470128D3
:102A600003D1002000F033FA0EE0D9F80000322143
:102A7000B1FBF0F1B1FBF0F108F15400FDF791FB6F
:102A800008F15400FDF78FFB286840075CBF002069
:102A900000F07AF80020BDE8FE8338B5002408B1C4
:102AA000150002D16FF0020407E08160C26003618B
:102AB0000146DFF8C005FDF7A3FC204632BD10B586
:102AC0000446FDF7FCFADFF8AC150A1992F8E93074
:102AD0005B1E82F8E930DBB233B98A68012303FA5E
:102AE00004F422EA04048C605FE0F8B50546FDF7C3
:102AF000E6FA0446DFF87C15481990F8F020521EDB
:102B000080F8F020D2B27ABBDFF88005DFF880755C
:102B100000EB850210F825505688280615D539682F
:102B20000A6A3046904739688A6A30469047396861
:102B30000A6B30469047DFF85C15DFF85C25012012
:102B4000086010688007FCD507E06A0611D501EB24
:102B500086010020D1F80421904705F03F05132D90
:102B6000BCBF2846FFF7C1FF2046FDF7C1FA002091
:102B7000F2BD39688A693046904739684A6B3046F9
:102B800090470228F9D1E8E710B50446FDF797FA17
:102B9000DFF8E0148A680123A3401A438A602144C5
:102BA00091F8E920521C81F8E920FDF7A1FA0020F4
:102BB00010BD2DE9F0410646FDF781FA0446DFF825
:102BC000B454A81990F8F0104A1C80F8F02081BB8A
:102BD000DFF8B88418F8260000F03F001328B8BFCB
:102BE000FFF7E7FF08EB8600478818F82600DFF8B4
:102BF000A064010615D53268D16938468847326825
:102C0000516A384688473268D16A38468847DFF8C3
:102C10008424DFF884140120106008688007FCD544
:102C200007E041060BD505EB87020120D2F804111D
:102C300088472046FDF75CFA0020BDE8F081316846
:102C40004A693846904731684A6B384690470128B0
:102C5000F9D1EEE72DE9FE4F0746DFF81C04DFF857
:102C600014940168002600244A06A24609F1DC05F6
:102C700004D5297B11B9202000F079F9012F18BF64
:102C80006FF0010857D12868012852D1022129602C
:102C900000F08BFA012000F06AF95FEA00084BD1DE
:102CA000FDF7CAFADFF8F813DFF8E47301900C605F
:102CB0000120B96A0A689047012803D1002000F07A
:102CC000A9F90124DFF8DC13DFF8D0230E6009F145
:102CD000FF011368887808B14FF0010A487808B1FD
:102CE0004AF0020A087808B14AF0040AE87F20B1E5
:102CF00039680A6B4FF480609047A87F20B139682B
:102D00000A6B4FF481609047DFF88813DFF898B3BF
:102D1000012008604AF020003A6891698847DFF88E
:102D20008C230120106099F80800C10709D50126FD
:102D30001BE06FF004087CE00120286000F03EFA00
:102D400077E0396A8A68584690470428F9D0012804
:102D5000009004D13A6A5368032158469847DFF837
:102D600050030168890889000160002000F046FADC
:102D7000DFF82893D9F8000039688A6B90476EB95C
:102D80000098012804D13A6A5368012158469847AF
:102D9000DFF81C03016841F0030101600120DFF846
:102DA0000413086050463A6853699847E87F20B199
:102DB0003968CA6A4FF480609047A87F20B13968AB
:102DC000CA6A4FF481609047B249B84B012008604D
:102DD00000221A600320286039684A6B50469047E9
:102DE0000128F9D1D9F80000042000F0C0F8064607
:102DF000AB4901200860D9F800209F48006881068F
:102E0000FBD514B1012000F005F900F051FB0820BA
:102E100000F0ADF80643012028600198FDF719FA8B
:102E20009648008A00F0C3FA00F0C8F90EB14FF0DE
:102E3000FF384046BDE8FE8F38B50446FDF73FF940
:102E4000054621468B48FDF7F1FA2846BDE8324099
:102E5000FDF74EB93EB50024012804D020D3032845
:102E60001CD017D31CE06846FDF796F9814D9149B7
:102E700001948DF8004002946B46012205F1780020
:102E8000FDF75BF900238C4A2C2105F19C00FDF72E
:102E9000F4F805E000F028FB044601E000F0E4FB54
:102EA00020463EBD38B5FDF70AF97249054691F84E
:102EB000E000012410B1FFF73BFD04462846FDF772
:102EC00017F9204632BD002070E000007047F8B5C9
:102ED0000326664C664D00961C23266877684FF0E3
:102EE000405200212846B847012000902846246817
:102EF000656809234FF400720021A847F1BD000066
:102F000010B500F02DF89847022818BF032805D106
:102F1000FFF7DDFFBDE810400220D0E5012802D117
:102F2000BDE81040D3E765480168C1F3815003282C
:102F300008BF4FF47A7004D002280CBF41F28830E9
:102F4000322050494B4C0A68B0FBF2F104F15400B6
:102F5000FDF727F904F15400BDE81040FDF723B94F
:102F600057490A681368042070470020704738B535
:102F70000546404804685CB1A068284205D0226933
:102F8000E36800212846984720B92468002CF3D133
:102F9000002032BD4FF0FF3032BD4A49012807BF43
:102FA0000720086000220A600020704770B5FDF716
:102FB00086F8304D314E044695F8E00050B1287A3D
:102FC000410613D4FFF7B4FC80B100F0E2FC00200E
:102FD00085F8E0000220B568A84706461020FFF7F4
:102FE000C6FF012E11D10320A8470EE025490A682B
:102FF0003220B0FBF2F101B9012105F13000FDF7FB
:10300000D0F805F13000FDF7CEF82046BDE870405D
:10301000FDF76EB838B5012823D129490A6813682D
:10302000984701281DD000F0A7FC124D297A0120F5
:1030300085F8E000880616D4124A10683221B1FBE8
:10304000F0F404B9012405F13000FDF7AEF8214693
:1030500005F13000FDF7A5F805F13000FDF7A3F804
:1030600001E000F0BDFC002032BD0000A401001012
:1030700000A00C4034070020141009403C840100DB
:10308000B03F0050B01A002091230020DC9C0100CA
:10309000B801001028200860282008402C20094092
:1030A0000C400940000222430040034080010443D9
:1030B00024220840B937000045350000B43F0050D5
:1030C000E001001000000460DFF800F031BF0110E3
:1030D000DFF800F0F5B7011030BF7047FCE738B5F6
:1030E00000F0E2F900F092F9FFF731FC054605F037
:1030F0000C000C2853D0680729D400F0FDFC0446CE
:1031000001210120FFF727FC314A116801FB04F37C
:1031100098421CD2F025B5FBF1F1641A2D49887C48
:1031200018B1C868A04238BF04462B4D214605F1AE
:103130000C00FCF7E7FF05F10C00FCF7E7FF0120AE
:10314000FFF788FD05F10C00FCF7D8FF29E0280700
:1031500025D4224C2248216A8A6890470428F8D056
:10316000EA06204900D420B9086840F00100086050
:1031700003E00A68520852000A601B481B4D0168B0
:1031800041F0030101602020226891698847286886
:1031900021688A6B904701202860296801E0FFF7C9
:1031A0009DFFBDE8314000F083B910B5104CFFF72A
:1031B0008BFF2060FDF700F8606010BD10B50C4C6F
:1031C0006068FCF7FDFF2068BDE81040FFF780BF96
:1031D000A8FC01003C84010034070020B801001065
:1031E000004003408C210840242208402C20094044
:1031F000F41900201628A8BF203870472DE9F84F91
:1032000080469948DFF864920168994E8A0705D58F
:103210000820B0719749C9F80010C6E096480268C6
:1032200011688847009000279448046825176D1C92
:10323000A00209D40098C0F13E00C0100828C8BF01
:103240000820A842A8BF05468D480168C1F3046064
:10325000FFF7D0FF82468B480168C1F30440FFF7B7
:10326000C9FF5544152D0246C8BF152504DC6FF073
:1032700009008542B8BF054605F01F008249834B0F
:1032800040F4F85008801868009910F0030F18BF38
:103290000127400748BF47F002075FEA080096F998
:1032A000070018BF47F00407091A042902DCB079A7
:1032B000874260D0009B0F3B4FF0000CE04607F0C8
:1032C000010007F00401DFF8C8E127D403EB031382
:1032D0004FEA2328B8F1070F88BF4FF00708C4460C
:1032E000BCF1070F0EF1040A28BF4FF0060C5AF884
:1032F0002CB05EF82CA0ABEB0A0A0AF0FF0C19B157
:10330000E346CAF3072CDC445FEA877B03D5E34638
:10331000CAF3074CDC4408B10CEB1A6C5EF828E0E9
:103320000EF0FF0A11B1CEF307218A44B90744BF5A
:10333000CEF307418A4408B10AEB1E6A551BA3EB82
:10334000082303FB0CF38033002DD8BF0125342064
:1033500004F0FF0445430AEB13216C43B4FBF1F086
:103360004FF6FF71884288BF0846B080B771009859
:1033700000F30700F07147480168B0883160002110
:103380001F2804D21F20B08004E04008491CB0F57B
:10339000007FFAD20F38000941EAC0013E480143DC
:1033A000C9F800100021C9F80410BDE8F18F38B544
:1033B00005463A480468A4B23CB32F4801680A683D
:1033C00090472B4991F90720904205DA6FF07F0270
:1033D0009042B8BF1046C871A542888834BF651BAB
:1033E0000125854210D32B4A13680A689A1A921C49
:1033F0001F2A88BF1F222D1A5208D5402D18B5F557
:10340000803F28BF4FF6FF758D8031BD244800688E
:10341000002800D1704730B522498A6802F0406325
:10342000B3F1406F1FD0104B1C68A5071BD44C682C
:10343000A50718D41C680968C1F303511C310901A0
:1034400014F0050F04D088420DD224F0050409E0E1
:10345000814208D2100158BF44F00104500158BF06
:1034600044F004041C6030BD0000094030100940E5
:10347000C81A0020FDFDA400EC010010B43F00506C
:10348000B81200503C1100506E62084024220840DF
:103490009C1300500820094000E7A4803410094024
:1034A00028500940AC3F0050EFF3108072B67047CF
:1034B000EFF3108062B670470138FDD17047704756
:1034C00010B50C18FFF7F0FF411E8941C90FDFF856
:1034D000642410680028FCD024680120106009B121
:1034E000FFF7E6FF204610BD38B5DFF84C542878CA
:1034F0000024002802BFDFF84414487D00281FD0B4
:10350000FCF7DDFDA978002906BF0122AA7001247D
:10351000FCF7EEFDA4B90220FFF736FB0E20FFF703
:1035200048FBDFF81C14086808B1012032BDDFF841
:1035300014044022C26002600120C8610021697049
:10354000002032BD2DE9FC41DFF8F81300200860AF
:10355000DFF8F41301F1D804A07A002843D0012841
:10356000DFF8E853DFF8E82331D1DFF8E813166815
:103570004BF2F52046430868360AC0F38140012823
:103580000BD1A86C0168884700F042FA00F05BFAA2
:103590003509C010454306EBE536607B10B10021CC
:1035A000617306E0DFF8B003006820F07F40361852
:1035B0007608DFF8A803DFF8842306600121360CC3
:1035C00046608160507D002849D005210AE002282C
:1035D0000AD11568284600F012F9A5F2FF55032D0F
:1035E0003DD3082121733CE003283AD1106801F152
:1035F000B806A0F5C0603168F061002948BF4942B3
:10360000002848BF40428142A8BF002026DA7068E7
:10361000D34F80B200900823D5F800C0DCF80480B6
:103620004FF47F4230213846C047B06880B20090E6
:103630001223D5F800C0DCF804804FF4F80204210E
:103640003846C047B06980B200900A232D686E6882
:103650004FF4406220213846B047012020700B20F3
:103660002073BDE8F34100BF2DE9F843DFF8D882AD
:10367000BC4EDFF8EC92BC4CBC4FB24808F1E105FF
:10368000E9784A1E0B2A00F28D80DFE802F006304E
:1036900041596E41596E4159757B31680A68202045
:1036A00090470F20E06041F61D51216102200090FB
:1036B0000723D6F804C0DCF804404FF4C0720021A0
:1036C0004846A04776684846D6F80C9007234FF442
:1036D000C0720021C847012038600221E97008F15A
:1036E0007800BDE8F243FCF75EBDBDE8F18301213F
:1036F000E161287800281DBF0021396103200620E0
:10370000E870002103202060796078688107E6D4A2
:10371000E878032806D10221009100F044F8C84758
:10372000042009E00020009000F03DF8C847E87848
:1037300006280CBF07200A20E87001207860CEE739
:10374000042903D12021A161012105E001220A29D8
:10375000A2610CBF032102216970082200212160AF
:10376000C260026001202060BFE705290CBF06206F
:103770000920E8700020E1E70020386078600C2222
:10378000EA70ACE70021016001206D4A10600E2054
:10379000FFF7ABF90220FFF792F901200021E87052
:1037A000A970A2E7FEE748467668D6F8049005239C
:1037B000602200217047000063496C4891F8E420C2
:1037C000921E0A2A1AD8DFE802F0060A0E190A0E1B
:1037D000190A0E19120001688A07FCD544E74168EE
:1037E0008A07FCD4FAE741688A07FCD5F6E7016846
:1037F0008A07FCD441688A07FCD4EFE7FEE7F8B5F6
:103800000446574D30212846FFF75AFE4E4F07F128
:10381000B806C0F30720706004212846FFF750FE69
:10382000C0F38440B06020212846FFF749FEC0F372
:103830008120B4F5C064B061346003D1002087F802
:10384000D800F1BD316997F8D80028B97068B2691D
:10385000B168F0607261F461F06900284CBF6FF0EC
:103860000102022200EB40001018421000EB92709F
:1038700001EBA0017268F260002914DC7069032872
:1038800007D1012015318842A8BF012100227261B1
:103890001EE001200B318842A8BF0121521E48BF03
:1038A0000022F26007E01E2912DD706928B915397F
:1038B0001E29C8BF1E21032009E00B391E29C8BFDD
:1038C0001E21521C3F2AC8BF3F22F26000207061B7
:1038D0001E4CF068316180B2009008232768D7F849
:1038E00004C04FF47F4230212846E0470120009079
:1038F00011232768D7F804C04FF40032042128466A
:10390000E047306980B2009012232768D7F804C0DE
:103910004FF4F80204212846E047706980B2009015
:103920002846246865680A234FF440622021A8478E
:10393000F1BD000000800C40150800203C8401000F
:1039400004800C402C500C4034070020A4010010CF
:1039500008400C40B43F0050102009403C600C402F
:1039600000A00C40A001001000400C4034600C404E
:103970003848006800F0D8B810B5384C626D53680C
:103980000121032098472068C16A8847344A906023
:1039900010BD70B5314C616D0A6801209047012857
:1039A0001CD0A5692C48EE68002301223421B047C1
:1039B000A8B1FFF7DDFF2068C16A8847284B9A68E5
:1039C00028491C68D860A4EB9404801A4843000C72
:1039D00018601A68944238BF14461C60012070BDFC
:1039E00038B51E4C626D5368002103209847616D05
:1039F0000A680120904708B1FFF7BAFF2068184D08
:103A0000C16A88476860206E01688847286131BDB7
:103A100010B501461448154B02681B6810040016C7
:103A20001B394843C01000EB2240120601FB01F491
:103A300012161B06624361431B1600EBA22059437A
:103A400000EBA14010BD00FB00F1C0EBA15000B2A3
:103A5000704700008000001000A00C408C01001096
:103A6000B41A002040420F0090130050A4100050E0
:103A70004018491C1CBFB1F1010100F8012DF9D11A
:103A800070470018DFF800F079BB011000E006E095
:103A9000EFF31180202181F311887047000080F33B
:103AA00011887047FFF7EEBFF2E7F8E7F0E7F6E7B7
:103AB0000D49C20744BF01230B60820744BF4FF486
:103AC00080730B60400744BF4FF480320A60704738
:103AD00010B5064AC30748BF1160840748BF51604C
:103AE000400748BF916010BD0420094018200940DC
:103AF000DFF800F0E1BE011070B5FFF7C7FF094E17
:103B00000446B0680021FFF7F3FF05467069B1690C
:103B1000451BA94238BF00252046FFF7B8FF2846BD
:103B200070BD00BF7801002070B50446FFF7BCFCF3
:103B3000451EAD41ED0F064E30680028FCD0A04771
:103B4000012131601DB1BDE87040FFF7B1BC70BD0F
:103B500000800C40DFF800F021C00110DFF800F019
:103B6000F99B0110DFF800F019AE0110DFF800F04A
:103B700089840110DFF800F00584011000B58FB0D2
:103B800008233C2200216846FFF7E4FFDFF8F80C29
:103B900000F150014FF480620123079108920693CF
:103BA0006A4600230FF29D11FFF7DCFF0FB000BD46
:103BB0003EB5DFF8D84C04F1300104F1200001F0EB
:103BC0001CFD04F1400002F03EF8606300214FF656
:103BD000FF7020802082E160E161DFF8AC0BDFF84C
:103BE000AC5B02F0A3F800BF47A0DFF8A41B009075
:103BF0001523002200F09CFFDFF8981B102001F035
:103C000063FF00F099F80246DFF8841C00F00AFB1D
:103C10004FF0FF32DFF87C1C00F004FB4FF0FF3266
:103C2000DFF8741C00F0FEFA00F086F80246DFF8B8
:103C30006C1C00F0F7FA00228DF806208DF80520A4
:103C4000022101220DF107008DF807108DF80420E4
:103C5000009001234FF4806201F001F80DF106009D
:103C60000090012340F2024200F0F9FF0DF105003F
:103C70000090012340F2034200F0F1FF01A8009000
:103C8000012340F2064200F0EAFF04F17802DFF877
:103C9000781CDFF8B45C00F0C5FA00230022DFF8DE
:103CA0006C1C00F0E8FC00F047F80246DFF89C1CB2
:103CB00000F0B8FA00F040F80021022201910092D1
:103CC00003460822DFF8A01C00F032FF00214FF06D
:103CD000FF3002F08BF8E0626FF078420021284656
:103CE00002F02CF9E06ADFF8843C04224FEA050177
:103CF00002F0C2F8DFF89C0C09A30178E06A002208
:103D000002F0A8F837BD000053696D706C65204360
:103D1000656E7472616C000000000000000000001D
:103D20003D3D3D3D3D3D3D3D3D3D3D3D3D3D3D3DC3
:103D30003D3D3D3D0000000094F82010502001F072
:103D4000AABE00003EB5FFF733FFDFF8405B286BEB
:103D50004FF0FF334FF040420021FFF7FFFE040019
:103D6000F5D00020019001AA69460DF1020001F092
:103D70007FFCD0B9BDF802100120102902BF9DF8C8
:103D8000001095F82020914208D101990A884FF639
:103D9000FF739A421CBF084600F014F801990029ED
:103DA0001EBF0028084601F04EFC6000CFD5686BAE
:103DB00001F06AFF0400CAD000F0CEF8204601F0FE
:103DC000D5FCF4E77CB50178912909D0B02904D05D
:103DD000D02901D100F029FA76E000F0F3FB73E07E
:103DE0004178DFF8A84ADFF8AC5B0E2906D00F292E
:103DF0001DD0102916D03E293DD065E0828841F2C1
:103E000005418A4260D1806890F9036041788078EA
:103E100001EB002188B200F0ABFD0196CDF8000067
:103E20002AA34AE00021082002F07CF94CE08288B5
:103E3000E46A2978DFF8F43C40F20646B24243D007
:103E400042F23206B2420DD18078491C1A2805D1BF
:103E50000022C9B2204601F0FDFF35E000900022AB
:103E60001EA305E0807801900092C91C3033002227
:103E7000C9B2204626E081780C2925D1C17829B124
:103E8000808800F075FD00901BA316E0C179012920
:103E900008BF0FF27C060AD0022908BF0FF278068D
:103EA00005D003290CBF0FF278060FF27C0680883C
:103EB00000F05EFD0196009021A32978E06A891C3C
:103EC0000022C9B201F0C6FF012076BD25733A2059
:103ED000525353492025642064426D0050485920B4
:103EE000557064617465205374617475733A203041
:103EF000782530327800000025733A205048592048
:103F00006368616E6765206661696C757265000043
:103F100031204D627073000032204D6270730000DA
:103F2000434F444544000000556E657870656374E6
:103F30006564205048592056616C7565000000008A
:103F400025733A2050485920757064617465642067
:103F5000746F2025730000002DE9FC47DFF82C79F1
:103F6000DFF8E489DFF8D8ACDFF8284A0646318864
:103F7000F86A491E092915D8DFE811F00A0059002E
:103F800065001F00B500CB00DC00E100F40011016A
:103F9000B078010707D50D2002F059FB002801D1A8
:103FA00001F0E8FF05E1C006FCD50E2002F04FFB52
:103FB000002801D101F0FAFFFBE07568E88AA969E1
:103FC00002002ED00844421E00E00144914228D253
:103FD00011F8010B0028F9D00B78022B18BF032B26
:103FE000F3D1491C401EC0B2012840F3E880914241
:103FF00080F0E5800B78F02B07BF4B78FF2B891CF6
:10400000801EF0D16978A81C00F04FFCA81C01F0BC
:1040100049FE009000222178F86A0FF2AC1300F0FC
:10402000B6FAA869002801D001F0A0FBC1E0DFF8D2
:10403000142C042100F0AFFA2178F86A0FF29813DB
:1040400000F0ACFAB5E021789AF800500FF298131E
:104050000095C91C00F053FD4FF003090DB14FF05E
:104060000B099AF8010008B149F0200904224946D9
:1040700000F091FAB86B08B101F078FB284600F027
:1040800095FF0400BC6308BF0025DFF8BC7B78689F
:1040900065F3DF60002C7860D4D04FF00009DFF8C2
:1040A000B88C11E008F10100C9EBC901084401F026
:1040B000F9FD01460F222046FCF740FA07EBC90044
:1040C00009F10109C4600F34A945EBDBB9F1070F11
:1040D0006FDC012202FA09F20021384601F02EFFBE
:1040E00009F10109F2E70020786201208AF8020054
:1040F000398D081FADF80400502097F8201001F00A
:10410000CAFC009001AB7A8CDFF8CC1B00F0A8FD54
:104110004FE0B07800014FF6FF713C5A8C4248D016
:104120003844C06801F08BFD2246DFF8B01B00F078
:1041300079F83EE07168B07800F0C0FA39E075684F
:10414000DFF8187C697A29B194F800102CA3009745
:1041500000F0D4FC00970023EA88DFF8041C00F08C
:10416000E7FC26E0002002F007FB0546062207F1E7
:10417000700102F019FBE0B1284601F093FD0090B8
:1041800000222178F86A0FF2BC33891D00F000FA92
:104190000622294607F17000FCF7D0F909E02178E2
:1041A0001BA3891C00F0FBF9DFF87C1C102001F038
:1041B0008BFC706808B101F0D9FABDE8F3870128DB
:1041C00000D1491C02E70000446973636F76657291
:1041D00065643A2025730000446973636F766572E5
:1041E000696E672E2E2E0000256420646576696353
:1041F000657320646973636F76657265640000009F
:1042000050617373636F64653A2025640000000099
:10421000496E73756666696369656E74204D656D78
:104220006F727900102001F04FBC2DE9F84F044661
:1042300088B0A078DFF81087DFF80C9A0FF2DC2A3C
:10424000DFF8FC59DFF84466DFF8487770B10528DD
:1042500000F08C80062800F0CA80072800F0358125
:10426000112800F01681152871D052E100230FF2B9
:10427000FD72DFF8B81BDFF8B89B00F0FCF94FF4D3
:104280008602DFF8B01BFFF7CDFF4FF448700190B6
:10429000009000230122DFF8A01B00F049FC06205B
:1042A000ADF80A000DF10A03002200F021FC012004
:1042B0008DF8080002AB012200F01AFC01208DF8F5
:1042C000080002AB062200F013FC40F60200ADF835
:1042D0000A000DF10A03032200F00AFCA0883085D1
:1042E0000022032100F057F93978F06A0FF23C23DD
:1042F00000F054F900F05CF9A01D01F0D3FC01902E
:1043000085A000F050F90FF23023491D00F040F96C
:10431000002002F031FA0146062206F17000FCF797
:104320000DF906F1700001F0BDFC00F03CF90FF250
:104330001423891D00F02CF909200121019000911E
:1043400000F005FD06F14C0001F054FCE1E0687856
:104350000B2400B12B243978F06A0FF2F41300F02B
:104360001DF9E24322F0784221463DE06089211D9B
:1043700000F0CEFA00F002F906EB001200211172F3
:10438000B31C03EB001001F08DFC044600940022E6
:104390003978F06A0FF2D41300F0F9F800F008F958
:1043A00068784FF01C0A0128C8BF4FF01F0A00258B
:1043B00010E009F10C000F2250F83500214602F000
:1043C000F3F928B90122AA400021484601F0B6FDC0
:1043D0006D1CEDB2D9F80400B5EBD06FE9DB6FEAE4
:1043E0000A00524620F0784100F0D5F891E0A48808
:1043F000204600F043F931880020A1421FBF012070
:10440000318AA14202204FF0030B06D102014FF680
:10441000FF71B1526B78591E697000F0AFF8B11C92
:1044200001EB001001F03EFC019000F0BCF80FF62B
:10443000883300F0ACF800F0BBF8DDF804A00027EA
:1044400010E009F10C000F2250F83700514602F03D
:10445000ABF928B901210022B940484601F06EFDB0
:104460007F1CFFB2D9F80400B7EBD06FE9DB6878A6
:1044700008B14FF0230B6FEA0B0222F07842594645
:1044800000F089F8708C844243D1404601F03CFD35
:104490003FE0A088ADF800000122A17B8DF80A1052
:1044A000E088ADF802002089ADF804006089ADF81D
:1044B00006001020A189ADF808108DF80B206A467F
:1044C000DFF87C1A01F000FB23E0A288DFF8741A01
:1044D00002AB00F00EFBE0B9E07800280DF10A0015
:1044E0000AD101F0DFFBBDF81C200FF6E02300909D
:1044F0000A214A43019206E001F0D4FB01900FF635
:10450000E823A078009000223978F06A491C00F076
:104510003FF809B0BDE8F08F494400004E756D20AA
:10452000436F6E6E733A202564000000496E697413
:1045300069616C697A656400257320416464723A2C
:1045400020257300525020416464723A2025730084
:10455000436F6E6E6574696E6720617474656D700B
:10456000742063616E63656C6C656400436F6E6E8E
:10457000656374656420746F20257300012805DD70
:104580009DF80000401C8DF80000F9E77047C91C39
:10459000C9B201F05FBC404601F0D0BCC91C00228A
:1045A000C9B201F057BC009000223978F06A704718
:1045B0006878009053463978F06A091D0022C9B224
:1045C00001F048BC1CB5044601236288DFF8781965
:1045D00000F051F8002847D0DFF8B813AB4809784D
:1045E0006378C06A2279491C162B03D100920FF61A
:1045F000102331E00B2A0AD0012ADFF844360CD10F
:10460000227A0A2A16D1227B0FF6082323E0E268D9
:10461000137800930FF60C231EE0132A10D1DA78DA
:104620000FF62423009200F06AFADFF8200901F067
:104630006BFC19E0122A12D1227B0FF6FC13F1E772
:104640007E2A03D1227A0FF6142304E07F2A06D1B2
:1046500022890FF61823009200F051FA04E09878AE
:1046600010B1204600F098F8217904F10800BDE867
:104670001C40FFF77BBA102001F026BA38B500F0D5
:1046800067F9022800F0BDFA04EB0015E86808B9E4
:10469000122032BD01F0D5FAE868FBF73BFDE8686F
:1046A00001F064F80020BB49E86000220978E06A64
:1046B000891CC9B201F0C6FB002032BDF0B5B54E71
:1046C000724C0D46317887B00346491CAA78E06ADF
:1046D0001F0003D10FF6A41300224AE0012B39D1A9
:1046E000002A33D10FF6A413C9B201F0B3FB2A8814
:1046F000DFF8501801AB00F0FCF9002842D19DF81A
:104700000500022818BF03283CD10622002103A877
:1047100001F0F0FA002835D10DF1060001F0C2FADF
:10472000009000223178E06A0FF67013FFF72FFF38
:10473000288800F00DF900F089FAA31C06220DF17B
:10474000060103EB0010FBF7F9FE1BE000920FF6E9
:10475000601315E0022B07D112B90FF6681308E0B9
:1047600000920FF674130BE0032B0BD12AB90FF64E
:104770008013C9B201F06EFB04E000920FF68413BF
:1047800000F0BDF907B0F0BD0B4A000019FB0000B6
:10479000B5FB0100CD82010078B5DFF8A4643B4D84
:1047A0000446B078012887B013D12079032869D155
:1047B0000FF668100088ADF808000222B27000F011
:1047C0006FF802210190009102AB6288DFF8801738
:1047D0002EE0022832D1207907282CD1208950B12F
:1047E000E0680178427801EB0221A9848178C078E1
:1047F00001EB0021E98460781A2843D1A88C0028B5
:1048000040D00321B1700222E98CADF806108DF87A
:104810000820F1218DF80910ADF80400FF228DF871
:104820000A2000F03DF8009001AB6288DFF8241701
:1048300000F016FA26E0012824D1DFE7032821D171
:10484000207909281CD12089D0B1688C00F080F82B
:1048500000F0FCF9E16805F10803CA7800011A5478
:1048600000224C480FF6B8030178E86A491CC9B227
:1048700001F0F0FA00220321DFF8D00601F05EFB20
:104880000020B07008B070BD180B00205403002049
:10489000D9AF0100E5A90100A1AC010031810110EF
:1048A000502095F8201001F0F6B82DE9F047DFF818
:1048B00090532C78A246BAF1070F8146884621DC36
:1048C0000026DFF8947400E0761CF0B2A0420DD20E
:1048D0005FFA86FC7B1CCCEBCC0C062203EB0C01B4
:1048E000484601F061FF0028EED10BE0CAEBCA0A8E
:1048F000781C062249465044FBF720FE07F80A8040
:10490000641C2C70BDE8F08799AD01001D7E00008D
:1049100038B5DFF844361D8800244FF6FF72954203
:104920000BD12501062258532B44981CFBF706FE99
:10493000C3484178491C417004E01D8A0124954216
:10494000EFD00224204632BDDC0300205188011044
:10495000DFF804261388014600208B421FBF012088
:10496000128A8A4202207047194201003D4E00001F
:10497000DFF8E42513880021834204D102EB011102
:10498000881C01F08FB9138A01218342F6D00020E0
:1049900070470000A5160020F8B505460E461746DC
:1049A000042000F0E2FE04000CD02580A77022460F
:1049B0003146072000F042F820B12046BDE8F24021
:1049C00000F0D4BEF1BD2DE9F84381460E461746EE
:1049D0009846102000F0C9FE040014D0089DE6801F
:1049E00006224946FBF7AAFD277284F80980E56094
:1049F00022460021082000F021F820B12046BDE821
:104A0000F24300F0B3BEBDE8F1830146002201206D
:104A100014E0014680B5C0B2062802D0092804D0AF
:104A200001BD09040022090E06E0DFF8300501F09F
:104A300006F9002200210920BDE8084070B50446AF
:104A40000D461646082000F090FE68B1048085707F
:104A500046600246DFF80035196B586B01F0FAF832
:104A6000401E8041C00F70BD132070BD10B50C46B4
:104A700041020BD5042022460021FFF7DFFF20B1C1
:104A80002046BDE8104000F071BE10BDC10348BF14
:104A90000220F0D4810348BF0320ECD40028F4D5D1
:104AA0000A20E8E71CB5040007BF01218DF80410B7
:104AB00004228DF8042001AB0122DFF8741300F00A
:104AC00018F8DFF89C140FF26C6301EBC400DFF8F8
:104AD0008844C268DFF88C040178E06A0092C91C3F
:104AE00000F00DF8DFF8800401F00EFA012016BD89
:104AF0004946102000F0E8BF3178E06A491C0022E6
:104B0000C9B201F0A7B980B54D4900200022087054
:104B100000926423DFF8541400F00AF8494ADFF8E1
:104B20004804042101F00AFA012002BD589801004E
:104B3000102000F0C9BF80B5BB492AE03EB5002275
:104B4000019201240094C0EBC0008349DFF80854AF
:104B50000A5C0C18631C02F00102DFF81414DFF881
:104B60000844FFF7E5FFDFF80C241021204601F090
:104B7000E5F9DFF8F0030FF2D4530178E86AFFF7A4
:104B80000DFD204601F0C0F901203EBD80B5DFF8E3
:104B9000E813102000F098FF012002BDF8B5074689
:104BA0000022022F00F02DF804EB071529886184FC
:104BB000287A20B900210520FFF740FF0322DFF803
:104BC000BC03DFF8886300EBC701CB683360E8689B
:104BD000002807BF42F00802042142F00402082125
:104BE000304601F0ABF9DFF87C030178E06AC91CBC
:104BF0000022C9B201F026F9304601F085F9012002
:104C0000F2BD05DB9DF80000401C8DF80000F9E7BF
:104C1000D14C70471CB5D04C608CFFF799FE00F06A
:104C200015F804EB0010017AADF8041000F058F804
:104C3000009001AB628CD24900F012F8012016BD41
:104C400087230020FBFFFF0734040020022805DB38
:104C50009DF80000401C8DF80000F9E770472946D8
:104C6000102000F031BF30B50FF2F04185B005469D
:104C700004A80C6804600023B74C608C0122122148
:104C8000FEF778FF029018B3608CFFF761FEFFF724
:104C9000DDFF04EB001104A80A7AADF8042001211D
:104CA000ADF806100022405DB649C8700299087040
:104CB000ADF80C2000F014F8009001AB628CB24902
:104CC000FFF7CEFFC0B218B1122101A8FEF74EFFC8
:104CD000012005B030BD000081A4010025AB00100B
:104CE000502094F8201000F0D6BE7CB59A4D974C19
:104CF0000122014602FA01F1688C04291BD1FFF759
:104D000027FE0646012EFFF73AFC05EB0615E8687C
:104D1000D8B9242000F029FDE860B0B101213602A5
:104D2000009146F00606019600F011F800F062FFCF
:104D30000422082104E0FFF7A1FC30B90822042175
:104D4000204601F0FBF8012076BD002076BD00234F
:104D500040F6B8328D4970476C16002040E20100E1
:104D60004DA40100F8B54FF4C8717B4C7D4E628CA8
:104D7000874F8AB04FF44875ADF80610ADF804209F
:104D80000021ADF80A10ADF8085004AB6D49FFF7EB
:104D9000B0FE58B9BDF82400B0F5167F1ABF4FF425
:104DA0001670ADF80C00ADF80C5007E00DF11200D4
:104DB00000F078FF00903B46FFF79EFE01AA754980
:104DC000102000F081FEBDF80C100A204143009134
:104DD00007F12C03FFF790FE01200BB0F0BD3EB5AC
:104DE00004466D485C4D005D6A8C01900021029183
:104DF000009000236949FFF79BFE69490FF2603379
:104E000001EBC400C26857480178E86A0092FFF7D6
:104E100075FE01203EBD80B54F486249428C132388
:104E2000FFF729FC012002BD09AA010091AE010093
:104E30007169010085840100559901002DE9F04751
:104E4000DFF86481444C41454FF001094FF6FF7A89
:104E500029D10025002618E000273801215A5145A4
:104E60000ED0A21C104400F01DFF014608EBC60046
:104E70000F22C06801F098FC10B909FA06F005434A
:104E80007F1C012FE9DD761CF6B2D8F80400B6EBE2
:104E9000D06FE1DB2A46ED4325F078414046BDE87E
:104EA000F04701F04BB8354EB14237D1E06B08B155
:104EB00000F05CFC3348407800F078F80500E563CA
:104EC00004D1706820F07840706036E0716802208C
:104ED00060F3DF6171600027380109FA07F8215A91
:104EE000514512D0A21C104400F0DCFE01460F22F6
:104EF0002846FBF723FB06EBC7000022C5604146AE
:104F0000304601F01BF80F3504E0424600213046E0
:104F100001F014F87F1C012FDEDD0EE01248814203
:104F20000BD11048A4F822A000220178E06ABDE865
:104F3000F047491CC9B200F085BFBDE8F08700000A
:104F4000990B0000ED7E0000B17F0110AC04002041
:104F5000A58F010029B0010054030020A003002008
:104F600018040020A5160020DC030020094E0100D3
:104F700019AF0100EFFFFF075D95010080040020DD
:104F80003FB001008723002043B00100134A000016
:104F9000AC98010099850100D40300204D960100D2
:104FA0001C05002025FD000034040020C0EB00108B
:104FB00080B200F0DABB00002573206973206469B9
:104FC00073636F6E6E656374656400005570646131
:104FD0007465643A2025732C20636F6E6E54696D7E
:104FE000656F75743A256400557064617465204678
:104FF00061696C656420307825683A20257300006B
:10500000415454205273702064726F707065642034
:105010002564000052656164204572726F7220251C
:105020006400000052656164207273703A20307829
:10503000253032780000000057726974652045728F
:10504000726F722025640000577269746520736561
:105050006E743A203078253032780000464320566E
:10506000696F6C617465643A202564004D54552065
:1050700053697A653A202564000000005061697226
:10508000696E67207374617274656400506169723F
:10509000696E67207375636365737300416464723E
:1050A00020757064617465643A2025730000000007
:1050B00050616972696E67206661696C3A20256487
:1050C00000000000456E6372797074696F6E207322
:1050D0007563636573730000456E637279707469FC
:1050E0006F6E206661696C65643A2025640000007B
:1050F000426F6E64207361766520737563636573B8
:1051000073000000426F6E642073617665206661F3
:10511000696C65643A20256400000000F0FF00001F
:1051200053696D706C652053766320466F756E64AD
:10513000000000005072696D617279205363616EE6
:10514000205048593A20257300000000436F6E6ECE
:10515000656374696E672E2E2E0000000055AAFF4D
:1051600050485920707265666572656E63653A20B5
:1051700025730000DFF800F02DB40110DFF800F017
:10518000CDAC0110DFF800F02DC00110DFF800F009
:1051900055A40110DFF800F0FDB1011020B1082383
:1051A0003C220021FEF7D6BC704780B5FBF704F81F
:1051B000ADF80000FAF742FFADF80200009802BD1A
:1051C00001B5BDF80200FAF73DFFBDF80000BDE8EB
:1051D0000240FAF7F5BF38B5DFF8C4492078012856
:1051E0002CD001212170DFF8BC29DFF8BC19890817
:1051F0008900521AA26161610A4602E0002342F866
:10520000043BA3695D18AA42F8D39B0801EB830213
:10521000002042F8040CE8230B60A069800880009D
:10522000EC38C1F8E800E831A160002000F007F890
:10523000E060A1696069A060091F216131BDF8B516
:1052400000240026051D15F003001CBF291D0D1AA2
:10525000FFF7ABFFDFF8482901465160112D34BF3D
:105260009368D3681868002803D580F000400026B2
:1052700019E0370013D02768D3F800C06744AF4265
:10528000276010D33846ECB1401B042811D360517D
:1052900045F00040206013695D1B156111E0A842D4
:1052A00014D201261C46034418680028DBD10024D0
:1052B00008E0136920681B1A1361226842F000425B
:1052C0002260241D00F04FFA2046F2BD1C46DAE7AA
:1052D00010B50446FFF769FFDFF8C418486054F8BA
:1052E000042C22F0004244F8042C0B69D2180A6105
:1052F000221F8B689A4238BF8A60BDE810405FE782
:105300002DE9F041FFF751FFDFF89418CA684860B3
:1053100000240025002600270AE00E460125144639
:1053200005E02B00F9D02368CB1823608E190A44BE
:105330001168B046BE4238BFB846002905D0F0D546
:1053400081F0004100254746F1E7FFF739FF40466D
:10535000BDE8F08110B50446DFF84408816921609A
:1053600000696060FFF7CCFF09282CBF08380020D7
:10537000A06010BDDFF828180A69121A40F22D1338
:105380009A4228BFFFF75BBF0020704780B5FFF748
:1053900022FF4BF6BE2002BD084650E7084697E7BD
:1053A00002B56846FFF7D6FF01BD0120704738B54A
:1053B0000446FFF7FAFE00220C23DFF8F0175343F0
:1053C000CD18A96C21B18C4206D0521C032AF3D30C
:1053D000FFF7F6FE002032BDFFF7F2FE05F14800B0
:1053E00032BD70B50546FFF7E0FE044600210C22F1
:1053F000DFF8B8074A438618B06C48B1854210D030
:10540000491C0329F3D32046FFF7DAFE002070BDC4
:105410003065B5640021FFF7ADFEF06408B901F016
:10542000D7F92046FFF7CCFE06F1480070BD38B52D
:105430000446FFF7BAFE0025DFF870270C21694308
:10544000515A21B18C4206D06D1C062DF6D3FFF7C0
:10545000B7FEFF2032BD1AE310B504462088FFF7DF
:10546000E6FFFF2802D14FF0FF3010BD0C21DFF81E
:105470003C2748431044816811B96FF0010010BD0A
:105480002046BDE81040084702460FF2447010471E
:1054900038B500200C21DFF814270024002501FB7B
:1054A00000F31344401C03289C641D65F7D30020BF
:1054B000002301FB00F4401C13530628F9D3BDE878
:1054C000314088E62DE9F8478FB081468846FDF7E0
:1054D000FBFD05460027DFF8D86647451FD2684622
:1054E000FFF75CFE09EB07114A6806928A6808928A
:1054F00000220B680493C868059069463046FFF7A0
:105500003DFE040011D0FFF750FE82462046FFF713
:1055100068FF50B15046FFF753FE7F1CDDE7284679
:10552000FDF7D6FD10B0BDE8F08701F051F900BFDE
:10553000F8B56846052141604FF47A728260DFF861
:105540007416DFF874260091C2600121FFF7BAFFDC
:1055500005B000BD38B504460D46FFF726FE002114
:1055600045F80C1C226812B9256006E00A4652F87C
:105570000C1C0029FAD142F80C5CBDE832401FE651
:1055800080B5FFF7FFFDFFF712FF10B96FF00400C1
:1055900002BD816809B9022002BD4068AFE006285B
:1055A0000ADA0C22DFF804365043185A00281CBFD0
:1055B0004FF6F872904202D14FF0FF3070470880EA
:1055C0000020704730B5DFF8F4552A680C464FF4D8
:1055D0007A71A1FB0001002301F0FEF8002902D836
:1055E000B0F1004F02D36FF0020030BD2060002008
:1055F00030BD0146886849680847F8B505460E463B
:10560000FFF7C0FDFFF7EDFE04000DD0FFF7CDFD65
:10561000014600220C27DFF8943557433B44188895
:1056200020B1521C062AF5D301F0D2F84FF6F870DB
:10563000002718805C609F602A706068306000F00E
:1056400092F80020F2BD0C3842E670B504461546CB
:105650001E460846FFF7EBFE0146FF2902D14FF038
:10566000FF3070BD33462A462046BDE8704080E0DA
:105670007CB50546164600F09EF8040010D1288837
:105680006946C0B2FFF78BFF28B13068FFF7DBFF38
:105690006FF0050076BDBDF800002880FFF770FFB1
:1056A000204676BD38B50546FFF76CFDFFF77FFE57
:1056B0000446FAF7C7FF002818BF012800D014B924
:1056C0006FF0040032BD65B900200090009B606857
:1056D0004FF000420021FEF741FA401E8041C00F0A
:1056E00032BD15F1010F08BF4FF0FF30EDD0694614
:1056F0002846FFF767FF0028E8D032BD80B54FF09D
:105700000041FFF743FD002002BD2DE9F8430546A7
:1057100000F09AF9FFF765FE04006FF0020920D04F
:10572000FFF743FD014600220C23DFF880045343BA
:105730000344188840B1854211D0521C062AF3D385
:1057400001F046F8BDE8F2831D805C609E603A700F
:105750006068C8F8000000F006F80020F2E700F0EA
:1057600002F84846EEE708462AE568E5B0E501E6B6
:10577000F0E52DE9F8430D46062DBCBF044606288A
:10578000164699466FF0020806DAFFF70EFD00F0A4
:1057900000FA19B9FFF714FD40460AE0FFF710FDC3
:1057A00000F0EDF9786840684FF00041FFF7EEFC3B
:1057B0000020BDE8F2832DE9F04106460F469046F1
:1057C000FFF7E0FCFFF7F3FD050008BF6FF00400F2
:1057D0001BD0FFF7EAFCA968002441B10C46A4F1F4
:1057E0000C0100230A68AA60FF250B608D72FFF789
:1057F000E7FC0CB9022008E0A4F10C00017931703B
:1058000040793870C8F800400020BDE8F08182B0CF
:1058100001208DF800009DF800000028FBD100F069
:10582000D7FF00BFFAF722BF50B5DFF890633268A8
:105830006FF00044A4FB020100234FF47A7200F0E1
:10584000CBFF002902D8B0F1004F00D3204650BD55
:105850007CB50C4615461E466946FFF7B3FE30B9C7
:10586000009833462A46214600F002F8002076BD13
:105870002DE9F0431D4689B02C6880460E46174638
:105880002CBB0C20FFF7DBFC04006FF0030918D0E1
:105890000823242200216846FAF72CFC0020ADF8EA
:1058A00010000590069400236A464146DFF8100375
:1058B000FFF770FC206030B9FFF7A9FF2046FFF723
:1058C00007FD484617E06660A7602C600BE0DFF834
:1058D000F4623068804705462068FAF70FFCA7603D
:1058E00028467168884720684146FAF70BFC206813
:1058F000FAF70CFC002009B0BDE8F08300281CBFBB
:105900000068FAF7FBBB7047E0B58DF80400684605
:1059100001F012F89DF805000EBDE0B50190684653
:1059200001F040F80EBDE0B50190684601F044F882
:105930000EBD2DE9F84384B0044600F085F8FFF76A
:1059400036FD054600200290FAF77CFE002818BFBD
:10595000012800D015B96FF0040072E044B90020AE
:105960000190FAF783FE814601980124814425E0E5
:1059700014F1010F08BF4FF0FF30F1D001A920460C
:10598000FFF720FE0028ECD05BE0039902A8FFF7A8
:10599000E1FD68684FF00051FFF7F8FB0198012422
:1059A00010F1010F18BF002808D0FAF75FFEB9EB1D
:1059B000000031D0019981422ED30190019B68688B
:1059C0004FF000520021FEF7C9F828B303AA694638
:1059D0000DF10100FFF7EFFE0400DFD19DF801009B
:1059E0000DF10201FFF7DBFD0028CED1039A9DF8EF
:1059F0000010BDF80200B0470028C6D017B1BDF8AE
:105A000002003880B8F1000F1CBF9DF8001088F824
:105A100000100C9803990160FFF7B2FD029EFFF79A
:105A2000C4FB014656B1324600E0024652F80C0C67
:105A30000028FAD1A86842F80C0CAE60FFF793FE7C
:105A4000204605B0BDE8F0830E4617469846FFF79E
:105A500099BB38B5FFF796FB0446FAF7F3FD00282B
:105A600018BF012811D0FFF7A0FB00254F4A0C23D7
:105A70006B43D15A39B1D11849680B68A34206D09B
:105A80006D1C062DF3D3FFF79BFBFF2032BDFFF704
:105A900097FBE8B232BDE0B5ADF800008DF8061016
:105AA000002049490A68ADF802006846904710B9DD
:105AB0009DF807000EBDFF200EBD1078422801D1D1
:105AC00001207047002070470CB478B504460E469C
:105AD00087B0FAF7B7FD0CAD002814BF0128FFF717
:105AE00096FE14200021FF22ADF8100002918DF8DF
:105AF000122006960595FFF7ACFF05AB0322214661
:105B0000FFF7A3FD002001A90190009100230022CE
:105B10002E4941F28830FFF70CFF012805D020B94B
:105B2000019820B1FFF78FFD01E0FFF770FE0598A7
:105B3000006808B070BC5DF80CFB2DE9F8430D4619
:105B4000062DBCBF04460628164699466FF002088B
:105B500006DAFFF72AFB00F01CF819B9FFF730FB53
:105B600040460AE0FFF72CFB00F009F8786840682F
:105B70004FF00051FFF70AFB0020BDE8F283A9F1C6
:105B80000800047045708670494678680830FFF751
:105B9000E1BC0C22054B02FB05F7DF197968704761
:105BA00048160020FF3F0020AB230020DC1500201A
:105BB00089540000DDA3010044030020A8FC01007B
:105BC000F35500001C03002024030020BB5A0000F2
:105BD00059540000AB510000C1510000DFF800F043
:105BE000A1B60110DFF800F035BD0110DFF800F0BC
:105BF00019BD01102DE9F04389B08046894617464A
:105C00001D46109C119E0823242200216846FAF7A5
:105C100071FA364906964FF47A700A68B0FBF2F1D1
:105C20004D4305954F43ADF810406B463A46494603
