:1000000000440020ADA9010001C9011001C901107F
:1000100001C9011001C9011001C9011001C9011074
:1000200001C9011001C9011001C9011001C9011064
:1000300001C9011001C901103FC90110DFF800F02A
:1000400085BF0110DFF800F061C00110DFF800F09B
:1000500079BF0110DFF800F0A9C00110DFF800F04F
:1000600089AF0110DFF800F055BC011020B1082362
:1000700030220021FFF7EABF7047F8B51C008CB0B2
:1000800005460E46174603D1002300F0D7FA0CE0D0
:100090006846FFF7EBFF206805906B4660680890A4
:1000A0003A4600F004F800F0C9FA0DB0F0BD207A2D
:1000B000ADF81800314628467047FFF7CBBFFFF771
:1000C000BDBFFFF7CBBF80B500F0D8FA401E80411E
:1000D000C00F02BD00F0D8BA00F0E0BAFFF7C2BF0F
:1000E000002101604FF0FF3201234260037270472C
:1000F000FFF7A8BFDFF800F0C1BF0110DFF800F084
:10010000B9BA0110DFF800F0E5C00110DFF800F027
:100110001FBE0110DFF800F0DDC00110DFF800F0B5
:1001200069B20110DFF800F091BE011020B1082380
:1001300024220021FFF7DEBF7047F0B51C0089B014
:1001400005460E46174603D10023FFF7E7FF0FE0F1
:100150006846FFF7EBFFA16806916B462278ADF881
:1001600010203A466068059031462846FFF7D6FFD2
:100170000F48104A01681160284609B0F0BDFFF72A
:10018000C9BFFFF7CFBF00F091BA80B500F0A5FA64
:1001900000B10120C0B202BD002181600170416048
:1001A0007047FFF7AFBFFFF7B1BFFFF7A7BF000072
:1001B0000CFD0100681B0020DFF800F011BF0110EA
:1001C000DFF800F005B30110DFF800F015C00110F2
:1001D000DFF800F015C1011020B10823282200210A
:1001E000FFF7F2BF7047002101604160C1604FF02E
:1001F000FF318160704770B514008AB005460E4625
:1002000003D1002200F070FA0CE06846FFF7E4FF2B
:10021000206804906A4660680590314600F004F852
:1002200000F062FA0AB070BDE0680790A06806901E
:1002300028467047FFF7CCBFFFF7BEBF00F060BA9B
:1002400080B500F01BFA012818BF002002BD00F0A5
:1002500061BAFFF7B5BF00F06DBA02460229107807
:1002600003D1517800EB01207047032906D1517862
:10027000927800EB012000EB02407047042908D17E
:100280005178937800EB0120D17800EB034000EB2C
:100290000160704742490A681040C2430A600B6817
:1002A0000342FBD170473F4A11680029FCD100236B
:1002B000D3611060D0690028FCD0D16150687047CC
:1002C0003948016821F0020141F400710160032105
:1002D0003648816041F2300242610121C160502202
:1002E0004261C1604FF4CA624261C16001607047FF
:1002F00030B50446002000E0401C984209DA54F86A
:10030000205015F1010F04D015408D42F4D1C0B238
:1003100030BDFF2030BDDFB50188B1F5C15F24D10C
:1003200041690091002781690191C06902902048CC
:100330000168C1F303665DF8274084B105234FF0DF
:10034000FF321C492046FFF7D3FF042807DC54F88E
:10035000201021F4702141EA064144F820107F1C4E
:10036000032FE8DB002004B0D0BD0120FBE71249D9
:100370000A681040C2430A607047104802680A6069
:1003800083684B60C2688A60406B20F0784040F020
:100390008050C860704701461022094800F0CEB86E
:1003A00010100440001004400000046000410440AC
:1003B000541300500200F844081004404C1300503D
:1003C00018000021704710B50446FFF778FE0021A1
:1003D00061602160BDE81040FFF78ABE38B5054670
:1003E000FFF76DFE2C683CB1216829602168002967
:1003F0001ABF00224A606960FFF77AFE204632BDCC
:1004000038B500F00FF80021296062686A60616801
:10041000002914BF0D6025606560FFE7BDE832402C
:10042000FFF766BE04460D46FFF749BE38B5FFF735
:10043000F9FF29686A6800290CBF62604A60696830
:100440002A6800290CBF22600A60E7E7DFF800F0A5
:1004500009C00110DFF800F0D1B20110DFF800F0A0
:10046000059B0110DFF800F0E1A30110DFF800F0B8
:100470005DB40110DFF800F009C10110DFF800F0F1
:100480000DC1011020B1082324220021FFF7DEBF97
:10049000704730B589B004460D4600F00BF80121D5
:1004A0008DF818106A4629462046FFF7DFFF2046E0
:1004B00009B030BD6846E5E718B589B00446FFF7D6
:1004C000F9FF01218DF818102046034A6946FFF70D
:1004D000C1FF0AB010BD00004C08002080B500909C
:1004E0006846FFF7C7FF01BDFFF7C8BF80B5FFF73C
:1004F000B5FF10B94FF0FF3002BD002002BDFFF77D
:10050000B1BF10B501688A089300CC0801F0030060
:1005100003F00403E20018430B0902F008021C0177
:1005200010434A0904F010045301204303F0200350
:100530001843890940EA8110C0B210BD62B38B072D
:1005400008D0521E11F8013B00F8013B00F0248056
:100550008B07F6D1830740F0208000BF103A07D305
:1005600030B4B1E83810103AA0E83810F9D230BCF5
:10057000530724BFB1E80810A0E8081044BF51F8A1
:10058000043B40F8043BD20724BF31F8022B20F88B
:10059000022B44BF0B7803707047121F17D35B0008
:1005A00009D151F8043B20F8023B1B0C121F20F824
:1005B000023BF6D20BE051F8043B00F8013B1B0A6A
:1005C00020F8023B1B0C121F00F8013BF3D238BF8E
:1005D000121D521E24BF11F8013B00F8013BF8D850
:1005E000704730B4002513E050F8042BD30744BF04
:1005F000A9F101039A18091F042942F8045BFAD2F1
:1006000013468C0744BF15809B1CC90748BF1D704B
:1006100050F8041B0029E7D130BC7047002203F0DA
:1006200027BA01700A0A0B0C090E42708370C17060
:10063000001D7047DFF800F0BDAA0110F8B50446B0
:100640000B480C4F0668F8690D4650F82510B1426A
:100650000AD10948009029462046FFF7EBFFF869C8
:1006600050F82510B14201D10020F2BD2046F2BD64
:1006700018120000440100204C0800200148007DB1
:10068000704700BFA4010020102803D3024910388E
:10069000C1F8000F704700BF00E000E081604260D9
:1006A00070470000DFF800F09DB2011070B50446FD
:1006B00003F0ECF90646A08A0025012808D1FFF7CF
:1006C000F1FF0546E068A168451BA94238BF002537
:1006D000304603F0DCF9284670BD808A7047000080
:1006E000DFF800F079AD011010B50446034BFFF7B9
:1006F000F7FFA06800B1204610BD00BF4C080020E5
:1007000001488068704700BFC8010020DFF800F092
:1007100011B0011038B504460D4603F0C5F9616A01
:100720000D43656203F0C1F92046BDE83240FFF792
:10073000EDBFFF7F70B50D4615F1010F044608BFF0
:10074000052503F0B1F906460120A840A0616561C6
:100750002946054A506903F0A5F9A0623046BDE874
:10076000704003F0A2B900BFC80100202DE9F84F86
:10077000040004BF002008F0B9FB04F1500941F661
:100780002300D9F800603080002171800CF0BAF9A4
:1007900000F57A60B0600221822030737173B06816
:1007A000217E2061B1730020F073D9F80410087D18
:1007B000022804BF002008F099FBD9F80400007D4E
:1007C000012802D10020002104E083280CBF06206C
:1007D000022020213074717404F1240BD9F8040034
:1007E000DFF878834178480615D5D8F83410486981
:1007F00002689BF80500511C00EB4000095A718209
:10080000607DC10604D5E07F40F04000E07702E063
:1008100040F04000607506F158050020287104F191
:1008200030009BF81A10890001F004012971286139
:100830004FF01E0A607DC10644D506F130003062DB
:10084000D9F8040041788A060BD5617D01F0FE01DC
:100850006175407810F0030F03D1E07F00F0FE00D7
:10086000E077607D1EF098FE0246A275521C307C37
:10087000C0F38001002392B200F003001EF0A5FE39
:10088000A0831E23A08BE27D00F5FA7100F5FA70BB
:1008900090FBF3F34A430AFB13006283C0B208B132
:1008A000C0F11E008018A183608380B2B168C0309F
:1008B00001EB8001A9600220E871E17F41F00801AD
:1008C000E17714E000203062607D40F00100607547
:1008D000D9F804104A78510744BF40F0020060750F
:1008E000607D1EF059FEA0750020A860E871A07D13
:1008F000217D60F3050106F1880021750170032157
:10090000627D8170427006F128079BF81A108900F9
:1009100001F0040141F0030181709BF81B20D2001B
:1009200002F00802114381700021C1708160BBF8A0
:100930001C00C0F30B00ABF81C00D9F80410CA7DF2
:1009400040EA0230ABF81C000022617D01F0FE019C
:1009500020461EF059FE40F61200B0830021F183BC
:10096000A020706207213970607DC1064CBF002055
:100970000220787041F62401E07D788039810020E2
:100980007881B168608B01EB80013961022082219E
:1009900039757875002094F8211001F03F01B97580
:1009A000F875D9F80410887D012818BF022804D1F1
:1009B00000F07F00401E002104E083280CBF0620C9
:1009C0000220202179763876D8F8340041690A6807
:1009D0009BF80510501C01EB4101405A788300211F
:1009E0006961D9F80400417811F0030F1BD01EF0A3
:1009F00071FE6861D8F818000078C1074CBF10215B
:100A0000002182074CBF2022002243074CBF402315
:100A1000002300074CBF80200020114319430143ED
:100A200041F00F01297600206876D9F80410887CFF
:100A300000F0030068769BF81A10890001F00401A9
:100A4000084368769BF81B10C90001F0080141F0CB
:100A50001001084368764249087838B1687E40F052
:100A600040006876287E00F0FE002876E07F1EF0C9
:100A700093FD84F82000204600F076F8E07FC10660
:100A80003AD5D9F8040094F820204178521C880700
:100A90004EBFD21E9BF81F008218387EC0F3800123
:100AA0000023D2B200F003001EF08FFDABF800006F
:100AB000BBF8000000F59671C1F11E0291FBFAF13E
:100AC0000AFB012A8BF804A0D9F8042051788A0780
:100AD0004CBF00214FF4FA710818ABF80000ABF8D6
:100AE0000200BBF800209BF8040039698218C0326C
:100AF00001EB8201022001E000210020E961E8769B
:100B000004F13000A862D9F804104A78687E5107D1
:100B100047BF04F1380140F02000124900F0DF0027
:100B2000E9626876022294F82000A17F60F3050153
:100B3000A17740F60B00B8840021F984F96229708E
:100B40006A7094F845006880D9F8041048788107E5
:100B500044BF012068800020BDE8F28FCC9C0100DA
:100B6000784E0020D0470020F8B5044604F1420535
:100B7000002004F14806E870A8806870A870306012
:100B800094F82030C3F1FE032B70607DC1064BD575
:100B90000120E870F7687878C10702D410F0030FDD
:100BA00001D1326902E080073ED57269002A1FBF79
:100BB000D2F805100029B2F80300002834D03160C3
:100BC000B2F80300A880A88870B3797811F0110FEB
:100BD0002AD1E17FDBB2834232BF41F0180101F03C
:100BE000EF0141F00801E177E07F1EF0D5FC84F8C9
:100BF0002000C0F1FE00A9880A46C4B292FBF4F3BB
:100C0000287004FB132404B10124E318DCB2012C86
:100C100008BF08466870EB7068780FBF0246DBB209
:100C20005B1E00FB1322AA70F1BD00000249087888
:100C300000B14868704700BFAC1D002070B5044685
:100C40000D4600261E2070432A5CFF2A06D0284449
:100C500000F10D01204607F063F820B9761C072E3D
:100C6000F0DBFF2070BDF0B270BDC00704D549793C
:100C700001F0C001C02901D1012070470020704758
:100C800070B504461C480D46C179880632D51B490B
:100C9000887802072ED51A4E317871B1082007F0F6
:100CA000EBFC38B3912101703E2214234270837013
:100CB000848085710146307818E00F2007F0DCFC55
:100CC000C0B101210170FF22427000F108014160B2
:100CD00004220A708A700C713E231422240A4B707D
:100CE000CA704C718D71014606480078BDE87040AD
:100CF00007F08CBD70BD00BF1C4E0020144E0020BC
:100D0000391E0020371E0020DFF800F0B9920110D4
:100D10007CB5040062D02568E8788DF8000068464C
:100D200029798DF80110FFF7EFFFA86808B12D4968
:100D30000160E86808B12C4901602C4E28783070B9
:100D400069787170A878B070A1680878F070A068B0
:100D5000416871608268B260C168F16002693261A5
:100D60004069706160680168B1612A69F26269690D
:100D70003163AA697263296AB163806810B908F0A7
:100D8000B5F800E030626068C06810B908F0AEF8ED
:100D900000E070626068006910B908F0A7F800E030
:100DA000B0626068406810B908F0A0F800E0F06137
:100DB0002869F0620121E0688268106800F01AF882
:100DC000E068C06810B908F091F801E008490860CF
:100DD000E0684168006800F01BF873BD002008F06F
:100DE00085F873BD1D9E010015AA0100100D00209D
:100DF000A81D00200200034A08BF034810600348F2
:100E0000017070470C0D0020EB7E00007E0D00206D
:100E1000024A106002480160704700BF9C1B00201E
:100E2000A01B0020DFF800F0851B01102DE9F84120
:100E300087B080460C46002694B3A0791A4D00284E
:100E4000207D05900CBF08270427618A049104F1D6
:100E50000803208A0390E18902910197A0880090FD
:100E6000E2792978E078FFF7DDFFE078C0B9208AE1
:100E70000690B8F10A0F08BF04F11B06618A0591BC
:100E80001722049204F10801E08903900297019669
:100E90000091E379A1882878012215F031FFE070F4
:100EA00008B0BDE8F08100BFA245002070470120D6
:100EB0007047062101700020704712000110071CC6
:100EC0001E0020401800204404C20001C00520017B
:100ED000010000781718520001100708020020488E
:100EE0000900200111D30100011118210483010020
:100EF00001A10CD003FC0900200001432C0A14209E
:100F0000023401002004523C0422000150026CDC37
:100F10000200015003B8080020030D1003731201F2
:100F200000B904F301010001200278090020171222
:100F30000001000208020020000208000000030077
:070F40000052000152000104
:10100000B412000018100000A9920100FDB30110F5
:101010006DC00110FDAE011099B5011059BA011053
:1010200039BA01102D000000B01200003C10000081
:10103000B1C00110A9BF011067C0011069B801104B
:10104000B9B9011099B9011030000000B0120000C8
:1010500060100000BDC00110CDB30110D9BD01105A
:101060006DB301108DB80110D9B901103100000025
:10107000000000006C0800200400000000000000D8
:101080000000000020000000949F010030000000DC
:10109000281000008C080020040000000000000060
:1010A000000000000C00000004A90100180000006E
:1010B0004C10000094080020040000000000000014
:1010C00000000000240000001CA90100180000001E
:1010D00000000000D4080020040000000000000010
:1010E000000000001000000084A001002C0000009F
:1010F00000100000F00800200400000000000000C4
:101100000000000020000000FCA3010024000000FB
:10111000FFFFFFFFF80800200400000000000000AF
:10112000000000002800000020A4010024000000AE
:10113000FFFFFFFF20090020040000000000000066
:10114000000000001400000034A901001800000095
:10115000FFFFFFFF2809002004000000000000003E
:101160000000000058000000549E01003400000000
:10117000FFFFFFFF30090020040000000000000016
:1011800000000000100000004CA901001800000041
:10119000FFFFFFFF380900200400000000000000EE
:1011A000000000001C00000044A401002400000016
:1011B000FFFFFFFF400900200400000000000000C6
:1011C0000000000038000000BCA201002800000060
:1011D000FFFFFFFFA809002004000000000000003E
:1011E0000000000054000000A09B01003C00000033
:1011F0000100000010FD01000100000000000E00D1
:1012000000000F0032000000010000007408002000
:10121000000200000000000001C9011000000000F1
:101220000000000008000000000022009C080020D0
:10123000000000000000000008000000000900207D
:101240000000000000000000080000000000000096
:10125000000000000000000000000000010000008D
:10126000480900200600000001000000B00900202D
:10127000000000000000000000020000000000006C
:0F128000290001002500300031002D0001000180
:101290000400000028AA0100000000000000000077
:1012A000000001000000030013C40110CD12010072
:1012B000B8120000B812000000000000E40800208E
:1012C0005911010020000000C4A90100E4A201009E
:1012D00029C1011027700000177D0000A1C701106F
:1012E000A3C7011000000000FA810000E4FB010028
:1012F000FCFB0100CCFB0100020009000100000022
:101300000112000189A201005DA20100DDA7010018
:10131000BD9E0100619F010015FC0100717F01006D
:1013200065A90100D110010011130100151301007E
:1013300070B500230646DFF89C0C00EB831000F12B
:101340003C04B4F90050B54204D10D0006D0E47855
:101350000C4203D15B1C082BEDD3002070BD2DE99E
:101360007043064614461D46FEF7A9FE6EB1D6E947
:101370000A2322432B43C6E90A23D6E9088948EA0F
:10138000040449EA0505C6E90845BDE87043FEF7CF
:10139000AFBE10B50129044698BF0121FEF701FF39
:1013A0002046BDE81040FEF7FEBE38B504460D46A7
:1013B00001F093F8A04231BF241A641E241A641C61
:1013C000A40805F57A70A04238BFB4F1405F05D299
:1013D000641B012C98BF0124204632BD002032BD81
:1013E000F8B50446DFF89C0B40690025F0B1C368EE
:1013F000197B012501F00F01022914D10069DFF8E2
:10140000886BC168408A96F8627041181922986802
:1014100002FB0711FFF7C9FFDFF8BC1B20600A6859
:10142000B0FBF2F002E00023236000E020602846D9
:10143000F2BDDFF8A81B0A680020D30705D5DFF846
:10144000A00B0068C00900F001007047F8B500F07B
:10145000B1F90546002C1CBFA07A00282AD094F9C7
:1014600009600127FFF7E5FF07FA06F658B194F97E
:101470000900DFF8701B4A68113007FA00F0C0431A
:1014800002404A6008600020A07220722060606004
:10149000C4E90400DFF8501BA06194F909000A7840
:1014A0008740174388780F7008B1401E8870F0B2EB
:1014B00000F06DF92846BDE8F240FEF719BE03289A
:1014C00004DADFF8C41A01EB4010704700207047BF
:1014D0002DE9F0410025DFF8B08ADFF8086B01271D
:1014E000E8B2FFF7ECFF040034D0A07A012831D134
:1014F00094F90900113007FA00F0C14331607268B5
:101500001043706094F9090007FA00F0C0B200F0CF
:1015100032F9002104F1100000F04FFF812809D1B9
:10152000A06920B1002100F048FF812802D10220EB
:10153000A0720FE081280DD098F8610094F909207D
:1015400011219140084388F861000021DFF8840CE4
:10155000FEF77DFE6D1C032DC2D3BDE8F0812DE9A1
:10156000FE4F0C466FF001018DF800108346904647
:101570009946FEF7A4FD01900025DFF86C6A01276B
:1015800096F800A0AF401AEA070F0CD04FF0FF32D8
:10159000914518BFA94506D1E8B2FFF790FF10B1F9
:1015A000817A00294AD06D1C032DE8D33FE002293F
:1015B00018D140F20361218294F90910628A491D11
:1015C00061F30B2262824179628A61F3C70262820F
:1015D0008179628A61F34E326282C079618A60F3F6
:1015E0000C31618200220D9878B10278417894F92B
:1015F0000900520142EA8102401D42EA00224FF6F0
:10160000FC710A40DFF8D00B0243A2615FEA0802D6
:10161000DFF8701918BFC4F80480086B08B9226895
:101620000A6300F018F994F909008DF80000019898
:10163000FEF75EFD9DF90000BDE8FE8F2AEA070770
:1016400037700122827245722146B278521C0446DC
:10165000B270C4F800B021720FF24950217A606074
:1016600001290C98A3D194F909200A21521D218245
:10167000A27480686061B5E738B504281BD1DFF833
:10168000044904F1DC052846FEF77FFD98B12846A1
:10169000FEF779FDDFF8781C0A685043B0F5967FB5
:1016A00009D22846FEF781FD052001F06DFA0120E0
:1016B000607300F002F8002032BD042104F13C0008
:1016C000FEF7C5BD38B5DFF8144BDFF8B8586069D0
:1016D000002161610022E068E16005F170000FF215
:1016E000F941FEF7F9FC0020FEF76CFEDFF8240C50
:1016F00001680A6B9047696B814231BF401A401EF6
:10170000401A401CA9684FF0FF32A2EB10328A4207
:1017100034BF4FF0FF3001EB1030A860287B20B1C0
:10172000A86BA968C00288421ED2FFF782FEB8B13A
:10173000DFF8880B40F60901018000224280417BDE
:1017400001F0F00141F001014173017B01F0F00172
:1017500001734260E2612060418811F4406FFBD068
:10176000012000212873A960FEF7AAFDDFF8A41C60
:101770000020086031BD10B500F01CF8DFF8041837
:101780000A7C14430C74BDE81040FEF7B1BC38B5B8
:1017900000F010F80546DFF8EC07017C21EA0404AC
:1017A0000474027C110703D408213C30FEF74FFD7E
:1017B00000F083BF0446FEF782BC2DE9F84F0546D2
:1017C000002129606846FFF70BFE044600264FF013
:1017D000FF3A0027DFF80098DFF8ACB7DFF8A487FE
:1017E000F8B2FFF76CFE00281CBF817A002917D0E1
:1017F000017A0126022922D0D8F83020D168528AF5
:101800009BF8623040695118192202FB0311FFF75F
:10181000CCFDD9F80010B0FBF1F0504598BF8246DE
:101820007F1C032FDCD330460CE0296002E008B1B6
:10183000C5F800A0204318BF0120BDE8F28F0120A9
:101840004FF0000A002CF2D000280099EDD051454D
:10185000EBD95146E9E77CB5DFF828472178022922
:1018600003D11920FEF736FC73BD217801291BD066
:10187000FEF725FC05466846FFF79FFF04F1DC06EE
:1018800060B1009820B101463046FFF782FD08E0C4
:101890003046FEF78AFCFFF710FF02E03046FEF705
:1018A00084FC2846FEF724FC73BD7CB5DFF8D456D3
:1018B0006C69686A002848D1002C41D06846FFF75F
:1018C0008FFD00281CBF0098002803D00820FFF7D8
:1018D0005EFF73BD0820FFF74EFF05F11400FEF711
:1018E0007DFD6862D4E90601C243DFF8F856AA60BC
:1018F000A9680142FBD1EA68D4E906010243EA6023
:10190000D4E90623DB432B606E68D4E906010E435D
:101910006E60E4682046FEF7C6FC208840F60201AF
:10192000401A08D041F21E01401A04D041F6E67177
:10193000401A012809D82146012000F01EF973BD84
:10194000022105F13C00FEF782FC73BDDFF834068E
:10195000016B8A6801F12003506830B1984218BFCA
:101960000246F9D101E000207047507B10F00F0FC4
:1019700002BF488C40F609018842F4D1012070472B
:10198000F8B5DFF80066DFF8440B756AFEF7EFFC88
:101990000446DFF83C0B0268076802F02002224090
:1019A00018BF002D07F460270BD01346B562002244
:1019B0002846FFF7D4FC4FF4804106F13C00FEF7C7
:1019C00046FC3C400ED0DFF8C00590F8611041EABB
:1019D000544480F8614006F18C00BDE8F4400021D9
:1019E000FEF735BCF1BD2DE9F843DFF89C8598F88A
:1019F0006100002448B1002698F861000121B1403F
:101A000008420ED1761C032EF6D398F8610030B14F
:101A1000BDE8F4430021DFF8BC07FEF718BCBDE8C1
:101A2000F18398F861001021B140084218BF0124E9
:101A3000FEF745FB98F861101122B240914388F8F7
:101A40006110FEF755FBF0B2FFF739FD02001CBF35
:101A5000907A0028D9D092F90990DFF8941B01EB15
:101A60008901002C0F681668556804BF107A022897
:101A700003D1D2E90401C3000CD41046FFF7E6FC01
:101A800044B10020009000224FF0007349463046D8
:101A9000A847BAE7009700224FF00063F6E738B591
:101AA000DFF8E054686A70B36A6AD2E90601FEF7AB
:101AB000F1FB0446686A22460023FFF750FCA007AA
:101AC00018D56A6ADFF8083A9C68D2E9060120F066
:101AD000020084439C606A6A1C68D2E906018C4358
:101AE0001C6005F11C00696AFEF78AFC0020686230
:101AF000022104E03CB1686AA8624FF4804105F11C
:101B00003C00FEF7A4FBFFF7E3FCBDE83140CCE668
:101B1000DFF87004B0F92C10B0F92E00814204BF38
:101B20000820FFF734BE70472DE9F042074689468A
:101B30003E6E14461D4606B1B047D7E91601044073
:101B40000D4008BF002C16D080214846FFF7F0FB5F
:101B5000C7E91A4538B1D0E90823A243AB43C0E92D
:101B60000823396E81600020386607F13800BDE82F
:101B7000F042FEF7C4BCBDE8F08238B50A46DFF893
:101B8000141B4B681C001CBF8968014207D0DFF89A
:101B9000F4530146286B01B0BDE83040184731BD11
:101BA00000000000704780B5FEF748FBDFF8D42343
:101BB0000146106B5268BDE808401047DFF8C403C7
:101BC0000FF229424168914208BFFFF744BE042149
:101BD0003C30FEF73CBB000038B54FF0FF30FEF75D
:101BE00059FBDFF8A0530FF20541044668688842AC
:101BF0000FD10022DFF8CC1A05F17000FEF76CFA65
:101C000002202870FFF7A2FE18B9FFF761FCFFF76A
:101C10004CFEDFF83C0B044207D005F13C00BDE868
:101C200034404FF00051FEF712BB31BDF8B5D54D31
:101C3000EC6924B3E168082040F6030340F604068B
:101C400019B3C2B20AB30A889A421EBFB2424968A7
:101C5000401EF5D114E0086818B9BDE8F240002034
:101C600056E710F1010F0AD0DFF8A4160A68B0FB9E
:101C7000F2F105F58070BDE8F440FFF78ABBF1BDD5
:101C8000206918222030FEF769FCD4E90A230026D7
:101C9000C4E90A66A06858B1B4F93C102069A66886
:101CA00013F0E2471CBF02F0000203F0E243B0472A
:101CB000FEF705FA0646E88D401CC0F30B00E885E8
:101CC000002084F83F0005F11C00FEF787FB00F0C0
:101CD00001FCB5F92E00B5F92C108842CFD1296B43
:101CE00091F870000028B6D0002281F87020B4E787
:101CF00038B50D46A807A34C0ED5FFF797FFE0694E
:101D000038B145F0020104F13C00BDE83440FEF773
:101D10009EBABDE831409EE5680747D5DFF8F41567
:101D20000A68106B80476063606908B100692063CE
:101D3000206B4168DFF8AC0A0A780260022000F0EC
:101D400023FF112000F035FF0121DFF84829217021
:101D5000907810B90E2000F02CFF206BDFF87C2467
:101D600041688868002804BFC868002804D00021A2
:101D7000D161DFF8740A10600721DFF89836196026
:101D80000021506951619069916150690FF2210100
:101D900040F0804040F00200506161601A20FEF780
:101DA00090F9BDE832401920FEF78BB931BD000033
:101DB0002DE9FF410646880040F1CC80714C206B34
:101DC00041684868D1F80880CF68010018BF804793
:101DD0005FEA080008BF002FDFF800540ED0E86962
:101DE0000028FCD00021E9615FEA080018BFC04765
:101DF00007B1B847DFF8B00AFEF755FA0020E861EE
:101E00000120DFF8A81A296040F60207FEF7DAFA87
:101E1000DFF8A82440F60A03138000205080117BCD
:101E200001F0F00111735060517B01F0F00141F0BD
:101E3000010151730021D6F80880707CA8F80210C7
:101E4000B8F80010C91B1DD041F21E07C91B19D0DC
:101E500041F6E677C91B012928D8B8F818704FF663
:101E6000FF310F40A8F8187028B14FF60F403840E6
:101E7000A8F818001AE02D20394660F30911A8F8D7
:101E8000181013E0B8F810704FF6FF310F40A8F8A3
:101E9000107028B14FF60F403840A8F8100005E048
:101EA0002D20394660F30911A8F810100020707435
:101EB0004746786800281EBF018899420746F8D136
:101EC0004AE0308CA8B100217184716206F12C00C7
:101ED0004378017803F0F00301F0F00143F00103CF
:101EE0000170437006F120005060517B01F0F00159
:101EF000517369464046FEF740FA6846FEF74BFAD2
:101F0000E8690028FCD00021E9610FF2E102607B62
:101F1000626030B100F0C6FF0028FBD000F0D3FFB4
:101F200010E0DFF88C190A6813680120984701282F
:101F300008D0787B00F0F00040F0010078730FF2D9
:101F40004D0060600021E961C5F800804146012034
:101F5000FFF713FEBDE8FF817A60787B00F0F000A8
:101F6000787360690028ACD0C068008840F603012F
:101F700088421CBF40F604039842A2D1002060634F
:101F8000B7E700004818002080140020DFF824097B
:101F9000014200D17047DFF81819012010B50A6816
:101FA000DFF8144913689847012808D10FF23D0063
:101FB000C24A606000218948C161026010BDD449F5
:101FC0000A683220B0FBF2F104F1DC00BDE81040F9
:101FD000FFF7DFB980120020681B00204021084075
:101FE0000000044008100440E01400202DE9FC47E4
:101FF00004460E467004DFF8C0782BD5FEF75FF874
:10200000BD6A15B3D5E90A2302F00A0413F0E041D2
:1020100008BF002C19D1D5E90A48D5E90A23A24303
:1020200023EA0803C5E90A23FEF762F8A86870B13D
:10203000B8F1000F08BF002C09D0B5F93C10286991
:102040002246AC684346A04701E0FEF751F826F46B
:102050008046B6E0B00051D5DFF8B8A2FEF72FF801
:10206000DAF854100A6880460420904700281CBF04
:10207000207C002822D0786B00B38146DAF800007B
:10208000E568016B8847814531BFA0EB0909401E17
:10209000A0EB090000F101094FEA1930A842E06005
:1020A00002D205446D08E56040F2D171E068A0F508
:1020B000FA70884224BF40F6C410E0604046FEF744
:1020C00017F8FFF743FC78B1D4F8188000224FF0DE
:1020D00000736FF480712046C047786910B1FFF734
:1020E000BAFB01E046F002062046646900224FF088
:1020F00080630021A04726F0005662E0B00707D5B4
:10210000FFF794FDF86900285BD126F0020658E03D
:10211000300756D5397C08074FD4397C08064CD493
:102120006846FFF74AFB10B10098002845D0DFF859
:102130008C1791F8610000283FD10024E0B2FFF72E
:10214000BEF900281CBF817A002908D001228272C2
:1021500090F9090002FA00F1C8B2FFF718FB641CFD
:10216000022CEBD90320387007F58070FEF71DF8BC
:10217000FFF7A8FA00210220FFF7FFFC022000F081
:102180009EFC112000F0B1FC787C18B9386B383017
:10219000FEF7B5F9DFF8FC14887810B90E2000F0CE
:1021A000A4FC787B20B100217973052000F087FC26
:1021B000DFF80C07786000213970FFF74CFB26F040
:1021C000080626B1314607F13C00FEF740F8BDE8AD
:1021D000F3870000D418002001000406001004401A
:1021E00038B584B000F0D0FBDFF8D806DFF8A4548F
:1021F0000168DFF8C44641F0020101606846FDF75E
:10220000F2FF6878DFF8C01602906A4604F13C00DD
:10221000FDF7F1FF6A46DFF8B41604F18C00FDF714
:10222000EAFF6846FDF75CFF2878DFF8A4260190F6
:102230006B46192104F17000FDF71FFF6B46DFF8B4
:1022400094261A2104F1C000FDF717FF0023002295
:10225000DFF8841604F1DC00FDF76FFF0023002295
:10226000DFF8781604F58070FDF767FF0023DFF8CC
:102270007026042104F5927000F00FFCA878012864
:1022800004BF0E2000F095FC04F11C00FEF79BF843
:1022900004F11400FEF797F800202070A081A060E0
:1022A0000721DFF8182682F8601005216063A1631A
:1022B000207405B0DFF80816616030BD8019002079
:1022C0002DE9F041DFF8F0556C699046002600E0FA
:1022D0002468CCB18C42FBD1B4B1276800224FF006
:1022E00080532046FFF73BF8214605F11400FEF726
:1022F0009DF8214605F11C00FEF782F8761C5FEA86
:10230000080018BF3C46E7D13046BDE8F081000028
:10231000681B00208C0100102DE9FC4E82461646F9
:1023200003273000ADF800101D4614BF4FF0804960
:102330004FF00059FDF7C3FE8346BDF90000DFF8FA
:10234000784510F1010F05D1606A00280CBF606963
:10235000606A02E00021FEF7EBFF40B390F83F1007
:102360000A0623D5616A884212D100224B46FEF745
:10237000F6FF002E14BFDFF86C05DFF86C05FDF7E3
:1023800092FF8DB161692A465046FFF799FF0BE035
:1023900001462A465046FFF793FF38B120780128BE
:1023A00002D00221FFF78AF9832700E0042758466C
:1023B000FDF79EFE3846BDE8F68E10B50C46DFF8F8
:1023C000F8140A78022A0BD1FDF76DFF04B12060E2
:1023D00000F0FF00012801D1812010BD022010BDB6
:1023E000012010BDF8B504460D461646FDF767FE00
:1023F0000746DFF8C404016B8C4218BF032404D1E4
:1024000031462846FFF7D9FF04463846FDF770FEEF
:102410002046F2BD00000460F0B50746DFF8CC04AA
:1024200087B00E001546006818BF002D1C4649D025
:102430003178C840C20745D500212846FDF76BFF1B
:102440007E60BD60FDF73BFEDFF86C540646687C9D
:10245000002835D1FFF7C4FE687C401C687400F08A
:1024600039F834B968460FF2AC411C22FEF776F811
:102470006C46206838600120218A7874798260680F
:10248000002812BF002140F6C41001213974F86001
:10249000DFF85C14E0680A4600B10146B961A06843
:1024A00000B102467A61582107F12000FEF7B6F824
:1024B000002107F13800FDF7ECFF2F63384602E0FA
:1024C00000F008F8002007B0F0BD000020000E006A
:1024D0000C1004403046FDF70BBEF8B5FDF7EFFDDC
:1024E000DFF8D4130A78022A05D1DFF808140C6843
:1024F000FDF7FEFD18E0FDF7FBFDDFF8FC03DFF85C
:10250000FC4301680A6B904710F5003041F100016F
:10251000A4FB0067DFF8E82304FB017711690020C2
:10252000341847EB01052C462046F2BD2DE9FE4F3D
:1025300081460E4693469A46FDF7C1FD80466FF0F0
:1025400001040020DFF8BC1301EB801191F83F304B
:102550001A0603D5401C0828F4D341E0DDE90C45F8
:1025600001960091DFF8506306F58070FDF71DFEBF
:10257000B08D401CC0F30B00B0850098019900F1AC
:10258000080779602021009800F13E02DFF8780307
:1025900082F800B0C7F800A02040B38DBB86C7F812
:1025A0000890294040F00200C7E904010023002000
:1025B000C7E90600FB62B8624FF0FF313963802043
:1025C000507089F8703006F114000099FDF718FF7B
:1025D00070690099884208BFFFF73DF9B7F93440A8
:1025E0004046FDF785FD2046BDE8FE8F0000000057
:1025F000943004402DE9F04107460E463000144661
:102600001D4601D5002010E0FDF716FE8046802112
:102610003046FEF78DFE060003D096F83F00010617
:1026200005D44046FDF715FE022000212FE0D6E933
:10263000080144F00A0445F0E0452040294008BF65
:1026400000280FD04046FDF704FED6E908012040DF
:102650002940C7E91A01D6E9082382438B43C6E91A
:10266000082312E0B168DFF8A402814202D0B36807
:102670003B66B060C7E916454046FDF7EAFD4FF0FE
:10268000FF3107F13800FDF731FFD7E91A01BDE846
:10269000F0810000407F0100DCB5DDE90667CDE98F
:1026A00000670446FFF742FF0146204602B0BDE83E
:1026B000D0400A224FF0E0439CE72846BDE8324074
:1026C000FDF716BD9F1A0000530803F0010300E058
:1026D000012302F001021FE60FF238211C22FDF750
:1026E0003DBF00E000BF00227CE680B56A46DFF80F
:1026F0002012FFF777FE812803D100980002001610
:1027000002BD6FF07F0002BD70B50E461546FDF7A5
:10271000D6FC8324684A1EB1022E0DD007D312E0E6
:10272000516A11B1516A8A8F04E080240CE0634938
:1027300091F860202A8007E0117802290CBF01215E
:102740000021297000E00324FDF7D2FC204670BD73
:102750000200004080B508468021FEF7E9FD00B187
:10276000C06802BDE0B500F005F80121FFE7FEF703
:10277000F6FE0EBD0192009191F904300A6870478F
:10278000F8B505460C46FDF79AFC0746E0B2FEF7A1
:1027900096FE802604001CBFA07A00281BD0464964
:1027A0000878022811D194F90910491D0906090C6D
:1027B00041F08161002241F001012846FFF712FE3D
:1027C00006462046FEF742FE05E02046FEF73EFEA6
:1027D000FFF741F881263846FDF78AFC3046F2BD06
:1027E00000000000D0210840510007062DE9F84301
:1027F0000546894616468324FDF761FCB9F1080FAA
:1028000080462D4F48D8DFE809F005080E4711141F
:10281000202F4200306828603FE001216974E86899
:102820006030E86039E03068688236E03168B9636A
:1028300033E0306818B98020FEF79DFF2DE00128B5
:102840002AD18020FEF7A3FF27E03878002804BFB4
:102850007869002819D131681920FDF73FFC3168EB
:102860001A20FDF73BFC18E03878002804BF78698F
:1028700000280AD1316807F13C00FDF7ECFC316813
:1028800007F18C00FDF7E7FC07E0002405E0307855
:102890000A4981F8600000E003244046FDF728FC67
:1028A0002046BDE8F28300000100070601010E0486
:1028B000E0010010040000204818002080140020CF
:1028C000F11C000000200940A71B0000E7190000D0
:1028D000D91B000081190000BD1B0000111B000066
:1028E000791600000100020401000104D42108400F
:1028F000A51B0000043004408C01001000093D00BD
:102900008019002080120020FFEFFF9F291B00008C
:1029100001000304FFFFFFFF0000000000000000B3
:10292000000000003A01000000000000000000006C
:1029300070B5DFF83847DFF838072568EE68002300
:1029400001223421B04700B10120C0B270BDDFF8D0
:1029500024078068704702460020022904D1012A1A
:1029600006D140F2EE207047012A08BF4FF47A707A
:102970007047DFF8001791F8E60020B1D1F8100198
:10298000002818BF004770472DE9FE43DFF8E486B2
:1029900008F1E106B07900287CD1DFF8DC16DFF819
:1029A000DC760868DFF8D856DFF8D896800900F0A2
:1029B0000100F0710120B071F87C7071684679688F
:1029C000C8F81011FDF7E8FB0021019100220291E7
:1029D0008DF800206B460FF2F54108F10C00FDF771
:1029E000ACFB6B4600220FF2C55108F13000FDF739
:1029F000A4FB6B4600220FF2095108F15400FDF7C9
:102A00009CFBB96801208847DFF87C06027868687B
:102A1000C0F38154387D20B1032C02D101203070E5
:102A200003E0032C18BF022C0DD1022000F0ACF8FB
:102A3000032CD9F800100CBF4FF47A7042F21070DA
:102A4000B0FBF1F118E0012C02D100F040FA1BE0DC
:102A5000D4B9022000F098F800F082FA98470128D3
:102A600003D1002000F033FA0EE0D9F80000322143
:102A7000B1FBF0F1B1FBF0F108F15400FDF791FB6F
:102A800008F15400FDF78FFB286840075CBF002069
:102A900000F07AF80020BDE8FE8338B5002408B1C4
:102AA000150002D16FF0020407E08160C26003618B
:102AB0000146DFF8C005FDF7A3FC204632BD10B586
:102AC0000446FDF7FCFADFF8AC150A1992F8E93074
:102AD0005B1E82F8E930DBB233B98A68012303FA5E
:102AE00004F422EA04048C605FE0F8B50546FDF7C3
:102AF000E6FA0446DFF87C15481990F8F020521EDB
:102B000080F8F020D2B27ABBDFF88005DFF880755C
:102B100000EB850210F825505688280615D539682F
:102B20000A6A3046904739688A6A30469047396861
:102B30000A6B30469047DFF85C15DFF85C25012012
:102B4000086010688007FCD507E06A0611D501EB24
:102B500086010020D1F80421904705F03F05132D90
:102B6000BCBF2846FFF7C1FF2046FDF7C1FA002091
:102B7000F2BD39688A693046904739684A6B3046F9
:102B800090470228F9D1E8E710B50446FDF797FA17
:102B9000DFF8E0148A680123A3401A438A602144C5
:102BA00091F8E920521C81F8E920FDF7A1FA0020F4
:102BB00010BD2DE9F0410646FDF781FA0446DFF825
:102BC000B454A81990F8F0104A1C80F8F02081BB8A
:102BD000DFF8B88418F8260000F03F001328B8BFCB
:102BE000FFF7E7FF08EB8600478818F82600DFF8B4
:102BF000A064010615D53268D16938468847326825
:102C0000516A384688473268D16A38468847DFF8C3
:102C10008424DFF884140120106008688007FCD544
:102C200007E041060BD505EB87020120D2F804111D
:102C300088472046FDF75CFA0020BDE8F081316846
:102C40004A693846904731684A6B384690470128B0
:102C5000F9D1EEE72DE9FE4F0746DFF81C04DFF857
:102C600014940168002600244A06A24609F1DC05F6
:102C700004D5297B11B9202000F079F9012F18BF64
:102C80006FF0010857D12868012852D1022129602C
:102C900000F08BFA012000F06AF95FEA00084BD1DE
:102CA000FDF7CAFADFF8F813DFF8E47301900C605F
:102CB0000120B96A0A689047012803D1002000F07A
:102CC000A9F90124DFF8DC13DFF8D0230E6009F145
:102CD000FF011368887808B14FF0010A487808B1FD
:102CE0004AF0020A087808B14AF0040AE87F20B1E5
:102CF00039680A6B4FF480609047A87F20B139682B
:102D00000A6B4FF481609047DFF88813DFF898B3BF
:102D1000012008604AF020003A6891698847DFF88E
:102D20008C230120106099F80800C10709D50126FD
:102D30001BE06FF004087CE00120286000F03EFA00
:102D400077E0396A8A68584690470428F9D0012804
:102D5000009004D13A6A5368032158469847DFF837
:102D600050030168890889000160002000F046FADC
:102D7000DFF82893D9F8000039688A6B90476EB95C
:102D80000098012804D13A6A5368012158469847AF
:102D9000DFF81C03016841F0030101600120DFF846
:102DA0000413086050463A6853699847E87F20B199
:102DB0003968CA6A4FF480609047A87F20B13968AB
:102DC000CA6A4FF481609047B249B84B012008604D
:102DD00000221A600320286039684A6B50469047E9
:102DE0000128F9D1D9F80000042000F0C0F8064607
:102DF000AB4901200860D9F800209F48006881068F
:102E0000FBD514B1012000F005F900F051FB0820BA
:102E100000F0ADF80643012028600198FDF719FA8B
:102E20009648008A00F0C3FA00F0C8F90EB14FF0DE
:102E3000FF384046BDE8FE8F38B50446FDF73FF940
:102E4000054621468B48FDF7F1FA2846BDE8324099
:102E5000FDF74EB93EB50024012804D020D3032845
:102E60001CD017D31CE06846FDF796F9814D9149B7
:102E700001948DF8004002946B46012205F1780020
:102E8000FDF75BF900238C4A2C2105F19C00FDF72E
:102E9000F4F805E000F028FB044601E000F0E4FB54
:102EA00020463EBD38B5FDF70AF97249054691F84E
:102EB000E000012410B1FFF73BFD04462846FDF772
:102EC00017F9204632BD002070E000007047F8B5C9
:102ED0000326664C664D00961C23266877684FF0E3
:102EE000405200212846B847012000902846246817
:102EF000656809234FF400720021A847F1BD000066
:102F000010B500F02DF89847022818BF032805D106
:102F1000FFF7DDFFBDE810400220D0E5012802D117
:102F2000BDE81040D3E765480168C1F3815003282C
:102F300008BF4FF47A7004D002280CBF41F28830E9
:102F4000322050494B4C0A68B0FBF2F104F15400B6
:102F5000FDF727F904F15400BDE81040FDF723B94F
:102F600057490A681368042070470020704738B535
:102F70000546404804685CB1A068284205D0226933
:102F8000E36800212846984720B92468002CF3D133
:102F9000002032BD4FF0FF3032BD4A49012807BF43
:102FA0000720086000220A600020704770B5FDF716
:102FB00086F8304D314E044695F8E00050B1287A3D
:102FC000410613D4FFF7B4FC80B100F0E2FC00200E
:102FD00085F8E0000220B568A84706461020FFF7F4
:102FE000C6FF012E11D10320A8470EE025490A682B
:102FF0003220B0FBF2F101B9012105F13000FDF7FB
:10300000D0F805F13000FDF7CEF82046BDE870405D
:10301000FDF76EB838B5012823D129490A6813682D
:10302000984701281DD000F0A7FC124D297A0120F5
:1030300085F8E000880616D4124A10683221B1FBE8
:10304000F0F404B9012405F13000FDF7AEF8214693
:1030500005F13000FDF7A5F805F13000FDF7A3F804
:1030600001E000F0BDFC002032BD0000A401001012
:1030700000A00C40300A002014100940287F0100F5
:10308000B03F0050681B00202E1E002090980100C9
:10309000B801001028200860282008402C20094092
:1030A0000C400940000222430040034080010443D9
:1030B00024220840B937000045350000B43F0050D5
:1030C000E001001000000460DFF800F031BF0110E3
:1030D000DFF800F0F5B7011030BF7047FCE738B5F6
:1030E00000F0E2F900F092F9FFF731FC054605F037
:1030F0000C000C2853D0680729D400F0FDFC0446CE
:1031000001210120FFF727FC314A116801FB04F37C
:1031100098421CD2F025B5FBF1F1641A2D49887C48
:1031200018B1C868A04238BF04462B4D214605F1AE
:103130000C00FCF7E7FF05F10C00FCF7E7FF0120AE
:10314000FFF788FD05F10C00FCF7D8FF29E0280700
:1031500025D4224C2248216A8A6890470428F8D056
:10316000EA06204900D420B9086840F00100086050
:1031700003E00A68520852000A601B481B4D0168B0
:1031800041F0030101602020226891698847286886
:1031900021688A6B904701202860296801E0FFF7C9
:1031A0009DFFBDE8314000F083B910B5104CFFF72A
:1031B0008BFF2060FDF700F8606010BD10B50C4C6F
:1031C0006068FCF7FDFF2068BDE81040FFF780BF96
:1031D0000CFD0100287F0100300A0020B80100101A
:1031E000004003408C210840242208402C20094044
:1031F000A81A00201628A8BF203870472DE9F84FDC
:1032000080469948DFF864920168994E8A0705D58F
:103210000820B0719749C9F80010C6E096480268C6
:1032200011688847009000279448046825176D1C92
:10323000A00209D40098C0F13E00C0100828C8BF01
:103240000820A842A8BF05468D480168C1F3046064
:10325000FFF7D0FF82468B480168C1F30440FFF7B7
:10326000C9FF5544152D0246C8BF152504DC6FF073
:1032700009008542B8BF054605F01F008249834B0F
:1032800040F4F85008801868009910F0030F18BF38
:103290000127400748BF47F002075FEA080096F998
:1032A000070018BF47F00407091A042902DCB079A7
:1032B000874260D0009B0F3B4FF0000CE04607F0C8
:1032C000010007F00401DFF8C8E127D403EB031382
:1032D0004FEA2328B8F1070F88BF4FF00708C4460C
:1032E000BCF1070F0EF1040A28BF4FF0060C5AF884
:1032F0002CB05EF82CA0ABEB0A0A0AF0FF0C19B157
:10330000E346CAF3072CDC445FEA877B03D5E34638
:10331000CAF3074CDC4408B10CEB1A6C5EF828E0E9
:103320000EF0FF0A11B1CEF307218A44B90744BF5A
:10333000CEF307418A4408B10AEB1E6A551BA3EB82
:10334000082303FB0CF38033002DD8BF0125342064
:1033500004F0FF0445430AEB13216C43B4FBF1F086
:103360004FF6FF71884288BF0846B080B771009859
:1033700000F30700F07147480168B0883160002110
:103380001F2804D21F20B08004E04008491CB0F57B
:10339000007FFAD20F38000941EAC0013E480143DC
:1033A000C9F800100021C9F80410BDE8F18F38B544
:1033B00005463A480468A4B23CB32F4801680A683D
:1033C00090472B4991F90720904205DA6FF07F0270
:1033D0009042B8BF1046C871A542888834BF651BAB
:1033E0000125854210D32B4A13680A689A1A921C49
:1033F0001F2A88BF1F222D1A5208D5402D18B5F557
:10340000803F28BF4FF6FF758D8031BD244800688E
:10341000002800D1704730B522498A6802F0406325
:10342000B3F1406F1FD0104B1C68A5071BD44C682C
:10343000A50718D41C680968C1F303511C310901A0
:1034400014F0050F04D088420DD224F0050409E0E1
:10345000814208D2100158BF44F00104500158BF06
:1034600044F004041C6030BD0000094030100940E5
:10347000801B0020FDFDA400EC010010B43F0050B3
:10348000B81200503C1100506E62084024220840DF
:103490009C1300500820094000E7A4803410094024
:1034A00028500940AC3F0050EFF3108072B67047CF
:1034B000EFF3108062B670470138FDD17047704756
:1034C00010B50C18FFF7F0FF411E8941C90FDFF856
:1034D000642410680028FCD024680120106009B121
:1034E000FFF7E6FF204610BD38B5DFF84C542878CA
:1034F0000024002802BFDFF84414487D00281FD0B4
:10350000FCF7DDFDA978002906BF0122AA7001247D
:10351000FCF7EEFDA4B90220FFF736FB0E20FFF703
:1035200048FBDFF81C14086808B1012032BDDFF841
:1035300014044022C26002600120C8610021697049
:10354000002032BD2DE9FC41DFF8F81300200860AF
:10355000DFF8F41301F1D804A07A002843D0012841
:10356000DFF8E853DFF8E82331D1DFF8E813166815
:103570004BF2F52046430868360AC0F38140012823
:103580000BD1A86C0168884700F042FA00F05BFAA2
:103590003509C010454306EBE536607B10B10021CC
:1035A000617306E0DFF8B003006820F07F40361852
:1035B0007608DFF8A803DFF8842306600121360CC3
:1035C00046608160507D002849D005210AE002282C
:1035D0000AD11568284600F012F9A5F2FF55032D0F
:1035E0003DD3082121733CE003283AD1106801F152
:1035F000B806A0F5C0603168F061002948BF4942B3
:10360000002848BF40428142A8BF002026DA7068E7
:10361000D34F80B200900823D5F800C0DCF80480B6
:103620004FF47F4230213846C047B06880B20090E6
:103630001223D5F800C0DCF804804FF4F80204210E
:103640003846C047B06980B200900A232D686E6882
:103650004FF4406220213846B047012020700B20F3
:103660002073BDE8F34100BF2DE9F843DFF8D882AD
:10367000BC4EDFF8EC92BC4CBC4FB24808F1E105FF
:10368000E9784A1E0B2A00F28D80DFE802F006304E
:1036900041596E41596E4159757B31680A68202045
:1036A00090470F20E06041F61D51216102200090FB
:1036B0000723D6F804C0DCF804404FF4C0720021A0
:1036C0004846A04776684846D6F80C9007234FF442
:1036D000C0720021C847012038600221E97008F15A
:1036E0007800BDE8F243FCF75EBDBDE8F18301213F
:1036F000E161287800281DBF0021396103200620E0
:10370000E870002103202060796078688107E6D4A2
:10371000E878032806D10221009100F044F8C84758
:10372000042009E00020009000F03DF8C847E87848
:1037300006280CBF07200A20E87001207860CEE739
:10374000042903D12021A161012105E001220A29D8
:10375000A2610CBF032102216970082200212160AF
:10376000C260026001202060BFE705290CBF06206F
:103770000920E8700020E1E70020386078600C2222
:10378000EA70ACE70021016001206D4A10600E2054
:10379000FFF7ABF90220FFF792F901200021E87052
:1037A000A970A2E7FEE748467668D6F8049005239C
:1037B000602200217047000063496C4891F8E420C2
:1037C000921E0A2A1AD8DFE802F0060A0E190A0E1B
:1037D000190A0E19120001688A07FCD544E74168EE
:1037E0008A07FCD4FAE741688A07FCD5F6E7016846
:1037F0008A07FCD441688A07FCD4EFE7FEE7F8B5F6
:103800000446574D30212846FFF75AFE4E4F07F128
:10381000B806C0F30720706004212846FFF750FE69
:10382000C0F38440B06020212846FFF749FEC0F372
:103830008120B4F5C064B061346003D1002087F802
:10384000D800F1BD316997F8D80028B97068B2691D
:10385000B168F0607261F461F06900284CBF6FF0EC
:103860000102022200EB40001018421000EB92709F
:1038700001EBA0017268F260002914DC7069032872
:1038800007D1012015318842A8BF012100227261B1
:103890001EE001200B318842A8BF0121521E48BF03
:1038A0000022F26007E01E2912DD706928B915397F
:1038B0001E29C8BF1E21032009E00B391E29C8BFDD
:1038C0001E21521C3F2AC8BF3F22F26000207061B7
:1038D0001E4CF068316180B2009008232768D7F849
:1038E00004C04FF47F4230212846E0470120009079
:1038F00011232768D7F804C04FF40032042128466A
:10390000E047306980B2009012232768D7F804C0DE
:103910004FF4F80204212846E047706980B2009015
:103920002846246865680A234FF440622021A8478E
:10393000F1BD000000800C40110B0020287F010029
:1039400004800C402C500C40300A0020A4010010D0
:1039500008400C40B43F0050102009403C600C402F
:1039600000A00C40A001001000400C4034600C404E
:103970003848006800F0D8B810B5384C626D53680C
:103980000121032098472068C16A8847344A906023
:1039900010BD70B5314C616D0A6801209047012857
:1039A0001CD0A5692C48EE68002301223421B047C1
:1039B000A8B1FFF7DDFF2068C16A8847284B9A68E5
:1039C00028491C68D860A4EB9404801A4843000C72
:1039D00018601A68944238BF14461C60012070BDFC
:1039E00038B51E4C626D5368002103209847616D05
:1039F0000A680120904708B1FFF7BAFF2068184D08
:103A0000C16A88476860206E01688847286131BDB7
:103A100010B501461448154B02681B6810040016C7
:103A20001B394843C01000EB2240120601FB01F491
:103A300012161B06624361431B1600EBA22059437A
:103A400000EBA14010BD00FB00F1C0EBA15000B2A3
:103A5000704700008000001000A00C408C01001096
:103A60006C1B002040420F0090130050A410005027
:103A70004018491C1CBFB1F1010100F8012DF9D11A
:103A800070470040DFF800F079BB011000E006E06D
:103A9000EFF31180202181F311887047000080F33B
:103AA00011887047FFF7EEBFF2E7F8E7F0E7F6E7B7
:103AB0000D49C20744BF01230B60820744BF4FF486
:103AC00080730B60400744BF4FF480320A60704738
:103AD00010B5064AC30748BF1160840748BF51604C
:103AE000400748BF916010BD0420094018200940DC
:103AF000DFF800F0E1BE011070B5FFF7C7FF094E17
:103B00000446B0680021FFF7F3FF05467069B1690C
:103B1000451BA94238BF00252046FFF7B8FF2846BD
:103B200070BD00BF7801002070B50446FFF7BCFCF3
:103B3000451EAD41ED0F064E30680028FCD0A04771
:103B4000012131601DB1BDE87040FFF7B1BC70BD0F
:103B500000800C40DFF800F089840110DFF800F0ED
:103B600021C00110DFF800F0F99B0110DFF800F030
:103B700019AE0110DFF800F04FBF011000B58FB093
:103B800008233C2200216846FFF7E8FFDFF8080D14
:103B900000F150014FF4217201230791089206931E
:103BA0006A4600230FF23921FFF7E0FF0FB000BD96
:103BB0007FB5DFF8A44CDFF8E45C05F1380120465E
:103BC00001F0DBFB05F1500001F004FFE863002188
:103BD00005F14C0001900091002341F288320FF66C
:103BE0006D21DFF8746B05F15C0001F0C3FE05F197
:103BF000AC00009015230022DFF8601B01F009F8EB
:103C000002230022DFF8541C00F0D2FC01218DF8C1
:103C10000710012200210DF107008DF806208DF814
:103C200005108DF80420009001234FF4806200F00D
:103C3000D3F80DF106000090012340F2024200F09B
:103C4000CBF80DF105000090012340F2034200F093
:103C5000C3F801A80090012340F2064200F0BCF82E
:103C60004FF0FF32DFF8381C00F011FB4FF0FF324D
:103C7000DFF8301C00F00BFB01F00CFF4FF0FF30C1
:103C800002F012F801218DF80310032143A08DF8F2
:103C900001100222D0E900368DF8022001A9042289
:103CA000C1E900368DF8002001210DF1030200204A
:103CB00002F022F80DF102020121012002F01CF8AD
:103CC0000DF101020121022002F016F800F0E2FAE3
:103CD00001AA0521042002F00FF805F1D40002F03A
:103CE00004F805F1CC02DFF8341C00F0D0FA00F043
:103CF0006FF80246DFF8401C00F0C9FA00F068F8DF
:103D00000246DFF8381C00F0C2FA40F64803FB22F6
:103D1000DFF82C1C00F04CFCDFF8281C00F043FC02
:103D20000FF6691002F0B6F84FF6FD7000F00EFEC7
:103D30002178DFF8784C00F04CF8002101910091D7
:103D400003460422DFF8001C00F063FF3021284600
:103D500002F000F94FF6FF702880288300214FF011
:103D6000FF3002F0FBF868636FF078420DA020602E
:103D70000021204602F09AF9686BDFF8583C0222D5
:103D80004FEA040102F030F9DFF8D80C0AA30178F9
:103D9000686B002202F016F97FBD000001020304E7
:103DA0000500000053696D706C6520506572697084
:103DB000686572616C0000003D3D3D3D3D3D3D3D0F
:103DC0003D3D3D3D3D3D3D3D3D3D3D3D0000000017
:103DD0002178502001F01FBD3146102001F034BD84
:103DE0007CB5FFF7E5FEDFF8705ADFF8B06AB06B1C
:103DF0004FF0FF334FF040420021FFF7B3FE0400C5
:103E0000F5D00020019001AA69460DF1020001F0F1
:103E1000EFFAC8B9BDF802100120102902BF9DF8C1
:103E200000102A78914208D101990A884FF6FF7351
:103E30009A421CBF084600F019F8019900291EBFDC
:103E40000028084601F0BFFA6000D0D5F06BFFF7FC
:103E500091FE0028CBD1F06B01F0DDFD0400F5D020
:103E600000F0BEF8204601F041FBEFE738B5DFF87F
:103E7000F41B0C780546DFF8240A2A78406B611C95
:103E8000912A1BD0B02A05D0D02A63D1284600F051
:103E900006FA5FE02A797E2A02D12A7A2EA304E06C
:103EA0007F2A05D1B5F808202FA3009200F05EFC10
:103EB000297905F10800FFF74DFE4BE06A780E2ADC
:103EC00006D00F2A0DD0102A06D03E2A1FD041E07E
:103ED000284600F0CBFD3DE00021082002F0DAF991
:103EE00038E0AA8842F23204A24233D1AA781A2AD0
:103EF00004D1DFF8743B00F05FFB05E00092C9B22B
:103F00001DA3002202F05EF82946204620E0AA7890
:103F10000C2A1FD1EA781AB11FA300F04DFB15E05F
:103F2000E979012908BFA0A109D0022908BF9FA1F2
:103F300005D003290CBF0FF274010FF27801009134
:103F400014F1020421A3E1B202F03CF829460C204E
:103F500000F080FE012032BD46432056696F6C613F
:103F60007465643A202564004D54552053697A6580
:103F70003A202564000000005048592055706461C3
:103F8000746520537461747573204576656E743A58
:103F90002030782578000000504859204368616E31
:103FA0006765206661696C7572650000434F444522
:103FB00044000000556E6578706563746564205038
:103FC00048592056616C7565000000005048592022
:103FD0005570646174656420746F2025730000005F
:103FE0002DE9FE430446DFF8B4782078D7F8349002
:103FF000DFF8706ADFF8588C401E08282ED8DFE8FA
:1040000000F00522385F8AA1A9ACB200626813787B
:1040100053B1022B22D101A9022001F0A9FE9DF883
:104020000400317862A308E001A9002001F0A0FE9D
:104030009DF8040096F8001060A30090491C786B6E
:104040000022C9B260E060680078010707D50D2042
:1040500002F0D3FB002801D102F044F89DE0C00635
:10406000FCD50E2002F0C9FB002801D102F056F861
:1040700093E0676831783868091D01280ED002285E
:1040800009D0102814D178684288019208F13003D1
:104090000078009007E078684BA302E0D7F80400AE
:1040A0004EA3027800920022C9B2484601F08AFF6E
:1040B0003868B0F1004F02D0786801F017FA6CE070
:1040C0006268107931781278C91C032A65D8DFE854
:1040D00002F01E11090208B945A31AE0CDF800004C
:1040E00048A30EE010B900BF4CA312E0CDF80000C9
:1040F0004FA306E010B900BF53A30AE0CDF80000BB
:1041000055A30022C9B2484601F05CFF45E000BF5C
:1041100056A3002231E06068DFF8BC5B871DF878A9
:1041200040B100950022317854A3C91CC9B2484659
:1041300001F048FF009500233A88DFF8A01B00F04B
:1041400068FD2AE06946022001F012FE28BB00F05B
:10415000A1F822E000F053FA1FE06068B0F8010017
:1041600000F03AFC1DE06568688800F0D9FB022881
:1041700008DB317843460022491CC9B2484601F0A9
:1041800021FF0AE0182148433844C27D012A04D1A6
:104190006A88DFF8101C00F07AF8606808B101F056
:1041A000A5F9BDE8F7830000314D0000324D000055
:1041B0004368617220333A202564000043686172CD
:1041C00020313A2025640000416476205365742034
:1041D00025642044697361626C65640041647620E3
:1041E00053657420256420456E61626C656400002F
:1041F000426F6E64207361766520737563636573C7
:1042000073000000426F6E64207361766520666102
:10421000696C65643A20256400000000456E637295
:10422000797074696F6E20737563636573730000D2
:10423000456E6372797074696F6E206661696C6532
:10424000643A20256400000050616972696E67203D
:10425000737563636573730050616972696E67207B
:104260006661696C3A202564000000005061697243
:10427000696E672073746172746564005061737352
:10428000636F64653A202564000000002146102019
:1042900001F0DABA6A460121032001F02DBD2DE9B3
:1042A000F84F054692B0AA78DFF8FCAADFF8FC1AAE
:1042B000DFF8FC7ADFF8F4860FF65C3BDFF8DC45CC
:1042C000DFF8A06762B1052A00F08380062A00F0BB
:1042D000B180072A00F01881112A00F0F6803FE132
:1042E0006878002874D1A8790FF289498DF8080000
:1042F00002A8E979417000212A7A0171C1708270A7
:10430000E97AC1710821AA7A827102AA687A8DF8C5
:104310000D00002001F0CCFB3178606B0FF6E0233C
:1043200000F049F90BA80FF694311C22FCF716F99E
:1043300000970BAB4A46DFF87C1AFFF74EFD00F002
:1043400024F9DFF8748A3A78002300F061FC00F069
:1043500012F907F10C001B210190009101233A781A
:1043600000F056FC00F007F9DFF850BA3A7800F098
:104370001DF900F02DF900F0FEF804A80FF65831F1
:104380001C22FCF7EBF8781C009004AB4A46DFF8DF
:10439000241AFFF722FD00F0F8F800237A7800F0E5
:1043A00037FC00F0E8F87A7800F000F900F008F93E
:1043B00000F0E1F8A81D01F03BFB0190B2A00090D5
:1043C00000223178606B0FF64423891D00F03BF921
:1043D000CEE000F0E8F85FFA80F900F0C1F9687803
:1043E000B8B9688900F060FA281D01F021FB00903F
:1043F00000223178606B0FF63023491C00F023F95E
:1044000000220121404601F051FE04F15C0001F060
:10441000D6FAB9F1010F04DC00F0DAF800F0D0F8B8
:10442000A6E0DFF89C497A78FFF730FF3A78FFF78B
:104430002DFF9DE000F0B7F831780FF6FC135FFA1E
:1044400080F9491C606B00F0B7F800F089F9B5F805
:1044500004B0584600F064FA022822D018214843DC
:10446000009004F10800009945588DB1284601F0EC
:10447000A8FA10B1284601F0ABFA2846FBF74AFE2D
:10448000284601F033F80099201D405801F02EF81D
:10449000584600F08DFA584600F0A0FB584600F050
:1044A00055FAB9F1000F08D104F15C0001F090FA5F
:1044B00001220021404601F0F9FD00F089F800F0EA
:1044C0007FF831780022C91C4EE0A988ADF80010B1
:1044D000688978B9E888ADF8020001222889ADF82A
:1044E00004006889ADF80600A989ADF808108DF8B8
:1044F0000B2002E000208DF80B006A46DFF8C4189C
:10450000102001F0A1F933E0AA88DFF8BC1802AB53
:10451000102001F099F9E87800280DF10A0005D182
:1045200001F086FA00900FF6281306E001F080FAF9
:104530000190DFF89838A878009000223178606BFD
:10454000891C00F080F804F14000FBF747FF0400ED
:104550000ED0208900F040FA204600F0C7FF07E0A7
:1045600031788A1CD2B2491C606BC9B201F022FDBD
:1045700013B0BDE8F08FC0B230B100208DF800005C
:104580009DF80000401CF9E77047C0B230B1002030
:104590008DF800009DF80000401CF9E7381D072148
:1045A000019000917047102001F04EB992235946B6
:1045B000102001F049B9491C0022C9B201F002BD26
:1045C0000020009000237A785146102001F03CB979
:1045D0000020009000233A785146102001F034B9B1
:1045E00038B50546012000F080FF040006D0257094
:1045F0002146012000F019F900B156E031BD7CB52B
:10460000002002F08FF9A54D05F1C40604460622EC
:10461000314602F09FF9A8B1204601F009FA009056
:104620000022DFF840040FF640030178686BC91DD3
:1046300000F009F82146304602B0BDE8704006227D
:10464000FBF77CBF73BDC9B201F0BCBC80B501787B
:10465000DFF87C27062906D102F15C0001F0AFF9F2
:10466000002106200CE0072906D102F1800001F0AC
:10467000A6F90021072003E0082904D101460820FB
:10468000BDE80440D1E001BD4465760038B505467B
:10469000012000F02AFF040006D0257021460220E8
:1046A00000F0C3F800B100E031BD2046BDE8324063
:1046B00000F01CBF2DE9F843784CDFF8A873258E75
:1046C0008046284600F02CF9022807DB3978606B19
:1046D000DFF87C35FFF76FFF00203AE0DFF8F49653
:1046E00019F808101826FF291AD07043205A00F034
:1046F00075FA19F80820002000901346208E00213A
:1047000000F08AFADFF8D0060FF2687300EBC801F8
:10471000CA683978606B0092491C00F027F817E0EE
:10472000284600F0FDF80746022F03DB002000F0CA
:104730004FFAFCE7009500230FF2D502DFF89C1634
:1047400000F067FAC0B218B97E43A1190120C875FC
:104750000120BDE8F2830000E53A01005590010018
:10476000CDF800905B463178606B891C0022C9B29D
:1047700001F028BC70B505460E46082000F0B5FED5
:1047800004000BD0256066602146032000F04DF840
:1047900020B12046BDE8704000F0A8BE70BDF8B55D
:1047A00005460E461746062000F09FFE04000CD07A
:1047B0002670658027712146042000F036F820B16C
:1047C0002046BDE8F24000F091BEF1BD2DE9F8436E
:1047D00081460E4617469846102000F086FE0400DB
:1047E00013D0089DE68006224946FBF7A7FE2772F4
:1047F00084F80980E5602146052000F016F820B114
:104800002046BDE8F24300F071BEBDE8F183000030
:1048100010B504462146092000F007F820B12046D3
:10482000BDE8104000F062BE10BD38B504460D462C
:10483000082000F05AFE60B1047045600246DFF8BF
:104840009035996BD86B01F0CCF8401E8041C00FB9
:1048500032BD132032BD0000271E00200D83000052
:1048600038B518210D4BDFF8784541435A5ADFF827
:1048700074151A8601EBC0000022C568DFF86805D0
:1048800025600178586BC91CC9B201F093FB204622
:1048900001F0F2FB012032BD800D0020C406002093
:1048A000D5A401004DA701007CB5DFF824251388AD
:1048B0000546152400204FF6FF718B4227D11821A1
:1048C000484316180320358000F00FFE7060D0B109
:1048D000082101707068A0F80150242000F005FE46
:1048E000B060002870680BD0019001210091002376
:1048F000B068DFF8F81441F2707201F03BF803E0A1
:1049000000F0F4FD00E013240120307503E0138B68
:1049100001208B42D3D0204676BD000089A801003B
:10492000DFF8AC241388014600208B421FBF012012
:10493000128B8A4202207047518801103181011088
:1049400021B10010B97D0100814501002DE9F04140
:1049500002264FF6FD74A042804606D0FFF7E0FF26
:104960000646022EA8BF18201EDA0027BE4218BF36
:10497000A04515D11821DFF85804794345184FF6A2
:10498000FF722A8000232B75EB74AB756B750521C4
:1049900005F10C00FBF742FE0020A8746874E8756E
:1049A0007F1C022FE2DB0020BDE8F081CC07002055
:1049B00070B5DFF81C64346C054608E02189A94213
:1049C00004D1214606F14000FBF730FD2468002C9D
:1049D000F4D170BDE14C00007FB54FF49672ADF894
:1049E00008200021682204465020ADF80200ADF8EE
:1049F0000610ADF80420ADF800402046FFF790FF08
:104A00000228DFF8CC5308DB1648914B0178686B1D
:104A1000491C0022C9B2FFF7BDB9182148432E181E
:104A2000B068FBF777FBB06818B100F05FFD0020BD
:104A3000B060706808B100F059FD6A46DFF8B01345
:104A4000102000F001FFC0B2112809D10C2000F0A5
:104A50004CFD010004D00C8105F14000FBF7D0FCB7
:104A60007FBD000059170020C49F01002DE9FE43BF
:104A7000014641F205438A6889881078DFF850437F
:104A8000DFF86483994205D042F23003994200F086
:104A90008F809BE092F903900028FAD151789278A8
:104AA00001EB022188B2FFF73BFF012803DD002064
:104AB00000F08EF8FCE7182148432718B9F17F0F62
:104AC0006AD0787C3844052180F80C90787C401CB2
:104AD0007874C0B290FBF1F101EB8101401A787457
:104AE00000210020CAB23A44491C92F90C20101847
:104AF000CBB2052BF6DB00B2052190FBF1F0B874C8
:104B00000025F87C002847D197F9120010F11E0FFC
:104B100005DB387D02281CBF0028022609D197F941
:104B2000120028300A2806D2387D012803D068B147
:104B30000126324612E097F9120032300A2805D2D7
:104B4000387D18B104220125062607E097F91200E6
:104B500010F1320F20DA042202250226787DB042BD
:104B600002D1BB7D012B01DDB04215D0009513466B
:104B70003888002100F050F80120797DF874B142A6
:104B80001CBF0020B8750DB97E7505E0012D07BF6B
:104B9000062078750221797597F9120098F80010AF
:104BA0000FF2E4230190CDF800900022491D0AE0A5
:104BB00060B910790FF2F0230190D17800910022B2
:104BC00098F80010C91D606BFFF73DFDBDE8F78345
:104BD0008DF800009DF80000401C704738B5044671
:104BE000FFF79EFE0546012D03DD0020FFF7F0FFD5
:104BF000FCE7009401230022784900F00AF818200D
:104C00007349454348190022C274C275002032BD61
:104C10004146102000F018BE2DE9FF4105468846A8
:104C200017461E460C2000F060FC01000CD00A9CC8
:104C300070480D81FBF7E4FB029401960097434610
:104C40002A466D49FFF7E5FF002004B0BDE8F0817A
:104C50006C9401002DE9F04118260C280C465C4F9D
:104C60001FD042F23201884234D107F1A400FBF791
:104C7000B5FB5FEA00082DD0B8F80800FFF750FE3A
:104C80000546404600F032FC022D23DAA0781A28AF
:104C900020D16E43B8190021827DC174521C8275E7
:104CA00018E0BCB1A088FFF73BFE022812DA4643A9
:104CB000B9190022CA74E07808B9E0790875E0797A
:104CC0004A7D904203D0887D401C887502E0002018
:104CD00088754875BDE8F08140E20100F99E010049
:104CE0002DE9F8430C4686B030493E4E384DFFF76B
:104CF0005AFCB442074646D1A86C08B100F0F6FB56
:104D00005FFA87F8C8EB08181FFA88F000F0EDFB8F
:104D10000400AC6404D1706820F0784070603DE01D
:104D20007168DFF8A480022060F3DF617160002702
:104D3000182078434FF6FF712A5A01208A4200FA60
:104D400007F917D06B464146102000F07DFD0DF1AC
:104D5000020000F06DFE01460F222046FBF7EEFB3D
:104D600006EBC7000022C4604946304601F09EF9B8
:104D70000F3404E04A460021304601F097F97F1CC9
:104D8000012FD5DD0AE01D48844207D11649097874
:104D9000686BC91C0022C9B201F00CF907B0BDE86C
:104DA000F083000025AB0010557801003D9A01000A
:104DB0009C070020CD4B0100A9680100DD9801008F
:104DC000199C0100396C0100B58400008CA401001D
:104DD000C4060020C4070020100800200193010031
:104DE000FC070020E0070020591700204D46000076
:104DF000F97F010068070020B9900100CC0700206E
:104E0000496E697469616C697A6564002573204133
:104E10006464723A202573004E756D20436F6E6E88
:104E2000733A202564000000436F6E6E65637465FD
:104E30006420746F2025730044657669636520449F
:104E40006973636F6E6E65637465642100000000B2
:104E50004C696E6B20506172616D20557064617495
:104E600065643A2025730000525020416464723A10
:104E70002025730050485920707265666572656E12
:104E800063653A2025730000525353493A25642044
:104E900064426D2C2041564720525353493A2564B1
:104EA0002064426D00000000525850683A2025648A
:104EB0002C20545850683A2025640000130000004C
:104EC000A0000000A00000000700AAAAAAAAAAAA9F
:104ED000007F01010000000001000000A0000000B0
:104EE000A00000000700AAAAAAAAAAAA007F83839A
:104EF00000000000DFF800F02DB40110DFF800F032
:104F0000CDAC0110DFF800F02DC00110DFF800F08B
:104F100055A40110DFF800F0FDB1011020B1082305
:104F20003C220021FEF71ABE704780B5FBF744F91A
:104F3000ADF80000FBF782F8ADF80200009802BD62
:104F400001B5BDF80200FBF77DF8BDF80000BDE833
:104F50000240FBF735B938B5DFF8C449207801289D
:104F60002CD001212170DFF8BC29DFF8BC19890899
:104F70008900521AA26161610A4602E0002342F8E8
:104F8000043BA3695D18AA42F8D39B0801EB830296
:104F9000002042F8040CE8230B60A0698008800020
:104FA000EC38C1F8E800E831A160002000F007F813
:104FB000E060A1696069A060091F216131BDF8B599
:104FC00000240026051D15F003001CBF291D0D1A25
:104FD000FFF7ABFFDFF8482901465160112D34BFC0
:104FE0009368D3681868002803D580F00040002635
:104FF00019E0370013D02768D3F800C06744AF42E8
:10500000276010D33846ECB1401B042811D36051FF
:1050100045F00040206013695D1B156111E0A84256
:1050200014D201261C46034418680028DBD1002452
:1050300008E0136920681B1A1361226842F00042DD
:105040002260241D00F04FFA2046F2BD1C46DAE72C
:1050500010B50446FFF769FFDFF8C418486054F83C
:10506000042C22F0004244F8042C0B69D2180A6187
:10507000221F8B689A4238BF8A60BDE810405FE704
:105080002DE9F041FFF751FFDFF89418CA68486036
:1050900000240025002600270AE00E4601251446BC
:1050A00005E02B00F9D02368CB1823608E190A4441
:1050B0001168B046BE4238BFB846002905D0F0D5C9
:1050C00081F0004100254746F1E7FFF739FF4046F0
:1050D000BDE8F08110B50446DFF84408816921601D
:1050E00000696060FFF7CCFF09282CBF083800205A
:1050F000A06010BDDFF828180A69121A40F22D13BB
:105100009A4228BFFFF75BBF0020704780B5FFF7CA
:1051100022FF4BF6BE2002BD084650E7084697E73F
:1051200002B56846FFF7D6FF01BD0120704738B5CC
:105130000446FFF7FAFE00220C23DFF8F017534372
:10514000CD18A96C21B18C4206D0521C032AF3D38E
:10515000FFF7F6FE002032BDFFF7F2FE05F1480032
:1051600032BD70B50546FFF7E0FE044600210C2273
:10517000DFF8B8074A438618B06C48B1854210D0B2
:10518000491C0329F3D32046FFF7DAFE002070BD47
:105190003065B5640021FFF7ADFEF06408B901F099
:1051A000EDFB2046FFF7CCFE06F1480070BD38B598
:1051B0000446FFF7BAFE0025DFF870270C2169438B
:1051C000515A21B18C4206D06D1C062DF6D3FFF743
:1051D000B7FEFF2032BD1AE310B504462088FFF762
:1051E000E6FFFF2802D14FF0FF3010BD0C21DFF8A1
:1051F0003C2748431044816811B96FF0010010BD8D
:105200002046BDE81040084702460FF244701047A0
:1052100038B500200C21DFF814270024002501FBFD
:1052200000F31344401C03289C641D65F7D3002041
:10523000002301FB00F4401C13530628F9D3BDE8FA
:10524000314088E62DE9F8478FB081468846FDF762
:105250003BFF05460027DFF8D86647451FD2684662
:10526000FFF75CFE09EB07114A6806928A6808920C
:1052700000220B680493C868059069463046FFF722
:105280003DFE040011D0FFF750FE82462046FFF796
:1052900068FF50B15046FFF753FE7F1CDDE72846FC
:1052A000FDF716FF10B0BDE8F08701F067FB00BF07
:1052B000F8B56846052141604FF47A728260DFF8E4
:1052C0007416DFF874260091C2600121FFF7BAFF5F
:1052D00005B000BD38B504460D46FFF726FE002197
:1052E00045F80C1C226812B9256006E00A4652F8FF
:1052F0000C1C0029FAD142F80C5CBDE832401FE6D4
:1053000080B5FFF7FFFDFFF712FF10B96FF0040043
:1053100002BD816809B9022002BD4068AFE00628DD
:105320000ADA0C22DFF804365043185A00281CBF52
:105330004FF6F872904202D14FF0FF30704708806C
:105340000020704730B5DFF8F4552A680C464FF45A
:105350007A71A1FB0001002301F014FB002902D89F
:10536000B0F1004F02D36FF0020030BD206000208A
:1053700030BD0146886849680847F8B505460E46BD
:10538000FFF7C0FDFFF7EDFE04000DD0FFF7CDFDE8
:10539000014600220C27DFF8943557433B44188818
:1053A00020B1521C062AF5D301F0E8FA4FF6F87046
:1053B000002718805C609F602A706068306000F091
:1053C00092F80020F2BD0C3842E670B5044615464E
:1053D0001E460846FFF7EBFE0146FF2902D14FF0BB
:1053E000FF3070BD33462A462046BDE8704080E05D
:1053F0007CB50546164600F09EF8040010D12888BA
:105400006946C0B2FFF78BFF28B13068FFF7DBFFBA
:105410006FF0050076BDBDF800002880FFF770FF33
:10542000204676BD38B50546FFF76CFDFFF77FFED9
:105430000446FBF723F9002818BF012800D014B94F
:105440006FF0040032BD65B900200090009B6068D9
:105450004FF000420021FEF785FB401E8041C00F47
:1054600032BD15F1010F08BF4FF0FF30EDD0694696
:105470002846FFF767FF0028E8D032BD80B54FF01F
:105480000041FFF743FD002002BD2DE9F84305462A
:1054900000F09AF9FFF765FE04006FF0020920D0D2
:1054A000FFF743FD014600220C23DFF8800453433D
:1054B0000344188840B1854211D0521C062AF3D308
:1054C00001F05CFABDE8F2831D805C609E603A707A
:1054D0006068C8F8000000F006F80020F2E700F06D
:1054E00002F84846EEE708462AE568E5B0E501E639
:1054F000F0E52DE9F8430D46062DBCBF044606280D
:10550000164699466FF0020806DAFFF70EFD00F026
:1055100000FA19B9FFF714FD40460AE0FFF710FD45
:1055200000F0EDF9786840684FF00041FFF7EEFCBD
:105530000020BDE8F2832DE9F04106460F46904673
:10554000FFF7E0FCFFF7F3FD050008BF6FF0040074
:105550001BD0FFF7EAFCA968002441B10C46A4F176
:105560000C0100230A68AA60FF250B608D72FFF70B
:10557000E7FC0CB9022008E0A4F10C0001793170BD
:1055800040793870C8F800400020BDE8F08182B052
:1055900001208DF800009DF800000028FBD101F0EB
:1055A000EDF900BFFBF77EB850B5DFF890633268C5
:1055B0006FF00044A4FB020100234FF47A7201F063
:1055C000E1F9002902D8B0F1004F00D3204650BDC8
:1055D0007CB50C4615461E466946FFF7B3FE30B94A
:1055E000009833462A46214600F002F8002076BD96
:1055F0002DE9F0431D4689B02C6880460E461746BB
:105600002CBB0C20FFF7DBFC04006FF0030918D063
:105610000823242200216846FAF76CFD0020ADF82B
:1056200010000590069400236A464146DFF81003F7
:10563000FFF770FC206030B9FFF7A9FF2046FFF7A5
:1056400007FD484617E06660A7602C600BE0DFF8B6
:10565000F4623068804705462068FAF74FFDA7607E
:1056600028467168884720684146FAF74BFD206854
:10567000FAF74CFD002009B0BDE8F08300281CBFFC
:105680000068FAF73BBD7047E0B58DF80400684646
:1056900001F028FA9DF805000EBDE0B501906846BE
:1056A00001F056FA0EBDE0B50190684601F05AFAD5
:1056B0000EBD2DE9F84384B0044600F085F8FFF7ED
:1056C00036FD054600200290FAF7D8FF002818BFE3
:1056D000012800D015B96FF0040072E044B9002031
:1056E0000190FAF7DFFF814601980124814425E00B
:1056F00014F1010F08BF4FF0FF30F1D001A920468F
:10570000FFF720FE0028ECD05BE0039902A8FFF72A
:10571000E1FD68684FF00051FFF7F8FB01980124A4
:1057200010F1010F18BF002808D0FAF7BBFFB9EB42
:10573000000031D0019981422ED30190019B68680D
:105740004FF000520021FEF70DFA28B303AA694674
:105750000DF10100FFF7EFFE0400DFD19DF801001D
:105760000DF10201FFF7DBFD0028CED1039A9DF871
:105770000010BDF80200B0470028C6D017B1BDF830
:1057800002003880B8F1000F1CBF9DF8001088F8A7
:1057900000100C9803990160FFF7B2FD029EFFF71D
:1057A000C4FB014656B1324600E0024652F80C0CEA
:1057B0000028FAD1A86842F80C0CAE60FFF793FEFF
:1057C000204605B0BDE8F0830E4617469846FFF721
:1057D00099BB38B5FFF796FB0446FAF74FFF002850
:1057E00018BF012811D0FFF7A0FB00254F4A0C235A
:1057F0006B43D15A39B1D11849680B68A34206D01E
:105800006D1C062DF3D3FFF79BFBFF2032BDFFF786
:1058100097FBE8B232BDE0B5ADF800008DF8061098
:10582000002049490A68ADF802006846904710B95F
:105830009DF807000EBDFF200EBD1078422801D153
:1058400001207047002070470CB478B504460E461E
:1058500087B0FAF713FF0CAD002814BF0128FFF73B
:1058600096FE14200021FF22ADF8100002918DF861
:10587000122006960595FFF7ACFF05AB03222146E3
:10588000FFF7A3FD002001A9019000910023002251
:105890002E4941F28830FFF70CFF012805D020B9CE
:1058A000019820B1FFF78FFD01E0FFF770FE05982A
:1058B000006808B070BC5DF80CFB2DE9F8430D469C
:1058C000062DBCBF04460628164699466FF002080E
:1058D00006DAFFF72AFB00F01CF819B9FFF730FBD6
:1058E00040460AE0FFF72CFB00F009F878684068B2
:1058F0004FF00051FFF70AFB0020BDE8F283A9F149
:105900000800047045708670494678680830FFF7D3
:10591000E1BC0C22054B02FB05F7DF1979687047E3
:1059200034170020FF3F0020431E0020C81600202F
:1059300009520000899E01002C0500200CFD010089
:1059400073530000040500200C0500203B580000A4
:10595000D95100002B4F0000414F0000DFF800F04C
:10596000A1B60110DFF800F035BD0110DFF800F03E
:1059700019BD01102DE9F04389B0804689461746CC
:105980001D46109C119E0823242200216846FAF728
:10599000B1FB394906964FF47A700A68B0FBF2F110
:1059A0004D4305954F43ADF810406B463A46494686
:1059B0004046FAF7B3FB404609B0BDE8F083FAF77A
:1059C000A5BB80B5FAF789FE00B10120C0B202BDC7
:1059D000FAF794BB10B504460021FFF7BFFF20463D
:1059E00010BD70B505460C4616460C20FFF77DFD30
:1059F00001000BD08E602846FFF7B4FF24B14FF0B2
:105A000080412046FFF782FA012070BD3046FFF743
:105A10006DFD002070BD10B50446FFF7A7FFA04242
:105A200004D08468FFF762FD204610BD002010BD41
:105A3000F0B585B00446684611A11422FAF78EFD30
:105A40000E483025782605704670831CA21D06215D
:105A500012F8015D2D09491E1DF8056003F8016B60
:105A6000177807F00F071DF8075003F8015BEFD117
:105A7000197005B0F0BD00000CFD01006817002092
:105A80003031323334353637383941424344454674
:105A900000000000E0B500BF80A07D4A0190102109
:105AA000009113237B491020FFF7CEFEC0B20EBD3C
:105AB0002DE9F042002708280D461646764C00F2E4
:105AC0007A80DFE800F0050E1A26323E4A556D0056
:105AD000082D6ED104F108003168016071684160E1
:105AE0006AE0152965DA152104F1100000F032FA98
:105AF0002A46314604F1100058E0152959DA1521DB
:105B000004F1280000F026FA2A46314604F1280064
:105B10004CE015294DDA152104F1400000F01AFA85
:105B20002A46314604F1400040E0152941DA1521AA
:105B300004F1580000F00EFA2A46314604F15800EC
:105B400034E0152935DA152104F1700000F002FA6D
:105B50002A46314604F1700028E0152929DA8834F4
:105B60001521204600F0F6F92A46314620461DE070
:105B70002846FFF7BAFC5FEA00090FD0606804F11D
:105B8000A001884218BFFFF7B1FC2A4631464846BB
:105B9000FAF7D4FCC4F8049025700DE013270BE04D
